:020000040800F2
:1000000068480020ED01000855420008633D0008E3
:100010000942000829190008754C0008000000007A
:100020000000000000000000000000006345000820
:10003000DB19000800000000614500086545000864
:10004000070200080702000807020008070200086C
:10005000070200080702000807020008070200085C
:100060000702000807020008070200082D1900080F
:10007000070200080702000807020008070200083C
:10008000070200080702000807020008070200082C
:10009000070200080702000807020008070200081C
:1000A000070200080702000807020008070200080C
:1000B00007020008070200080702000807020008FC
:1000C00007020008070200080702000807020008EC
:1000D00007020008594C0008070200080702000840
:1000E00007020008070200080702000807020008CC
:1000F00007020008070200080702000807020008BC
:1001000007020008070200080702000807020008AB
:10011000070200080702000807020008070200089B
:10012000070200080702000807020008070200088B
:10013000070200080702000807020008070200087B
:10014000070200080702000807020008070200086B
:10015000070200080702000807020008070200085B
:10016000070200080702000807020008070200084B
:10017000070200080702000807020008070200083B
:10018000070200080702000807020008070200082B
:10019000070200080000000007020008070200082C
:1001A000070200080702000807020008070200080B
:1001B00007020008070200080702000807020008FB
:1001C00007020008070200080702000807020008EB
:1001D0000702000807020008DFF80CD000F088FBD7
:1001E00000480047A157000868480020064880479B
:1001F00006480047FEE7FEE7FEE7FEE7FEE7FEE70C
:10020000FEE7FEE7FEE7FEE7D1450008D90100085A
:100210002DE9F05F0546002092469B46884606463B
:10022000814640241BE0284641464746224600F0CE
:1002300071F953465A46C01A914110D311461846D7
:10024000224600F058F92D1A67EB01084F46224666
:100250000120002100F04FF917EB00094E41201E4C
:10026000A4F10104DFDC484631462A464346BDE896
:10027000F09FD2B201E000F8012B491EFBD270477B
:100280000022F6E710B513460A4604461946FFF762
:10029000F0FF204610BDF0B480EA0102D40F420006
:1002A000B2EB410F02D20246084611464A0042D044
:1002B000C30DDDB2C1F3C752AD1A202D35DAC1F33B
:1002C000160141F4000204B15242C5F1200602FABF
:1002D00006F12A411044B3EBD05F23D0C4B1012D05
:1002E000A0EBC35009DCF0BC4FF0004202EAC3525D
:1002F000DBB200F5000000F026B9400000F180708C
:1003000000EBC350A0F1807040EAD170490009E0D1
:10031000490841EAC071A0EBC35000F50000400855
:1003200000EBC350F0BC00F005B96142012202EBC2
:100330004101001BF6E7F0BC704781F00041AAE7DD
:1003400080F00040A7E780EA010210B502F0004308
:10035000400022D04A001FD0010E01EB1261C0F311
:100360005600C2F3560240F4000042F40002A0FB23
:10037000022000047F39140400D0401C50EA1240CF
:1003800001D44000491EC2B20C0604EBD010401C40
:100390004008802A02D003E0002010BD20F00100B8
:1003A000002900DA0020184310BD2DE9F04D81EA44
:1003B000030404F0004B21F0004514464FF0000AFE
:1003C00023F0004150EA050220D054EA01021DD07A
:1003D000C5F30A570246C5F31303C1F31300C1F373
:1003E0000A5640F4801543F48013A7EB0608101B4F
:1003F000D64608F2FD3873EB050002D308F1010878
:1004000001E092185B41B8F1000F03DA00200146C9
:10041000BDE8F08D00204FF48011064684460EE0C2
:10042000171B73EB050705D3121B63EB050306438C
:100430004CEA010C49084FEA300092185B4150EA3F
:100440000107EDD152EA030012D082EA040083EAE8
:100450000501084305D0101BAB4106D20122002341
:1004600006E000224FF0004302E06FF0010253105B
:100470001AEB06004CEB085110EB0A0041EB0B01A4
:10048000BDE8F04D00F08DB8002801DBC0F1004060
:10049000002901DBC1F10041814201D201207047F6
:1004A0000020704700F0004230F000400AD0C10D3B
:1004B00001F56071C0F3160042EA0151C20840071D
:1004C0001143704700200146704730B50B46014686
:1004D00000202022012409E021FA02F59D4205D3E3
:1004E00003FA02F5491B04FA02F52844151EA2F18D
:1004F0000102F1DC30BD202A04DB203A00FA02F1CF
:10050000002070479140C2F1200320FA03F3194301
:1005100090407047202A04DB203A21FA02F00021A3
:10052000704721FA02F3D040C2F120029140084303
:10053000194670470029A8BF7047401C490008BFF2
:1005400020F00100704710B4B0FA80FC00FA0CF003
:1005500050EA010404BF10BC704749B1CCF120043B
:1005600021FA04F411FA0CF118BF012121430843C8
:10057000A3EB0C01CB1D4FEA00614FEA102042BFF4
:10058000002010BC704700EBC35010440029A4BFEA
:1005900010BC7047401C490008BF20F0010010BC8F
:1005A000704710B5141E73F1000408DA401C41F1C5
:1005B000000192185B411A4301D120F0010010BDE7
:1005C0002DE9F04D92469B4611B1B1FA81F202E05D
:1005D000B0FA80F220329046FFF78DFF04460F46B6
:1005E00040EA0A0041EA0B0153465A46084313D039
:1005F000114653EA010019D0C8F140025046FFF7F6
:1006000089FF05460E46504659464246FFF773FF9E
:10061000084305D0012004E020463946BDE8F08DAE
:100620000020054346EAE0762C4337430A986305E9
:10063000E40AA0EB08000022FD0A44EA47540A300D
:1006400002D500200146E9E7010510196941DDE9FD
:10065000084500196941BDE8F04DA2E72DE9FE4FBC
:10066000804681EA0300C00F0C46009021F0004153
:1006700023F00045B8EB0200A94105D240462146CF
:1006800090461C460B46024623F00040104347D0DC
:10069000270DC7F30A00C3F30A510290401A0190D4
:1006A00040286BDAC3F3130040F4801B0098924695
:1006B00020B10023D2EB030A63EB0B0B01985946E0
:1006C000C0F140025046FFF716FF06460D46504661
:1006D0005946019A00F01EF910EB08006141002410
:1006E00087EA115284EAE7731A4340D0009A62B352
:1006F000019A012A4FEA075215DC001B61EB020147
:100700004FF0004202EA0752CDE90042001C41F5D9
:10071000801132462B46FFF753FF03B0BDE8F08F40
:1007200040462146F9E7001B61EB0201001C41F540
:10073000801300185B412018A2F5001747EB030156
:1007400040EAD570B6196D4111E06D084FEA3606E2
:1007500045EAC0754FEA0752001B61EB0201001C1D
:1007600041F5801149084FEA3000001951413246E5
:100770002B4603B0BDE8F04FFFF713BF00980122EE
:1007800040000023D0EB020263EBE07300982146A7
:100790004FEAE074B8EB000061EB0401E9E783F095
:1007A00000435BE781F0004158E72DE9FE4F81EA05
:1007B000030404F0004421F0004100944FF0000BCA
:1007C00023F0004350EA01045ED052EA03045BD0F8
:1007D000C3F30A54C1F30A552C44A4F2F334019430
:1007E000A0FB0254C1F3130141F48011C3F31303BE
:1007F00043F4801301FB024400FB034E840A970A72
:1008000044EA815447EA8357A4FB076802958D0A9E
:1008100005FB07854FEA932C04FB0C542705029D2A
:100820004FEA065847EA1637B5EB08056EEB070C9A
:10083000870E920E47EA811742EA8312A7FB020154
:10084000B6EB0B0164EB00042B0D43EA0C335E188E
:1008500044EB1C50DA465146E7FB0201C5F3130492
:100860004FEA0B3343EA14534FEA0432019C43EA44
:100870000603A4F10C040294009CCDE900B4FFF738
:100880009FFE03B0BDE8F08F00200146F9E7C1F3F9
:100890000A52C1F3130140F2FF3341F480119A422E
:1008A00002DA00200146704740F233439A42A2F236
:1008B000334202DC5242FFF72DBEFFF71CBE0000A0
:1008C00030B5041E71F1000404DB4FF000444042D7
:1008D00064EB0101141E73F1000405DB1C464FF0AC
:1008E0000043524263EB0403994208BF904230BD7B
:1008F000064C074D06E0E06840F0010394E807006D
:1009000098471034AC42F6D3FFF76AFCB0E8000811
:10091000D0E80008202A06DBCB17203A41FA02F083
:1009200043EAE07306E041FA02F3D040C2F120024C
:10093000914008431946704770B58C1810F8015B58
:1009400015F0070301D110F8013B2A1106D110F868
:10095000012B03E010F8016B01F8016B5B1EF9D16C
:100960002B0705D40023521E0DD401F8013BFAE7F2
:1009700010F8013BCB1A921C03E013F8015B01F85D
:10098000015B521EF9D5A142D8D3002070BD0000F2
:100990002DE9F04701264FEA42084FEA51090024A9
:1009A000002506EB510C6FF0010606EB510E00BF5F
:1009B000ADB26600AC4228D250F8267050F835200F
:1009C000E900043140F8262040F8357046F0010275
:1009D00050F822A0475840F8227040F801A004EBDC
:1009E0000C0105EB0C0750F831A050F8372040F807
:1009F0003120C90040F837A0FF000431043750F817
:100A000001A0C259425040F807A000EB86014D44B6
:100A10008A6850F835608E6040F83520ED00043566
:100A2000CA684659CE604251A21C03EB080194B239
:100A30001D880B46744588BFBDE8F087B8E7B0B5A0
:100A400082B00C4605468389426801888078012877
:100A500005D128690090204600F008FC02E02046FD
:100A600000F050F9E87801281CBF02B0B0BDAB68B7
:100A7000EA892988204602B0BDE8B040FFF788BF68
:100A800046F6B00CFF29C0F6000CC0F804C0018087
:100A9000C370827046F2B0024FF0FF03C0F600024E
:100AA0000DDDB1F5807F13D0B1F5805F15D0B1F5C4
:100AB000806F21D106324FF06A51042317E01029CC
:100AC0000FD0402918D17E324FF0725140230EE0F2
:100AD0001E324FF06E51102309E04FF06651012392
:100AE00005E002F5FF724FF076514FF48073C38139
:100AF000838100230161826058B270472DE9F04381
:100B000081B00546002090460C46B0EB920F4CD0C9
:100B10004FEA9800C0F10009D5E900070146FFF748
:100B200012FC064638463946FFF70DFC01463046B2
:100B3000FFF7B1FB04F06AFE2060D5E9020601462A
:100B4000FFF701FC074630463146FFF7FCFB014644
:100B50003846FFF7A0FB04F059FE6060D5E90406B3
:100B60000146FFF7F0FB074630463146FFF7EBFB47
:100B700001463846FFF78FFB04F048FEA060D5E938
:100B800006060146FFF7DFFB074630463146FFF712
:100B9000DAFB01463846FFF77EFB04F037FEE060E3
:100BA0001034203519F10109B6D118F0030016D020
:100BB000474200BFD5E900060146FFF7C4FB804667
:100BC00030463146FFF7BFFB01464046FFF763FB67
:100BD00004F01CFE44F8040B08350137EAD101B0DB
:100BE000BDE8F0832DE9F04F89B0834691464A1E57
:100BF0004FF0000A98460F465BF8046BBAEB920F71
:100C000062D0029090080121CDE9047903924FF05F
:100C1000000A0425CDF8188061F3010240420192D8
:100C20000890DBE90087DBE9024007903046414647
:100C3000FFF72AFC814630464146FFF725FC002895
:100C400018BFA5F1030A3946B9F1000F18BF46468F
:100C50003046FFF719FC00283046394618BFA5F189
:100C6000020AFFF711FC002818BF3E463046214615
:100C7000FFF70AFC00283046214618BFA5F1010AFB
:100C8000FFF702FC002818BF2646079C3046214685
:100C9000FFF7FAFB00283046214618BFAA46FFF7A7
:100CA000F3FB0028089818BF26460BF1100B0435FB
:100CB0000130B5D1DDE901100DF10C09DDF8188026
:100CC00099E8840200EB810B12F0030013D0454237
:100CD0005BF8044B30462146FFF7D6FB0028304630
:100CE000214618BF07EB050AFFF7CEFB002818BF07
:100CF00026460135ECD1C9F80060C8F800A009B05B
:100D0000BDE8F08F2DE9F04FA3B0834600200C9191
:100D1000144604931E9206922292A0EB91071801AA
:100D20008908CDF808B00B90D800019105910A9080
:100D300003EB4300C0000990C800219008012090F7
:100D400001EB4100C0001F90CDE91C472098DBF863
:100D500004A05BF800108046DBF80000CDF84CA042
:100D600017911690FFF797FA21991F9A0746199045
:100D70005BF801000E465BF80210154615901491C1
:100D8000FFF789FA814638464946FFF784FA0BEBAC
:100D900005014F681B910BEB06014E680F910BEBA1
:100DA00008011A914968119710961291D4E90082AE
:100DB000CBF8000050460D92FFF76DFA054630461D
:100DC0003946FFF768FA044628462146FFF763FADA
:100DD000CBF8040019984946FFF7AFFA06462846B3
:100DE0002146FFF7AAFA044630464146C246FFF7BD
:100DF000AAFA0D9F054620463946FFF7A4FA014698
:100E00002846FFF748FA2299DDF878800A68496891
:100E100018921991D8E900910E9121994BF801008F
:100E200050462146FFF78FFA044630463946FFF711
:100E30008AFA01462046FFF780FA0F994860DDE9FB
:100E40001601FFF77AFA16900446DDE91410FFF751
:100E500074FA17900546DDE91210FFF76EFA159047
:100E60000646DDE91001FFF768FA074620463946D5
:100E7000FFF711FA044630462946FFF75EFA0546A9
:100E8000204649464E46FFF75EFADDF83890824626
:100E900028464946FFF757FA01465046FFF7FBF947
:100EA00020994BF8010028463146FFF74CFA0546D9
:100EB00020464946FFF747FA01462846FFF73DFA24
:100EC0001A99486016983946FFF737FA81461598FF
:100ED0001799FFF7E0F9189C054648462146FFF7A9
:100EE00032FA199F064628463946FFF72CFA014682
:100EF0003046FFF7D0F91F994BF8010028462146EC
:100F0000FFF721FA054648461C9C3946FFF71BFAB5
:100F100001462846FFF711FA1B991D9F0BF1080B9C
:100F200048600B982299013704440A988044099834
:100F3000CDF87880014422917FF406AF0C981428F4
:100F4000C0F02F81059B00BF4FF0FF309908DDF8FE
:100F50000880DF00002500220F9300EB9300CC00F7
:100F60000E010391089004988000049080B20790CD
:100F700001EB4100CDE921464FEAC009CDE90D97CB
:100F8000DDF818C002EB420E09925CF83E105CF8E6
:100F900032001491110115905CF801000431139096
:100FA0005CF80100D100043112905CF8010011904E
:100FB0004FEACE0004305CF800001090CDE90A85BD
:100FC000209558F80610D8F80000D8F804501C9165
:100FD0001D901995FFF75FF9824658F8040058F8FC
:100FE00009101B901A91FFF756F98346504659464F
:100FF000FFF751F908EB090108EB04094E681F914E
:101000002299D9F804704144189617971E9149689F
:10101000C8F8000028461691FFF73DF90446384607
:101020003146FFF738F9064620463146FFF733F9D7
:10103000C8F8040050465946FFF77FF9824620461B
:101040003146FFF77AF9139F044651463846FFF7B9
:101050007AF9129D064621462846FFF774F90146A3
:101060003046FFF718F9219948F801003846214623
:10107000FFF769F9044628465146FFF764F901462F
:101080002046FFF75AF9C9F80400DDE91C10FFF704
:1010900054F91C900446DDE91A10FFF74EF9054695
:1010A0001D9019981699FFF748F98146DDE9170157
:1010B000FFF743F9074620463946FFF7ECF80446A8
:1010C00048462946FFF739F9DDF854A00546214680
:1010D0005046FFF738F9DDF844B006462946584631
:1010E000FFF731F93146FFF7D6F8229948F80100A9
:1010F00050462946FFF727F9054658462146FFF78F
:1011000022F901462846FFF718F91E9948601C98F5
:101110003946FFF712F91D9982464846DDF83490AA
:10112000FFF7B9F8149F054651463846FFF70BF90B
:10113000109C064629462046FFF705F93146FFF781
:10114000AAF848F8090038462946FFF7FCF8054692
:1011500020465146219CFFF7F6F801462846FFF746
:10116000ECF8229EDDE90E73DDE91F1548600C984E
:101170001D44B8448542FFF423AF0798099A0B9D9C
:10118000DDF8288002440898013508F108088542F6
:101190007FF6F6AE0599039B8808132905903FF664
:1011A000D3AE0198029C4042229025686068A668F0
:1011B0006169E7681D951F9021961E91FFF7BDF8A4
:1011C000A169804630462091FFF7B7F88146404636
:1011D0004946FFF760F8E669E061284621691C91FD
:1011E000FFF7ABF8824638463146FFF7A6F883464C
:1011F00050465946FFF7A1F8A06140464946FFF71F
:101200009CF8606150465946FFF745F82061DDE9DA
:101210001E10FFF740F8804638463146FFF73BF88E
:10122000054640462946FFF788F8E060DDE91C10D6
:10123000FFF731F80646DDE92010FFF72CF80746E6
:1012400030463946FFF779F8A06040462946FFF757
:1012500022F8606030463946FFF71DF8206022987A
:1012600020340130A0D123B0BDE8F08F2DE9F04F3C
:10127000A3B0834600200B91144603931D92059260
:101280002292A0EB910718018908CDF804B00C90C8
:10129000D800009104910A9003EB4300C00009902C
:1012A000C800209008011F9001EB4100C0001E9073
:1012B000CDE91B471F98DBF800205BF80010814642
:1012C000DBF804001692219010461591FEF7E3FF1B
:1012D00020991E9A80465BF801000E465BF80210CA
:1012E000154614901391FEF7D6FF824640465146AC
:1012F000FEF7D1FF0BEB05014F681A910BEB0601CE
:101300004E680F910BEB09011991496811971296DC
:101310001091D4E90092CBF8000021980D92FEF7CD
:10132000BAFF054630463946FEF7B5FF0446284663
:101330002146FEF7B0FFCBF8040040465146FEF7C9
:10134000FCFF064628462146FEF7F7FF04463046D6
:101350004946FEF7F8FF0D9F054620463946FEF741
:10136000F2FF01462846FEF7E8FF2299DDF8748077
:101370000A68496817921891D8E900A10E9120993E
:101380004BF8010048462146FEF7DDFF0446304693
:101390003946FEF7D8FF01462046FEF77CFF0F993D
:1013A0004860DDE91510FEF7C8FF15900446DDE939
:1013B0001310FEF7C2FF0546169021981099FEF70C
:1013C000BCFF21900746DDE91110FEF7B6FF064687
:1013D00020463146FEF7B1FF044638462946FEF75F
:1013E0005AFF0546204651465746FEF7ACFFDDF84A
:1013F0003890824628464946FEF7A5FF01465046EA
:10140000FEF79BFF1F994BF8010028463946FEF76F
:101410009AFF054620464946FEF795FF01462846B5
:10142000FEF739FF1999486015983146FEF733FFEA
:10143000814621981699FEF780FF179C054648467D
:101440002146FEF780FF189F064628463946FEF7DC
:101450007AFF01463046FEF770FF1E994BF80100F7
:1014600028462146FEF76FFF054648461B9C394635
:10147000FEF769FF01462846FEF70DFF1A991C9FEB
:101480000BF1080B48600C982299013704440A9824
:1014900080440998CDF87480014422917FF408AF0C
:1014A0000B981428C0F02E81049B00BF4FF0FF3032
:1014B0009908DDF80490DF000025002400EB93007C
:1014C0000E0102910790C8000D90039880000390D0
:1014D00080B2069001EB4100CDE90E7322964FEAEF
:1014E000C008CDF8308000BF059A04EB440C089486
:1014F00052F83C1052F834001491210115905058C4
:10150000043113905058E10004311290505811905A
:101510004FEACC00043010581090CDE9099500BF77
:1015200059F80610D9F80000D9F80440DDF834A0C5
:1015300021951D911E901A94FEF7ADFE59F80810E2
:101540000546169059F80A001C901B91FEF7A3FE61
:10155000834628465946FEF79EFE09EB080109EB33
:101560000A084F6820912299D8F8046049441797D7
:1015700019961F914968C9F8000020461891FEF796
:101580008AFE054630463946FEF785FE0446284663
:101590002146FEF780FEC9F8040016985946FEF76A
:1015A000CCFE834628462146FEF7C7FE139F04461D
:1015B00059463846FEF7C7FE129E0546214630467C
:1015C000FEF7C1FE01462846FEF7B7FE49F80A00BD
:1015D00038462146FEF7B7FE044630465946FEF728
:1015E000B2FE2146FEF757FEC8F80400DDE91D10E3
:1015F000FEF7A3FE1D900446DDE91B10FEF79DFEDD
:1016000005461E901A981899FEF797FE824619987B
:101610001799FEF792FE074620463946FEF78DFEE3
:10162000044650462946FEF736FEDDF854B005461E
:1016300021465846FEF787FEDDF8448006462946D7
:101640004046FEF780FE01463046FEF776FE2299C0
:1016500049F8010058462946FEF775FE0546404602
:101660002146FEF770FE01462846FEF714FE1F993C
:1016700048601D983946FEF70EFE1E998346504677
:10168000DDF83080FEF759FE149F0546594638466E
:10169000FEF759FE109C064629462046FEF753FEEB
:1016A00001463046FEF749FE49F80800384629460B
:1016B000FEF749FE054620465946FEF744FE014620
:1016C0002846FEF7E8FD20AEDDE90E7362CE1D442C
:1016D000B94448600B988542FFF422AF0698089CF5
:1016E0000A9DDDF8249004440798013509F10809A2
:1016F00085427FF6F9AE0499029B8808132904906D
:101700003FF6D4AE0098019C2C9E40422290256862
:101710006068A7686169D4F80CB01D951F90219787
:101720001E91FEF70AFEA169804638462091FEF719
:1017300004FE814640464946FEF7FFFD3146FEF76E
:1017400002FEE769E061284626693146FEF7F5FDAD
:101750008246584639465D46FEF7EFFD83465046C1
:101760005946FEF798FD2C99FEF7EDFDA061404625
:101770004946FEF790FD2C99FEF7E5FD6061504665
:101780005946FEF7DAFD2C99FEF7DDFD2061DDE913
:101790001E10FEF780FD804628463946FEF77BFD89
:1017A000054640462946FEF7C8FD2C99FEF7CBFDBD
:1017B000E0601D983146FEF76EFD0646DDE920101B
:1017C000FEF769FD074630463946FEF7B6FD2C990F
:1017D000FEF7B9FDA06040462946FEF75CFD2C9956
:1017E000FEF7B1FD606030462C9E3946FEF753FD92
:1017F0003146FEF7A8FD206022982034013085D1C3
:1018000023B0BDE8F08F000010B500F0E9F8BDE8A6
:1018100010404FF480620249024800F0BDBD000054
:10182000040400205C02002010B5846AE16D11F010
:10183000500F06D0E16DC90625D5204600F039FCD1
:1018400010BDE06D40F40070E06520680168090794
:1018500016D502F089FB78B12068C06880040028A2
:101860000ADBE06D20F48070E065E06DC00403D415
:10187000E06D40F00100E065204600F009FC10BD7D
:10188000C0688007EBE7616D496BBDE81040084711
:1018900010B5806AC16D41F04001C165016E41F033
:1018A0000401016600F005FC10BD10B5806A00F06F
:1018B000FFFB10BD70B504460068816811F0010F90
:1018C0002DD18168174A11421AD18168D543294028
:1018D000491C816001F098F806461BE0816811F010
:1018E000010F03D181682940491C816001F08CF807
:1018F000801B02280ED920680068C043C00709D0A9
:10190000E06D40F01000E065206E40F001002066C0
:10191000012070BD20680168C943C907DED10020DD
:1019200070BD00003F000080FEE70000014800F0AD
:101930003ABE0000C80200200D4902688A4201D266
:101940000C4901E00B492031D2B21423083AB2FB12
:10195000F3F2436C02F01F0223F003031944816485
:1019600004498031C1640121914001657047000044
:1019700008040240000802400179074A02EB810294
:101980004265054A4432491E826501F01F02012169
:101990009140C16570470000FC08024030B5D0E9B5
:1019A00013456560446D14B1D0E91645656090F843
:1019B000444004F01F050124AC40056C6C600468D1
:1019C00063608368102B036803D099600068C2606D
:1019D00030BD9A600068C16030BD704772B6FEE7E6
:1019E00030B587B000241F4A0094019402940394F8
:1019F000049405940121069412680B0401E0491C2B
:101A000089B2B2FBF0F5B5FBF1F59D42F7D2B2FB1E
:101A1000F0F0B0FBF1F21548134B491E0360C0E92A
:101A200001148021521E8161C0E9032401F03EFEB1
:101A300008B1FFF7D3FF4FF48050009069460B4880
:101A400001F0BAFE08B1FFF7C9FF2020049004A9F5
:101A50000694064801F0CEFD002801D0FFF7BEFF36
:101A600007B030BD0C000020000400402803002017
:101A70002DE9F041144600220A804FF48052228062
:101A8000124A002340F2FF3632F813500F88BD424D
:101A900000D90D8032F813502788BD4200D225802E
:101AA0005B1C9BB2B342EFD30A882388D21A028010
:101AB0000A88022303210A2002F0A2FC2288BDE842
:101AC000F041022303213C2002F09ABC04040020D0
:101AD0002DE9F04F044690F858009BB00F464FF0A8
:101AE000000B012812D0012084F858000026179618
:101AF000189620684FF0A048DFF81C91DFF81CA171
:101B0000474D404506D12846009508E002201BB00D
:101B1000BDE8F08F48450AD15046CDF800A002F04C
:101B20001FFA0090206802F01BFA40B109E0E06D56
:101B300040F02000E06584F858600120E7E7009855
:101B400050B1E06D40F02000E0654FF0010B00BFA8
:101B500084F858605846DAE720684146884201D048
:101B6000A84201D12F4800E02F48D7F800C02F4BE2
:101B700040F61F72BCF1000F2DD0D0F808C094F8C9
:101B800038802CF4604C4CEA483CD7F804804CEA8E
:101B9000080CC0F808C0D4F800C08C4501D0AC4592
:101BA00004D18968AB6801F0010109E0D9F8081097
:101BB000DAF8085001F0010105F001059B6829439E
:101BC00003F001031943C3D1BB6839681943836823
:101BD000934319431DE0876827F4604787602768AF
:101BE0008F4201D0AF4204D18968AB6801F0010196
:101BF00009E0D9F80810DAF8085001F0010105F001
:101C000001059B68294303F001031943A0D18168B2
:101C1000914381609CE700000004005000050050E3
:101C20000001005000030050000700500006005063
:101C30002DE9F84F00270446009790F85800DFF888
:101C400014840D46B946012811D0012684F8586045
:101C5000206802F081F960B1E06D40F02000E0659D
:101C60005FF0010784F858903846BDE8F88F0220ED
:101C7000FBE7D5E900210C23206803EA91131844FF
:101C8000036B01F01F014FF01F0C0CFA01FCC2F3B3
:101C9000846223EA0C038A4013430363206802F042
:101CA0005BF98246206802F053F95AEA00003CD101
:101CB000AA6829682068B2F1004F37D002F05CF9B9
:101CC0002068416921F00041416120686969C2686A
:101CD000C2F3C102520091402A69042A31D000EBBC
:101CE00082002B68026EDFF870C303F0F84302EA4B
:101CF0000C020B431A4342F0004101662268286936
:101D0000A96902EB8000026E22F080720A4302662B
:101D1000297F20682A69012910D0002100EB820068
:101D2000026E22F000720A4302667DE0002202F099
:101D300023F92068416941F00041C5E74FF0007187
:101D4000ECE7002102F0FEF8400320684FF00001AC
:101D500072D002F0F7F890FAA0F0B0FA80F128689B
:101D600042036ED090FAA0F0B0FA80F0814204D124
:101D700000221146206802F00EF90121206802F0CD
:101D8000E1F8400320684FF001015DD002F0DAF87D
:101D900090FAA0F0B0FA80F12868420359D090FA86
:101DA000A0F0B0FA80F0814204D100220121206825
:101DB00002F0F1F80221206802F0C4F84003206824
:101DC0004FF0020148D002F0BDF890FAA0F0B0FA4E
:101DD00080F12868420344D090FAA0F0B0FA80F075
:101DE000814204D100220221206802F0D4F80321AC
:101DF000206802F0A7F8400320684FF0030133D0B9
:101E000002F0A0F890FAA0F0B0FA80F1286842033E
:101E10002FD090FAA0F0B0FA80F0814204D10022D5
:101E20000321206802F0B7F82068816811F0010FE3
:101E300022D0A8E000E004E002F084F8C0F384615E
:101E40008DE7C0F3846091E702F07CF8C0F3846111
:101E5000A2E7C0F38460A6E702F074F8C0F38461DF
:101E6000B7E7C0F38460BBE702F06CF8C0F38461AD
:101E7000CCE7C0F38460D0E7EB682968434550F8AD
:101E8000B03FC1F3120101D10B4300E08B4303606B
:101E9000E868404577D1286841031CD090FAA0F14A
:101EA000B1FA81F1491C01F01F0109294FEA4031C3
:101EB00032D8002912D000BF90FAA0F1B1FA81F116
:101EC00001F1010101F01F0106FA01F609D100BF7D
:101ED000C0F3846109E0C0F38461E3E7C0F3846187
:101EE000EEE790FAA0F1B1FA81F101F1010101F000
:101EF0001F0146EA816102D1C0F3846003E090FAD9
:101F0000A0F0B0FA80F000F1010000F01F0000EB3B
:101F1000400041EA005132E000290ED090FAA0F1D1
:101F2000B1FA81F101F1010101F01F0106FA01F698
:101F300006D100BFC0F3846106E0C0F38461F1E71D
:101F400090FAA0F1B1FA81F101F1010101F01F0154
:101F500046EA816102D1C0F3846003E090FAA0F008
:101F6000B0FA80F000F1010000F01F003B4A00EBE6
:101F7000400002EB005041EA000141F00071AA6804
:101F8000206801F0F9FF36482B6803423FF46AAE3F
:101F900022684FF0A04C3348334E344D624501D097
:101FA000AA4201D1014600E031468968DFF8C080CD
:101FB00001F0E071434503D0DFF8B880434521D1FB
:101FC0005FEA01281ED4624506D02B4B9A427FF46B
:101FD00049AEAA4200D0304641F40001826822F0A6
:101FE000E0720A438260254825490068B0FBF1F0A1
:101FF000401C00EB4000800000E0401E00900028E4
:10200000FBD12FE6DFF87C8043450FD15FEAC11892
:102010000CD4AA4202D11C4B9A42F2D0624502D0A3
:10202000AA4200D0304641F080710CE0DFF85C80BD
:102030004345E6D14B02E4D4AA42E2D0624500D047
:10204000304641F48001826822F0E0720A438260E7
:1020500008E6000000007F4000F0FF03000020FEC3
:1020600000000880000300500007005000010050ED
:10207000000021C31000C090000600500C0000209A
:10208000400D0300000052C700050050000084CB43
:10209000054910B5884201D103F0FAFA03494FF41B
:1020A0007A20086010BD00005C0200201C000020A7
:1020B00070477047F8B54FF0000504002E460095B4
:1020C00002D0E06D10B107E00120F8BD204600F01D
:1020D0000DF9266684F8586020688168C1F3407164
:1020E00019B18168754A1140816020688168C1F327
:1020F000007189B98168724A114041F08051816054
:10210000704871490068B0FBF1F04000801C00E0AD
:10211000401E00900028FBD120688168C1F3007147
:1021200041B9E16D41F01001E165216E41F001011D
:102130002166012501F010FFE16DC90600D430B120
:10214000E06D40F01000E06501252846F8BDE06D27
:1021500020F4807040F00200E0652068816811F092
:10216000010F27D14FF0A043584A984201D0904226
:1021700004D19968966801F001010AE05449896820
:10218000544E01F00101B66806F001063143524E8B
:10219000B66806F0010631430CD1984201D0904256
:1021A00001D14E4800E04E486168826822F47C12FA
:1021B0000A438260E168E06B627F0843A16841EAFC
:1021C0004231084394F8241040EA0140012904D127
:1021D000218D444A02EB41410843E16A29B101F4EF
:1021E0007871226B014342EA01002168CA683E4BC4
:1021F0001A400243CA6020680169626B21F04061A5
:1022000011430161206801F0A7FE0646206801F035
:102210009FFE30432ED1207F94F83810800340EA8F
:1022200041012068C26844F202039A430A43C26033
:1022300020690028206801690AD041F480310161D9
:10224000206850F8C01F22696FF30D01114307E0A9
:1022500021F480310161206850F8C01F6FF30D0137
:10226000016094F8400001280CD02068016921F039
:1022700001010161606901282068016B21F00F01F3
:1022800011D013E0D4E911010843D4E9131211432A
:10229000084321680A6940F2FC739A43104340F0F6
:1022A00001000861E6E7226A521E11430163E06DF6
:1022B00020F0020040F00100E06546E7C0FFFF5F4C
:1022C000C0FFFF7F0C000020400D03000001005004
:1022D00000040050000500500006005000030050AC
:1022E000000700500000FEFF0740F0FF70B59CB0F3
:1022F0000546142115A8FDF7C3FF54216846FDF7D4
:10230000BFFF2868B0F1A04F3ED14FF400400090CD
:1023100080031190684600F07DFC08B1FFF75EFB7A
:102320001A49C86C40F40050C864C86C00F40050EE
:102330001A90C86C40F00100C864C86C002600F018
:1023400001001A90012015900320CDE9160615A969
:102350004FF0904000F02AFA0E4C0D482060052006
:10236000C4E901068020C4E9036040006061800088
:10237000A0612020C4E90706204600F071F908B1E9
:10238000FFF72CFB6C65A5621CB070BD001002400D
:1023900008000240C80200202DE9F047044600680A
:1023A0004FF0A0483D4F91468A46404501D0B84283
:1023B00001D13B4900E03B49896801F01F0501F06C
:1023C000CBFD002868D194F85800012864D0012082
:1023D00084F8580034492068884201D1012000E087
:1023E0000020401E28424FF0000605D0052D03D0E6
:1023F000092D01D0012003E02046FFF75BFA18B158
:1024000084F85860BDE8F087E06D40F601618843CC
:1024100040F48070E0652068B84201D1414605E093
:102420002249884201D1224900E00146814200D080
:102430001DB9E06D20F48010E065E06DC00404D5A6
:10244000206E20F00600206600E02666616D1948C7
:10245000C862616D18480863616D18484863216857
:102460001C20086084F858602068416841F0100121
:1024700041602068C16841F00101C16021684B469C
:1024800052464031606D00F04BF921688A680C4B70
:102490001A40121D8A60B5E70220B3E70001005020
:1024A00000030050000700500006005000050050D7
:1024B0000004005029180008AB1800089118000803
:1024C000C0FFFF7F10B590F8253000210122022BBC
:1024D00003D00421C163012122E003681C6824F0B9
:1024E0000E041C60836C1C6824F480741C600368F8
:1024F0001C6824F001041C6090F84430046C03F064
:102500001F0302FA03F36360D0E913345C60436D88
:1025100033B11C6824F480741C60D0E916345C600C
:1025200080F82520002280F82420084610BD70B5D0
:1025300090F82520002401212346022A07D00422F6
:10254000C26380F8251080F82430012429E0026855
:10255000156825F00E0515600268156825F001055F
:102560001560826C156825F48075156090F844201C
:10257000056C02F01F0201FA02F26A60D0E913252D
:102580005560426D32B1156825F480751560D0E94B
:102590001625556080F8251080F82430816B01B134
:1025A0008847204670BDF0B4016C0C6801680D6866
:1025B00090F8442002F01F06042202FA06F3234298
:1025C00011D06B070FD50B689B0603D40B6823F063
:1025D00004030B6090F8441001F01F018A40016C65
:1025E0004A60016B1DE0022303FA06F727424FF011
:1025F000000C4FF0010218D0AF0716D50C68A406E6
:1026000005D40C6824F00A040C6080F8252090F8AA
:10261000441001F01F018B40016C4B6080F824C016
:10262000C16A00291AD0F0BC08470823B3402342EE
:1026300014D02B0712D50B6823F00E030B6090F813
:102640004410036C01F01F0102FA01F15960C263EA
:1026500080F8252080F824C0416BE2E7F0BC704789
:1026600070B504000CD02B4A21681420914209D285
:10267000294A0A44B2FBF0F08000606427480AE06F
:10268000012070BD234A52420A44B2FBF0F08000A0
:102690006064204808382064022084F825000A6815
:1026A00047F6F0708243D4E902031843D4E90435B5
:1026B0002B431843A3691843E3691843236A18435B
:1026C000104308602046FFF737F9A0680025B0F5F1
:1026D000804F00D16560A16C20790860D4E91301B6
:1026E00041606068401E032808D82046FFF744F97F
:1026F000606D0560D4E91601416002E06565A5657D
:10270000E565E563012084F8250084F82450002065
:1027100070BD000008040240F8FFFDBF0000024049
:1027200070B5044690F82400002501280CD0012043
:1027300084F8240094F825600020012E06D084F847
:1027400024000225284670BD022070BD022684F8B0
:102750002560E0632068066826F0010606602046D2
:10276000FFF71CF9206B00282068016802D041F0B7
:102770000E0106E021F0040101602068016841F0CB
:102780000A010160A06C0168C90303D5016841F426
:1027900080710160606D18B1016841F48071016061
:1027A0002068016841F001010160CBE72DE9F04F9D
:1027B000DFF82092002301260324A9F1040B85B041
:1027C0000F2709F1040AABF1040EFAE006FA03F54B
:1027D0002A407CD091F804C00CF0030CBCF1010F2E
:1027E00002D0BCF1020F26D1D0F808C0CDF800C04D
:1027F0004FEA430C04FA0CF8CDF810C0DDF800C025
:102800002CEA080CCDF800C0D1F80C80DDF810C01F
:1028100008FA0CF8DDF800C048EA0C08C0F8088097
:10282000D0F804C02CEA050C0D79C5F300159D40C5
:1028300045EA0C0545600D79ED43AD070ED0C5683E
:102840004FEA430804FA08FC25EA0C05D1F808C051
:102850000CFA08FC4CEA050CC0F80CC00D7905F028
:102860000305022D16D1DD0800EB850CCDF808C05C
:10287000DCF820805D074FEAD56C07FA0CF528EAF2
:1028800005080D6905FA0CF5DDF808C045EA0805EC
:10289000CCF8205005684FEA430CCDF808C004FA84
:1028A0000CFC25EA0C0591F804C00CF00308DDF8D7
:1028B00008C008FA0CF848EA0508C0F800804D681E
:1028C00015F4403F7CD0444DD5F860C000E077E07F
:1028D0004CF0010CC5F860C02D6E23F0030C05F020
:1028E000010500953D4D65440295AD684FEA837C36
:1028F0004FEA1C7807FA08FC25EA0C05B0F1904F66
:1029000006D0DFF8DCC0604505D14FF0010C20E0B7
:102910004FF0000C1DE0DFF8CCC0604502D14FF055
:10292000020C16E0DFF8C0C0604502D14FF0030C86
:102930000FE0DFF8B8C0604502D14FF0040C08E0AA
:10294000DFF8ACC0604502D14FF0050C01E04FF05C
:10295000060C0CFA08FC4CEA050C029DC5F808C0F0
:10296000D9F80050CC46D1F8048095435FEAC828D6
:1029700000D51543CCF80050DAF80050D446D1F811
:10298000048095435FEA882800D51543CCF80050B1
:10299000DBF80050DC46D1F8048095435FEA8838C4
:1029A00000D51543CCF80050DEF80050F446D1F8BD
:1029B000048095435FEAC83800D51543CCF8005031
:1029C0005B1C0A6832FA03F57FF400AF05B0BDE87E
:1029D000F08F000008040140001002400000014098
:1029E0000004004800080048000C0048001000489F
:1029F000001400480069084000D0012070470AB167
:102A000081617047816270470148806870470000AB
:102A1000000000200548016809B90121016004494E
:102A20000A68006810440860704700000400002035
:102A30000800002010B50024032000F073F80020E7
:102A400000F008F808B1012401E000F025F8204664
:102A500010BD000070B50E4E05460024706898B198
:102A60004FF47A71B1FBF0F00A490968B1FBF0F05C
:102A700000F0ACFD40B9102D06D200222946501EB0
:102A800000F030F8356000E00124204670BD000001
:102A9000000000200C0000200A4882B0016E41F0C6
:102AA00001010166016E01F001010091816D41F0AB
:102AB00080518165806D00F08050009002B000F080
:102AC000A1B8000000100240002809DB00F01F023E
:102AD000012191404009800000F1E020C0F8001180
:102AE00070470000F0B40E4B1B680C46C3F3022382
:102AF000C3F10705042D00D90425191D072901D2AA
:102B0000002300E0DB1E012606FA05F1491E2140E4
:102B100099409E40761E16403143F0BC02F0C4B886
:102B20000CED00E0064900F0070208684FF6FF03CD
:102B3000184040EA0220034A104308607047000032
:102B40000CED00E00000FA052B492C4B0A683221FD
:102B50004A432B4940B1B0F5007F086829D020F4E2
:102B6000C06040F480602CE00868C0F34120022877
:102B700004D051F8800F20F4807022E0D1F880005A
:102B800020F48070C1F88000086820F4C06040F430
:102B900000700860B2FBF3F0401C00E0401E4A6980
:102BA000520501D50028F9D1486940050AD503200E
:102BB0007047C0F34120022806D051F8800F40F43E
:102BC0008070086000207047D1F8800040F4807069
:102BD000C1F88000086820F4C06040F4007008600C
:102BE000B2FBF3F0401C00E0401E4A695205DBD501
:102BF0000028F9D1D8E700000C00002040420F0067
:102C0000007000400248816841F480418160704753
:102C1000007000402DE9F843044600680026BB4DD3
:102C200000035ED5A86D0027C00008D4A86D40F051
:102C30008050A865A86D012700F080500090DFF853
:102C4000D092D9F8001041F48071C9F80010FFF754
:102C5000DBFE804606E000BFFFF7D6FEA0EB0800D3
:102C600002282BD8D9F80000C005F5D5D5F890007A
:102C700010F4407014D0216D814211D0D5F890002D
:102C8000D5F8901020F4407041F48031C5F89010D0
:102C9000D5F8901021F48031C5F89010C5F8900057
:102CA000C00711D0FFF7B0FE804641F2883907E037
:102CB000FFF7AAFEA0EB0801494501D903260BE066
:102CC000D5F890008007F3D5D5F89000216D20F459
:102CD00040700843C5F890001FB1A86D20F08050E7
:102CE000A8652078C00707D0D5F88800616820F073
:102CF00003000843C5F888002078800707D5D5F879
:102D00008800A16820F00C000843C5F888002078EE
:102D1000400707D5D5F88800E16820F03000084367
:102D2000C5F888002078000707D5D5F88800216904
:102D300020F0C0000843C5F888002078C00607D5F9
:102D4000D5F88800616920F440700843C5F8880010
:102D50002078800607D5D5F88800A16920F4406066
:102D60000843C5F888002078400607D5D5F88800C4
:102D7000E16920F440500843C5F888002078000637
:102D800007D5D5F88800216A20F440400843C5F8EB
:102D900088002088C00507D5D5F88800616A20F42E
:102DA00040300843C5F888002068800307D5D5F86F
:102DB0009C00A16A20F003000843C5F89C0020880D
:102DC000800507D5D5F88800E16A20F44020084343
:102DD000C5F88800208840050FD5D5F88800216BFC
:102DE00020F440100843C5F88800206BB0F5801F20
:102DF00003D1E86840F48010E860208800050FD512
:102E0000D5F88800616B20F440000843C5F88800BD
:102E1000606BB0F5800F03D1E86840F48010E86083
:102E20002088C0040FD5D5F88800A16B20F0407031
:102E30000843C5F88800A06BB0F1807F03D1E86833
:102E400040F48010E86020884FF0006180040ED5C7
:102E5000D5F88800E26B20F040601043C5F8880088
:102E6000E06B884203D1E86840F48010E860208875
:102E700040040ED5D5F88800226C20F04060104345
:102E8000C5F88800206C884203D1E86840F48010BF
:102E9000E860208800040FD5D5F88800616C20F028
:102EA00040500843C5F88800606CB0F1805F03D1E2
:102EB000E86840F48030E8602068C0030FD5D5F89A
:102EC0008800A16C20F040400843C5F88800A06C41
:102ED000B0F1804F03D1E86840F48030E8602068AA
:102EE00040030FD5D5F89C00E16C20F44010084356
:102EF000C5F89C00E06CB0F5001F03D1E86840F411
:102F00008010E8603046BDE8F88300000010024001
:102F1000007000402DE9F0470E4605004FF0000715
:102F200025D0DFF8AC81D8F8000000F00F00B042E7
:102F30000CD2D8F8001021F00F013143C8F800106E
:102F4000D8F8000000F00F00B04210D12968614CA1
:102F5000C80741F2883A5AD06868DFF87C910328A4
:102F600008D0022820682DD0400500282CDB012045
:102F7000BDE8F08720688001F9D5E06800F0030221
:102F8000E068C0F30310401C032A19D0534A00BF65
:102F9000B2FBF0F0E268C2F306225043E268C2F3EB
:102FA0004162521C5200B0FBF2F0484517D9A068AC
:102FB00010F0F00F0CD0880711D5A86840B10EE0D2
:102FC000474AE5E78003D0E700F0B6F8484506D960
:102FD000A06820F0F00040F08000A0608027A0688A
:102FE000696820F003000843A060FFF70DFD8146EB
:102FF00006E000BFFFF708FDA0EB090151453AD8F4
:10300000A068696800F00C00B0EB810FF2D128686D
:10301000810714D5400703D5A06840F4E060A060A4
:103020002878000705D5A06820F4605040F4E060DF
:10303000A060A068A96820F0F000084304E0802F99
:1030400003D1A06820F0F000A060D8F8001040463E
:1030500001F00F01B14216D9016821F00F0131438F
:103060000160FFF7D1FC074607E000BFFFF7CCFC8B
:10307000C11B514501D903207AE7D8F8000000F0C0
:103080000F00B042F2D12878400705D5A068E96862
:1030900020F4E0600843A0602878000706D5A06807
:1030A000296920F4605040EAC100A06000F044F8B3
:1030B000A1680C4AC1F30311515C01F01F01C84023
:1030C0000949086009480068BDE8F047FFF7C2BC3D
:1030D000002002400010024000B4C4040024F400A8
:1030E00000366E01725800080C000020000000201D
:1030F0000548064900688968054AC1F30221515C08
:1031000001F01F01C84070470C0000200010024071
:10311000825800080548064900688968054AC1F3D5
:10312000C221515C01F01F01C84070470C00002013
:103130000010024082580008184910B58868C0F392
:1031400081021748012A0BD08A68164BC2F381020C
:10315000022A06D08A68C2F38102032A03D0002023
:1031600010BD184610BDCA6802F00304CA68C2F355
:103170000312521C032C02D0B0FBF2F001E0B3FBAF
:10318000F2F0CA68C968C2F306225043C1F3416134
:10319000491C4900B0FBF1F010BD000000100240D6
:1031A0000024F40000366E012DE9F84304007AD0C3
:1031B0002078FA4DC00747D0A868E96800F00C00F5
:1031C00001F003010C2802D0082817D001E00329E0
:1031D00014D06068B0F5803F17D0B0F5A02F2868F4
:1031E00017D020F480302860286820F480202860E0
:1031F0006068E0B1FFF708FC064614E02868800329
:1032000022D560680028D2D01EE0286840F48030C3
:10321000EDE740F480202860F7E700BFFFF7F4FBFC
:10322000801B642870D828688003F7D50CE0FFF76E
:10323000EBFB064605E000BFFFF7E6FB801B6428BA
:10324000F0D828688003F7D4207880074CD5A86888
:10325000E96800F00C0001F003010C2802D00428FA
:103260000DD001E002290AD0E068002828682BD0A0
:1032700040F480702860FFF7C7FB064619E0286815
:10328000400502D5E068002891D06868217C20F0D4
:10329000FE4040EA01606860C1480068FFF7DAFB61
:1032A000002800D120E076E1FFF7AEFB801B02286A
:1032B000B8D828684005F7D56868217C20F0FE4022
:1032C00040EA016068600FE020F480702860FFF73A
:1032D0009BFB064605E000BFFFF796FB801B02281C
:1032E000A0D828684005F7D42078000729D5606960
:1032F0000028D5F8940013D040F00100C5F89400E0
:10330000FFF782FB064606E090E000BFFFF77CFB7C
:10331000801B022886D8D5F894008007F6D510E0E7
:1033200020F00100C5F89400FFF76EFB064604E0AC
:10333000FFF76AFB801B022878D8D5F89400800735
:10334000F6D42078400761D5A86D0026C00008D4C7
:10335000A86D40F08050A865A86D012600F080504F
:10336000009090480168C90511D40168804641F475
:1033700080710160FFF748FB074604E0FFF744FB5C
:10338000C01B022852D8D8F80000C005F6D5A068A6
:10339000012815D00528D5F8900016D020F001009E
:1033A000C5F89000D5F8900020F00400C5F8900012
:1033B000A06841F28838B8B1FFF726FB07460EE057
:1033C000D5F8900040F00100F0E740F00400C5F8A7
:1033D0009000F5E7FFF718FBC11B414526D8D5F84B
:1033E00090008007F6D50CE0FFF70EFB074604E0DF
:1033F000FFF70AFBC11B414518D8D5F8900080079C
:10340000F6D41EB1A86D20F08050A8652078800603
:1034100029D5A0690028D5F8980013D040F0010004
:10342000C5F89800FFF7F0FA064606E077E000BF1F
:10343000FFF7EAFA801B022877D8D5F898008007B2
:10344000F6D510E020F00100C5F89800FFF7DCFA8F
:10345000064604E0FFF7D8FA801B022865D8D5F8A5
:1034600098008007F6D4E069F0B3A968C1F3810140
:10347000032961D00228286820F0807028600BD0D2
:10348000E86820F00300E860E86847490840E86021
:10349000FFF7BAFA04464BE0FFF7B6FA064604E037
:1034A000FFF7B2FA801B02283FD828688001F7D4C2
:1034B000F4E908016FF00F0202EB01110843218AC1
:1034C0005204490802EB4151A26841EA0221084333
:1034D000217D4FF07E42490802EB41610843217B88
:1034E00040EAC160E96800E062E0304A1140084308
:1034F000E860286840F080702860E86840F08070DC
:10350000E860FFF781FA044605E000BFFFF77CFAA8
:10351000001B022809D828688001F7D548E004E09C
:10352000FFF772FA001B022802D90320BDE8F883D6
:1035300028688001F4D43BE00128F7D0E868226ACB
:1035400000F00301914226D1616A00F0F002090106
:10355000103991421FD1A26A00F4FE41B1EB022F53
:1035600019D194F82C2000F07841B1EBC26F12D140
:10357000218E00F4C00249084905A1F500119142CD
:1035800009D194F8341000F0C06049084906A1F14F
:10359000007181420CD00120C8E7000000100240F9
:1035A0000000002000700040FFFFEEFE0C809F0135
:1035B0000020BBE74FF0E0210428086903D020F089
:1035C00004000861704740F00400FAE710B5401E9F
:1035D000B0F1807F01D3012010BD4FF0E024606185
:1035E0000F21601701F060FB0020A061072020611F
:1035F000002010BDF0B590F83C20012A43D00125F1
:1036000080F83C50022280F83D2003685A689C688C
:103610001E4E1F4FDFF87CC0B34203D0BB4201D027
:10362000634504D122F4700E4A6842EA0E02DFF8C4
:1036300068E002EA0E02D1F800E04EEA020EC3F89A
:1036400004E00268B24212D0B2F1804F0FD0134BA7
:103650009A420CD0124B9A4209D0124B9A4206D091
:10366000BA4204D0104B9A4201D0624504D1896815
:1036700024F080031943916080F83D50002180F8C8
:103680003C100846F0BD0220F0BD0000002C0140B7
:1036900000340140005001408FFFFFFD0004004056
:1036A00000080040000C00400040014010B504003C
:1036B00003D094F83D0010B107E0012010BD0020B8
:1036C00084F83C00204600F023F8022084F83D00F6
:1036D000211D206800F084FF012084F8480084F850
:1036E0003E0084F83F0084F8400084F8410084F8EC
:1036F000420084F8430084F8440084F8450084F8CC
:10370000460084F8470084F83D00002010BD00000A
:1037100008B500680649884208D10648816D41F025
:1037200002018165806D00F00200009008BD00007C
:10373000000400400010024090F83D10012901D023
:1037400001207047022180F83D100068124988422C
:1037500014D0B0F1804F11D0104988420ED01049DA
:1037600088420BD00F49884208D00F49884205D0C3
:103770000E49884202D00E49884207D181680D4A1D
:103780001140062906D0B1F5803F03D0016841F011
:103790000101016000207047002C0140000400403E
:1037A00000080040000C004000340140004001408F
:1037B000005001400700010070B5044690F83C003D
:1037C000002501281CD0012684F83C60022084F8E2
:1037D0003D0022689068334B184020F47F40906091
:1037E0000868B0F5005F2ED016DC402849D009DC0F
:1037F000D0B1102818D0202816D0302849D113E095
:10380000022070BD50282AD0602830D070280FD0F8
:10381000B0F5805F3DD13DE010F00F0F39D10111BF
:10382000A1F58031072934D822680146104625E0E9
:10383000CB68D1E90121206800F03CFF2068816855
:1038400041F0770109E0CB68D1E90121206800F05F
:1038500031FF2068816841F4804181601AE0CA68C4
:103860004968206800F03AFF5021206806E0CA68E5
:103870004968206800F043FF6021206800F024FFC1
:1038800008E0CA684968206800F028FF40212068E5
:10389000F4E7012584F83D60002084F83C002846C8
:1038A00070BD000088FFCEFF90F88010012918D06D
:1038B000012180F880102421C0F8841050F8641B86
:1038C0000A680B6823F001030B6022F0005100220C
:1038D000026050F8643C19602021016202771046B2
:1038E0007047022070477047704770B5044690F8E3
:1038F000800001281DD0012084F880002420C4F815
:10390000840020680568026822F0010202602068D5
:10391000826822F060620A438260204600F002FF63
:10392000206805602020C4F88400002084F880000E
:1039300070BD022070BD70B5044690F8800001286B
:103940001DD0012084F880002420C4F88400206861
:103950000568026822F0010202602068826822F095
:1039600060420A438260204600F0DCFE2068056069
:103970002020C4F88400002084F8800070BD02205C
:1039800070BD7047704770472DE9F04103680446E9
:10399000D86919689A6840F60F0528424FF000056B
:1039A00009D186067ED501F0200602F080573E43FD
:1039B00078D0216F27E1A94EA94F16400F40374319
:1039C00070D0C70709D0CF0507D501271F62D4F8EB
:1039D0008C3043F00103C4F88C3083070AD5D30739
:1039E00008D0276802233B62D4F88C3043F00403EC
:1039F000C4F88C3043070AD5D30708D027680423BE
:103A00003B62D4F88C3043F00203C4F88C300307D7
:103A10000CD501F02003334308D026680823336215
:103A2000D4F88C3043F00803C4F88C3003050BD570
:103A30004B0109D526684FF400633362D4F88C300B
:103A400043F02003C4F88C30D4F88C30002B3AD0EB
:103A5000800609D501F0200002F08051084303D010
:103A6000216F09B120468847D4F88C002168896805
:103A7000490602D410F0280F27D0204600F012FF8C
:103A80002068806840061BD52068083050E8001F79
:103A900021F0400140E80012002AF5D1E06F78B132
:103AA000704900E017E08163E06FFEF740FD0028F9
:103AB00009D0E06F816B00E02046BDE8F041084787
:103AC0002046FFF760FFBDE8F0812046FFF75BFF6F
:103AD000C4F88C50F7E7E76E2026012F7ED1C70689
:103AE0007CD5CF067AD51020186220688068400601
:103AF00042D5E16F086840680004000CE3D0B4F8D8
:103B00005C208242DFD9A4F85E0008680068800665
:103B10002BD4206850E8001F21F4807140E8001287
:103B2000002AF6D12068083050E8001F21F001017A
:103B300040E80012002AF5D12068083050E8001F44
:103B400021F0400140E80012002AF5D1C4F8886055
:103B5000E566216851E8000F20F0100041E80002FE
:103B6000002AF6D1E06FFEF7ADFCB4F85C00B4F8C3
:103B70005E10401A81B22CE0B4F85C00B4F85E101C
:103B8000401A81B2B4F85E0000289CD000299AD077
:103B9000226852E8000F20F4907042E80003002BE6
:103BA000F6D12E4BDB432068083050E8002F1A4036
:103BB00040E80027002FF6D1C4F88860E566256745
:103BC000226852E8000F20F0100042E80003002BAA
:103BD000F6D12046FFF787FE75E7FFE7C70209D554
:103BE000570207D54FF4801018622046BDE8F04117
:103BF000FFF7C8BE03060AD501F0800302F40002F5
:103C0000134304D0616F00297FF456AF5BE742068F
:103C100011D54A060FD52046016851E8002F22F041
:103C2000400241E80023002BF6D1C0F884604567CC
:103C300000F096F847E7020206D54A0004D5204670
:103C4000BDE8F041FFF79DBEC001C5D50029C3DA2C
:103C50002046BDE8F041FFF747BE0000010000101C
:103C6000200100049148000810B5040003D0D4F8E6
:103C7000840010B107E0012010BD002084F880000E
:103C8000204600F027F82420C4F88400206801684A
:103C900021F001010160204600F02EFE0128EBD04A
:103CA000A06A10B1204600F05FFD2068416821F451
:103CB000904141602068816821F02A01816020687C
:103CC000016841F0010101602046BDE8104000F0AC
:103CD000AFBD000010B59CB00446142115A8FCF738
:103CE000CFFA54216846FCF7CBFA1A49206888427B
:103CF0002ED101200024CDE900046846FEF78AFF9A
:103D000008B1FDF76BFE1448016E41F48041016675
:103D1000016E01F480411A91C16C41F00401C1644B
:103D2000C06C15A900F004001A90302015900220F4
:103D3000CDE916040720CDE918400848FEF736FD06
:103D4000002211462520FEF7CDFE2520FEF7BCFE01
:103D50001CB010BD003801400010024000080048AF
:103D60007047FEE770B50D46044600F05FF8782016
:103D700000F020F800F0B0F8204600F01BF800F04A
:103D8000ABF8284600F016F800F0A6F8BDE8704041
:103D900000F076B810B5064C012211022046FEF75D
:103DA0002EFE20460122BDE810405102FEF727BE3C
:103DB000000400482DE9F0411B4C064620462168CE
:103DC00021F440212160216841F4802121604FF4D9
:103DD000007700223946FEF712FE00254FF4807866
:103DE000300601D5012200E0002241462046FEF7C0
:103DF00006FE7006060E022001F0E6FB012239469F
:103E00002046FEF7FCFD022001F0DEFB00223946D1
:103E10002046FEF7F4FD022001F0D6FB6D1CEDB24A
:103E2000082DDDD3BDE8F0810004004870B5134CC7
:103E3000206820F440202060206840F4802020602A
:103E40000122150229462046FEF7D9FD012256021D
:103E500031462046FEF7D3FD042001F0B5FB0022D9
:103E600029462046FEF7CBFD042001F0ADFB31468C
:103E70002046BDE870400022FEF7C1BD00040048A6
:103E800070B5144C206820F440202060206840F475
:103E9000802020604FF40075002229462046FEF75E
:103EA000AEFD6E10002231462046FEF7A8FD04202C
:103EB00001F08AFB012229462046FEF7A0FD0122DF
:103EC00031462046FEF79BFDBDE87040042001F01E
:103ED0007BBB0000000400482DE9F041184C002590
:103EE000206820F440202060206820600122160213
:103EF00031462046FEF783FD012001F065FB0122DB
:103F0000570239462046FEF77AFD012001F05CFB9E
:103F100008E06D1CEDB2FA2D04D9FFF7B1FF0120C6
:103F2000BDE8F08131462046FEF764FD0028F0D15F
:103F3000002239462046FEF762FD0020F0E700002F
:103F40000004004800EB8100006E00F0F84070476C
:103F50008068C0F3C00070478068C0F3800070477D
:103F60008068C0F380007047C06810F4406F01D0D3
:103F70000020704701207047042303EAD15310B595
:103F800018444369C1F3045107248C40A3438A4079
:103F90001343436110BD00EB8100016E21F000412D
:103FA000114301667047000030B58BB000240894BF
:103FB0000994202168460A94FCF762F91E484FF0E4
:103FC000A041042501604FF44031C0E90114C460F0
:103FD0000461C0E90545047744770121016280F856
:103FE00024404FF49061C1622902016380F8384097
:103FF000C46380F84040FEF75DF808B1FDF7EEFCC1
:1040000008A90D480894FDF763FD08B1FDF7E6FC2B
:104010000A4800900620CDE901047F200594CDE9EF
:10402000030569460448FDF703FE002801D0FDF7AB
:10403000D5FC0BB030BD00005C0200200200300453
:104040000D4808B5816C41F004018164816C01F078
:1040500004010091816C41F001018164806C0022B7
:1040600000F00100009011460B20FEF73BFDBDE87B
:1040700008400B20FEF728BD001002402DE9F0415A
:1040800086B014216846FCF7FBF82848C16C41F063
:104090000401C164C16C01F004010591C16C41F0DF
:1040A0002001C164C16C01F020010591C16C41F097
:1040B0000101C164C16C01F001010591C16C41F0C5
:1040C0000201C164C06C1A4F00F00200059000228A
:1040D00008213846FEF793FCDFF85880002248F2AA
:1040E00006314046FEF78BFC0820012402250026FD
:1040F0008DE8710069463846FEF758FB48F2060025
:1041000003958DE8510069464046FEF74FFB4FF49A
:10411000407000901120CDE901040320039069460E
:104120004046FEF743FB06B0BDE8F08100100240B8
:10413000000800480004004810B588B00024174863
:1041400000940194029403940494059412490694F3
:10415000C0E900144FF6FF71C0E9024104618461B7
:10416000FFF7A4FA08B1FDF739FC4FF48050009036
:1041700069460A48FFF720FB08B1FDF72FFC202015
:10418000049004A906940548FFF734FA002801D0EA
:10419000FDF724FC08B010BD0004004028030020F7
:1041A000184810B5164901604FF4E1314160002113
:1041B00081600C22C160C0E904128161C1610162A9
:1041C00041628162FFF750FD08B1FDF707FC002155
:1041D0000C48FFF7B0FB08B1FDF700FC00210948CF
:1041E000FFF783FB08B1FDF7F9FB0648FFF75CFB1F
:1041F000002803D0BDE81040FDF7F0BB10BD000063
:104200000038014074030020FEE70000094881687F
:104210000968C96989060CD507490A68074B4168CE
:104220005A54491C4160642903D100214160012195
:1042300001707047480200202438014004440020E7
:10424000034988600068016841F0200101607047FF
:1042500048020020FEE70020AFF3008070B506465C
:104260005FF0000404F1B000C0B200F004FD0020D3
:1042700000F001FD102000F0FEFC0025304600F0AB
:10428000FEFC6D1CEDB2802DF8D3641CE4B2082C4A
:10429000E8D370BD10B5FFF77DFD642001F08EF905
:1042A000AE2000F0E8FC202000F0E5FC102000F03B
:1042B000E2FCB02000F0DFFCC82000F0DCFC0020B5
:1042C00000F0D9FC102000F0D6FC402000F0D3FC18
:1042D000812000F0D0FC204C607800F0CCFCA120C4
:1042E00000F0C9FC207808B1A62000E0A72000F06B
:1042F000C2FCA82000F0BFFC3F2000F0BCFCA420C2
:1043000000F0B9FCD32000F0B6FC002000F0B3FCB4
:10431000D52000F0B0FCF02000F0ADFCD92000F07A
:10432000AAFC222000F0A7FCDA2000F0A4FC122056
:1043300000F0A1FCDB2000F09EFC202000F09BFCA4
:104340008D2000F098FC142000F095FCBDE8104092
:10435000AF2000F090BC00002400002010B50446FF
:10436000B031C8B200F087FC102040EA141000F011
:1043700082FC04F00F00BDE8104040F0010000F0A6
:104380007ABC00002DE9F0410024203A0F46804617
:10439000012B21D0022B1DD1D6B2FFF7DFFF164D26
:1043A00004EB0610285C00F06AFC641CE4B2082CE4
:1043B000F6D37F1CF9B24046FFF7D0FF5FF0000450
:1043C00004EB06102844007A00F059FC641CE4B2A7
:1043D000082CF5D3BDE8F081D5B2FFF7BFFF074940
:1043E00005EB450001EB4005285D00F048FC641C2E
:1043F000E4B2062CF8D3EDE7C05A00089258000842
:10440000FEB5151E064605D009DA2D208DF80000F0
:10441000554207E03022FFF7B5FF0120FEBD202006
:104420008DF8000001246A460A2008E095FBF0F7A9
:1044300000FB175795FBF0F530371755641C002D1E
:10444000F4DC00201055012004EBD4750AE000BF15
:10445000271A12F800E012F807C002F800C002F8AC
:1044600007E0401CB0EB650FF2DD9DF800002D2841
:10447000304604D0521C00F007F8601EFEBD00F06C
:1044800003F82046FEBD00002DE9F04700259146C7
:104490008A460446012B22D0DFF8BC80022B24D1AF
:1044A00055E02038C7B27E2C04D90AF1010000245F
:1044B00000F0FF0A51462046FFF750FF07EB470088
:1044C000002608EB4007B85D00F0D9FB761CF6B279
:1044D000062EF8D3A41D6D1CE4B2EDB201E0DFF8A6
:1044E0007C8019F805000028DBD1BDE8F087203872
:1044F000C7B2782C04D90AF10100002400F0FF0AA9
:1045000051462046FFF72AFF5FF0000606EB071131
:1045100018F8010000F0B3FB761CF6B2082EF5D3B4
:104520000AF10100C1B22046FFF718FF5FF0000654
:1045300006EB071101EB0800007A00F0A0FB761CE7
:10454000F6B2082EF4D308346D1CE4B2EDB219F8BB
:1045500005000028CBD1C8E7C05A000892580008CF
:1045600070477047FEF756BA10B594B038216846C8
:10457000FBF786FE14210EA8FBF782FE0020FEF753
:10458000E3FA012000900004032406210190CDE904
:10459000084102205521CDE90A1007900C900D909A
:1045A0006846FEF701FE08B172B6FEE70F20CDE9BE
:1045B0000E04002010901190129004210EA8FEF716
:1045C000A9FC002801D072B6FEE714B010BD0000AF
:1045D0000248016841F470010160704788ED00E015
:1045E0002DE9F04F02682A4B2A4E2B4FDFF8ACC062
:1045F0002B4C2C4D4FF0804B98420BD0584509D096
:10460000B04207D0B84205D0604503D0A04201D0E7
:10461000A84204D122F070084A6842EA0802DFF892
:104620008880DFF88890DFF888A0984211D058453C
:104630000FD0B0420DD0B8420BD0604509D0A04297
:1046400007D0404505D0484503D0504501D0A84289
:1046500003D122F44076CA6832434E6922F08002C8
:10466000324302608A68C2620A688262984209D054
:10467000A04207D0404505D0484503D0504501D061
:10468000A84201D10969016301214161BDE8F08FB0
:10469000002C01400004004000080040000C0040D5
:1046A00000340140005001400040014000440140FE
:1046B0000048014010B5846842EA032224F47F4494
:1046C0000A432243826010BD8268034B1A400A43AA
:1046D00042F00701816070478FFFCFFF10B5036A7A
:1046E000046A24F001040462846924F0F00444EABA
:1046F000021423F00A020A438461026210BD10B55D
:10470000036A23F0100303628369046A23F470438D
:1047100043EA023224F0A00343EA011182610162FC
:1047200010BD000030B5416EB9B102689168926861
:10473000C1F342610B4B520F9C5CE50003F108048E
:10474000A25CB5FBF2F2A0F86A205A5C615CD20070
:10475000B2FBF1F1A0F8681030BD0121A0F86A1099
:10476000F8E700006258000890F82810C90706D042
:1047700001684A68C36A22F400321A434A6090F81A
:104780002810890706D501684A68036B22F4803235
:104790001A434A6090F82810490706D501684A680C
:1047A000436B22F480221A434A6090F828100907CC
:1047B00006D501684A68836B22F400421A434A60B6
:1047C00090F82810C90606D501688A68C36B22F4E0
:1047D00080521A438A6090F82810890606D501682D
:1047E0008A68036C22F400521A438A6090F82810F9
:1047F000490611D501684A68436C22F480121A43B5
:104800004A60416CB1F5801F06D101684A68836C2B
:1048100022F4C0021A434A6090F82810090606D50F
:1048200001684A68C06C22F4002202434A60704763
:10483000F8B500260446C0F88C60FEF7E5F805469A
:10484000206800686FF07E47000708D52B460022DD
:104850004FF400112046009700F09AF960B92068E3
:10486000006840070AD52B4600224FF480012046FD
:10487000009700F08DF908B10320F8BD2020C4F89E
:104880008400C4F8880044F86C6F00202675F8BDD9
:1048900010B5806A0021A0F85E10A0F85610FFF74E
:1048A00072F810BD10B5026852E8001F21F4907133
:1048B00042E80013002BF6D10E4B0268083252E892
:1048C000001F194042E80014002CF6D1C16E0129E6
:1048D00008D1016851E8002F22F0100241E80023BE
:1048E000002BF6D12021C0F888100021C166016795
:1048F00010BD0000FEFFFFEF2DE9F0410446016806
:1049000080682269E3691043626900251A431043F5
:10491000DFF84CC20A68934B1A4002430A602068D1
:104920004168E26821F44051114341602168A06967
:10493000614501D0226A10438A688B4B1A400243BA
:104940008A602068C16A626A21F00F011143C16266
:104950008649236886488B420DD1D0F8880010F034
:10496000030006D0012867D0022854D0032851D173
:1049700064E001204FE07F498B420BD1D0F88800E2
:1049800010F00C0047D0042845D0082852D00C283D
:1049900040D153E078498B420BD1D0F8880010F019
:1049A000300038D0102847D0202843D0302831D1CB
:1049B00044E072498B420BD1D0F8880010F0C0005F
:1049C00029D0402838D0802834D0C02822D135E0E2
:1049D0006B498B420ED1D0F8880010F440701AD089
:1049E000B0F5807F28D0B0F5007F23D0B0F5407FB0
:1049F00010D123E063450DD1D0F8880010F4406059
:104A000009D0B0F5806F17D0B0F5006F12D0B0F5B7
:104A1000406F13D010205B4A5B4F00264FF40041DB
:104A2000634539D160B102280DD004280DD0082883
:104A300031D10EE00220EEE70420ECE70820EAE79F
:104A4000FEF756FB03E0114603E0FEF775FB01009D
:104A50007BD0606A37F810206768B1FBF2F007EB93
:104A60004703834269D8B0EB073F66D80023084666
:104A70001946FBF7CDFB090241EA106102027808F2
:104A8000101871413A460023FBF7C2FB3F4AA0F5DC
:104A90004071914257D950E0E3694FF6EF788B426D
:104AA0002BD1092849D2DFE800F005080D48254838
:104AB00048480E00FEF71CFB01E0FEF72BFB01004F
:104AC00001D142E01146606A37F81000B1FBF0F006
:104AD0004100606801EB5001B1FBF0F1A1F1100061
:104AE00040452AD84FF6F07201EA0200C1F34201B4
:104AF000084328E0FEF720FBE1E709281DD2DFE8A4
:104B000000F005080D1C1E1C1C1C0E00FEF7F0FA20
:104B100001E0FEF7FFFA010001D116E01146606ADC
:104B200037F81000B1FBF0F1606801EB5001B1FB08
:104B3000F0F0A0F11001414504D9012505E0FEF790
:104B4000FBFAE8E780B22168C8600120A4F86A0097
:104B500024F8680F2846A660E660BDE8F0810000F2
:104B600000800040F369FFCFFFF4FF1100380140DF
:104B7000001002400044004000480040004C00404B
:104B8000005000400024F4004A580008FFFC0F00C9
:104B90002DE9F0479A4617460E4604464FF00009A5
:104BA0004FF02008089D4AE0681C48D0FDF72CFF14
:104BB000A0EB0A00A8422AD84DB320680168490733
:104BC0003DD5C069C043000539D421684FF4006069
:104BD0000862206850E8001F21F4D07140E80012FC
:104BE000002AF6D12068083050E8001F21F00101AA
:104BF00040E80012002AF5D144F8848FC4F80480FC
:104C0000C4F8088004F8049C0320BDE8F0872168FC
:104C100051E8000F20F4D07041E80002002AF6D1DC
:104C20002068083050E8001F21F0010140E8001220
:104C3000002AF5D144F8848FC4F80480E2E72068A4
:104C4000C06936EA000004D00020B842ACD0002091
:104C5000DBE70120F9E7000010B50448FFF7D6FABA
:104C6000BDE810400248FEF78FBE0000003801404A
:104C700074030020FEE701460020FFF773B80146E9
:104C80004020FFF76FB800000FB4054B10B503A923
:104C9000044A029800F0F0F810BC5DF814FB000024
:104CA00085570008540200200907090E002804DB7C
:104CB00000F1E02080F80014704700F00F0000F1D0
:104CC000E02080F8141D704702E008C8121F08C1D8
:104CD000002AFAD170477047002001E001C1121F7D
:104CE000002AFBD1704700000149086070470000AE
:104CF000580200202DE9FF5F82B00021DDE9043079
:104D0000020DDDF840B0034318D044F61050A2F273
:104D1000FF3242431514119801281FD0A5EB0B0058
:104D2000401C5FEA000A4FF000064E4FDFF8389152
:104D3000B046504615D5CAF1000413E0119801247D
:104D40004AA3012801D16FEA0B010298119AC0E928
:104D50000031C0E9024206B0BDE8F09FCBF100008F
:104D6000DFE704460021404A491842EB0450CDE9F0
:104D7000001012E0E00707D032463B464046494665
:104D8000FBF713FD8046894632463B4610461946DE
:104D9000FBF70BFD06460F466410002CEAD1DDE957
:104DA0000401DDE90023BAF1000F06DAFBF7FDFC90
:104DB00042464B46FBF7F9FC05E0FBF7F6FA4246A4
:104DC0004B46FBF7F2FA04460E460022284BFBF74F
:104DD00077FD03D84FF0FF30014607E00022254B56
:104DE00020463146FBF73AFCFBF751FD102409E061
:104DF000002C0ADB0A220023FBF70AFA039B30325D
:104E00001A55641E50EA0102F2D1641C039AC4F1DF
:104E100011031444119A012A03D0012208430DD131
:104E20000AE0084304D000204FF0110B119072E704
:104E3000A3EB0B056D1E0DE05B4504DD4FF000029A
:104E400005F1010504E003DA4FF00002A5F10105C8
:104E5000002AECD002981199C0E90231C0E900455E
:104E600079E70000000014400000F03F300000002F
:104E70000000F0430000E03F2DE9FF4F95B09B4656
:104E80008946064600250FE2252877D100242746CB
:104E9000F84A0121059400E0044316F8013F203B45
:104EA00001FA03F01042F7D130782A2811D06FF0C0
:104EB0002F033078A0F13002092A16D8059A44F061
:104EC000020402EB820203EB42021044761C0590BE
:104ED000EFE759F8042B0592002A03DA504244F414
:104EE0000054059044F00204761C30782E2816D128
:104EF00016F8010F44F004042A280DD06FF02F0299
:104F00003078A0F13003092B09D807EB870302EBB7
:104F10004303C718761CF3E759F8047B761C3078F6
:104F20006C280FD006DC4C2817D068280DD06A28D2
:104F300014D104E0742810D07A280FD10DE044F485
:104F400000140AE044F4801401E044F44014727840
:104F5000824202D104F58014761C761C30786628D3
:104F60000BD013DC582877D009DC002875D04528F1
:104F7000F6D04628F4D047281AD19DE118E06328DE
:104F800035D0642879D0652812D195E1702873D086
:104F900008DC6728F1D069286FD06E280DD06F2803
:104FA00006D1B5E073282CD0752875D0782874D038
:104FB0005A46179990476D1C75E1C4F302500228B8
:104FC00009D003280DD0D9F8001004280DD00D60A9
:104FD00009F1040967E1D9F80010EA17C1E90052A4
:104FE000F6E7D9F800100D80F2E70D70F0E719F838
:104FF000041B8DF8001000208DF80100EA46012006
:1050000003E059F804AB4FF0FF3061074FF00001A7
:1050100002D40DE008F101018846B9420FDA80455B
:10502000F8DB1AF808100029F4D108E008F10101B2
:1050300088468142FADB1AF808100029F6D1059853
:105040005B46A0EB080721463846179A00F094FA11
:10505000284400EB080507E04DE029E10DE01AF8CF
:10506000010B5A4617999047B8F10108F7D25B46F1
:1050700021463846179A13E142E00A220092C4F30F
:1050800002524FF0000A022A08D059F804CB032A32
:105090004FEAEC710AD00DE029E02AE009F107019E
:1050A00021F00702F2E802C1914609E00FFA8CFCF8
:1050B0004FEAEC71042A03D14FFA8CFC4FEAEC71F1
:1050C000002907DA0A460021DCF1000C61EB02013D
:1050D0002D2202E0220504D52B228DF80420012286
:1050E00003E0E20701D02022F7E7904659E00A21C9
:1050F00002E010220DE010214FF0000A00910BE0B9
:1051000010224FF0000A44F004040827009203E044
:1051100008224FF0000A0092C4F30252022A05D07E
:1051200059F804CB0021032A08D009E009F107014E
:1051300021F00702F2E802C1914605E01FFA8CFC5B
:10514000042A01D10CF0FF0C4FF00008220728D5EB
:10515000702806D0009B83F0100353EA0A0305D0A1
:105160000EE040228DF80420012208E05CEA0102F2
:1051700006D030228DF804208DF8050002229046DA
:10518000009B83F0080353EA0A030AD15CEA010298
:1051900001D1620705D530228DF804204FF00108B7
:1051A0007F1E582804D034A003900EA802900DE072
:1051B00036A0F9E753466046009AFBF729F8844683
:1051C0000398825C0298401E029002705CEA010023
:1051D000F0D1029806A9081A00F1200A600702D54A
:1051E00024F4803400E00127574502DDA7EB0A00D4
:1051F00000E0002000EB0A01009005984144401AAD
:105200000590E00306D45B462146179A059800F006
:10521000B3F90544002706E001A85A46C05D179976
:1052200090476D1C7F1C4745F6DBE0030CD55B46C1
:105230002146179A059800F09FF9054404E03020B4
:105240005A46179990476D1C0099481E00900029F6
:10525000F5DC08E0029802995A460078491C029150
:10526000179990476D1CBAF10001AAF1010AF1DC0F
:1052700065E100000928010030313233343536371A
:105280003839616263646566000000003031323392
:105290003435363738394142434445460000000032
:1052A00000F058F90544761C307800287FF4ECAD06
:1052B00019B02846BDE8F08F620700D4062709F12F
:1052C000070222F0070CFCE80223E14603F0004845
:1052D0005FEA080C02D00FF2702C0DE05FEA045C6C
:1052E00002D50FF2682C07E05FEAC47C02D00FF20F
:1052F000602C01E0AFF2700C4FF0FF3823F0004358
:10530000CDF850C065280CD006DC452809D04628C9
:105310001DD047283DD13DE0662818D067287ED1B2
:1053200038E00021112F01DB112000E0781CCDE9CD
:10533000000106A90EA8FFF7DDFCDDE90F010E9ABA
:1053400003910021009207F1010A04914DE04FF012
:1053500000400097CDE9011006A90EA8FFF7CAFC8E
:10536000DDE90F0203920E9B11990022DDF80CA0DB
:105370000093049211B9791C00EB010AB7EB0A0003
:1053800004D4C0F1FF3007F1010A0490AAEB070032
:10539000019044E0012F00DA01270021112F01DDE7
:1053A000112000E03846CDE9000106A90EA8FFF75C
:1053B000A1FCDDE90F010E9A0391002104910092F6
:1053C000BA4621070CD40399514500DA8A46BAF14E
:1053D000010F05DD009AAAF10101515C302908D0C6
:1053E000B84202DA10F1040F06DA0121CDE901100A
:1053F00015E0AAF10101E9E7002805DC0499014460
:105400000491AAEB000102E0411C514500DD8A46EF
:105410000499401A401C01904FF000400290200770
:1054200004D40198504501DBCDF8048000208DF8AC
:105430004F0002980DF14F07B0F1004F25D02B20FF
:105440000E9002984FF0020800280CDA40420290B9
:105450002D200E9007E00A210298FBF736F8303134
:10546000029007F8011DB8F10001A8F10108F2DC73
:1054700002980028EFD1791E0E980870307800F05D
:10548000200040F0450007F8020D12A8C01B00F1F3
:1054900007081498007800B1012000EB0A01019878
:1054A00001EBE07105984144401A401E0590E0036D
:1054B00006D45B462146179A059800F05DF805442E
:1054C0001498007818B15A46179990476D1CE0035C
:1054D00024D55B462146179A059800F04DF80544FF
:1054E0001CE00498002807DBDDE90301884203DDA6
:1054F0000098405C179901E0179930205A46904770
:10550000049805F10105401C04900198401E01908B
:1055100004D12E205A46179990476D1CBAF100010C
:10552000AAF1010ADDDC05E017F8010B5A461799CC
:1055300090476D1CB8F10001A8F10108F4DC5B464E
:105540002146179A0598ABE62D0000002B000000BD
:10555000200000002DE9F041044600251E461746B4
:10556000880404D405E039462020B0476D1C641E31
:10557000F9D52846BDE8F0812DE9F0410446002523
:105580001E469046C80301D5302700E02027880436
:1055900004D505E041463846B0476D1C641EF9D578
:1055A0002846BDE8F081000010B504460420FEF74F
:1055B00001F80148048010BD100000204FF47A71FA
:1055C000484300F001B8000070B54FF0E02400221D
:1055D00065690949A36909884843A1699942FCD0D2
:1055E00002D2A3EB010302E0A5EB010633441A4407
:1055F0000B468242F1D370BD100000202DE9FC4122
:105600000646002001901060088015460C464FF4B5
:10561000007701AB6A463946301DFBF7E3FA9FED90
:10562000190A1949012000BF9DED001A06EB8002FE
:1056300021EE001AD2ED000AF4EEC10AF1EE10FAE2
:1056400005DD228821F812002288521C2280401C8D
:1056500080B2B842E8D308880C498968890A48436F
:105660002860FEF7F8FD2288022300210A20FEF7B9
:10567000C7FE022300211E202A68FEF7C1FEBDE8F6
:10568000FC8100000AD7A33D040C00201400002078
:1056900070B588B00020012302469C020690214686
:1056A0006846FBF7EDF92C4B9FED2C1A9FED2C0A69
:1056B000DFED2C0A002003F5805200BF33F81010F4
:1056C00001EE901A02EBC001401CF8EE611A80B2A4
:1056D000A04261EE811A81EE802A81ED002AC1ED9F
:1056E000010AEBD320496846FBF7A9F922461F4976
:1056F0001D48FBF703FA1E4A1C48A2F10C01FFF7F4
:105700007DFF1B4A083A911E081DFCF7B1F9174DA1
:1057100006AB05AA40F2FF11281DFBF763FA1549F5
:105720000598884203DA9FED140A8DED050A0124DD
:105730005FEA442655F82400FAF7B4FE41EC100B5A
:105740000EA053EC102BFFF79FFA641CA4B2B442D6
:10575000F0D308B070BD0000040400203333534080
:1057600000F07F45000000000414002004340020F5
:10577000200000200000A041F902155025660D0A06
:1057800000000000044989680968CA695206FCD50E
:10579000024AC1B211607047480200202838014017
:1057A000FDF748F9FEF7E0FEFEF768FCFEF748FC5F
:1057B000FEF7F6FCFEF7F8FBFEF7BEFCAA20FFF7AB
:1057C000F3FE0D48FEF73CFDFEF764FDFEF743FDDA
:1057D0000A48FDF7B1FF0AA0FFF756FA4FF47A70B6
:1057E000FFF7ECFE06A0FFF74FFA07494FF47A20C7
:1057F0000860FCF709F8FEE7740300202803002086
:105800006D61696EFFFFFF001C00002010B500EE07
:10581000100A2DED028BB1EEC08A18EE100A20F0AE
:105820000040C0F1FF40C00F0AD010EE100A20F077
:105830000040C0F1FF40C00F04BF0120FFF754FA41
:1058400018EE100ABDEC028B10BD0100020004002E
:10585000060008000A000C00100020004000800034
:10586000000101010103070100000804020408010E
:10587000010100000000000000000102030406070F
:1058800008090000000001020304030201060005EC
:1058900004070000000000000000002F00000000CE
:1058A0000700070000147F147F1400242A7F2A12A7
:1058B0000062640813230036495522500000050396
:1058C000000000001C224100000041221C000014C6
:1058D000083E08140008083E0808000000A0600008
:1058E0000008080808080000606000000020100898
:1058F0000402003E5149453E0000427F4000004204
:1059000061514946002141454B31001814127F1066
:10591000002745454539003C4A4949300001710995
:10592000050300364949493600064949291E000049
:1059300036360000000056360000000814224100F0
:105940000014141414140000412214080002015120
:10595000090600324959513E007C1211127C007F29
:1059600049494936003E41414122007F4141221CC4
:10597000007F49494941007F09090901003E414929
:10598000497A007F0808087F0000417F410000201D
:1059900040413F01007F08142241007F40404040C9
:1059A000007F020C027F007F0408107F003E41410F
:1059B000413E007F09090906003E4151215E007FFA
:1059C000091929460046494949310001017F010171
:1059D000003F4040403F001F2040201F003F403814
:1059E000403F006314081463000708700807006153
:1059F0005149454300007F41410000552A552A5531
:105A0000000041417F0000040201020400404040C8
:105A10004040000001020400002054545478007FEC
:105A20004844443800384444442000384444487FC3
:105A300000385454541800087E0901020018A4A428
:105A4000A47C007F080404780000447D40000040EE
:105A500080847D00007F102844000000417F4000CA
:105A6000007C04180478007C08040478003844445E
:105A7000443800FC242424180018242418FC007C3A
:105A80000804040800485454542000043F444020B3
:105A9000003C4040207C001C2040201C003C40304A
:105AA000403C004428102844001CA0A0A07C0044D6
:105AB00064544C44141414141414FFFFFFFFFFFF2C
:105AC00000000000000000000000000000000000D6
:105AD000000000F80000000000000033300000006B
