:020000040800F2
:10000000B00B0020B9020008D5200008EB1C000846
:10001000892000086D080008C128000800000000C1
:10002000000000000000000000000000DF220008C7
:100030006F08000800000000DD220008E12200082F
:10004000D3020008D3020008D3020008D30200083C
:10005000D3020008D3020008D3020008D30200082C
:10006000D3020008D3020008D3020008D30200081C
:10007000D3020008D3020008D3020008D30200080C
:10008000D3020008D3020008D3020008D3020008FC
:10009000D3020008D3020008D3020008D3020008EC
:1000A000D3020008D3020008D3020008D3020008DC
:1000B000D3020008D3020008D3020008D3020008CC
:1000C000D3020008D3020008D3020008D3020008BC
:1000D000D3020008A5280008D3020008D3020008B4
:1000E00071080008D3020008D3020008D3020008F8
:1000F000D3020008D3020008D3020008D30200088C
:10010000D3020008D3020008D3020008D30200087B
:10011000D3020008D3020008D3020008D30200086B
:10012000D3020008D3020008D3020008D30200085B
:10013000D3020008D3020008D3020008D30200084B
:10014000D3020008D3020008D3020008D30200083B
:10015000D3020008D3020008D3020008D30200082B
:10016000D3020008D3020008D3020008D30200081B
:10017000D3020008D3020008D3020008D30200080B
:10018000D3020008D3020008D3020008D3020008FB
:10019000D302000800000000D3020008D3020008C8
:1001A000D3020008D3020008D3020008D3020008DB
:1001B000D3020008D3020008D3020008D3020008CB
:1001C000D3020008D3020008D3020008D3020008BB
:1001D000D3020008D302000800F002F800F05CF837
:1001E0000AA090E8000C82448344AAF10107DA4592
:1001F00001D100F051F8AFF2090EBAE80F0013F088
:10020000010F18BFFB1A43F001031847404A0000D2
:10021000604A00000A444FF0000C10F8013B13F054
:10022000070408BF10F8014B1D1108BF10F8015B4F
:10023000641E05D010F8016B641E01F8016BF9D142
:1002400013F0080F1EBF10F8014BAD1C0C1B09D199
:100250006D1E58BF01F801CBFAD505E014F8016B0B
:1002600001F8016B6D1EF9D59142D6D3704700009D
:100270000023002400250026103A28BF78C1FBD8AF
:10028000520728BF30C148BF0B6070471FB504F04C
:10029000A5F81FBD10B510BD00F0D4F81146FFF74A
:1002A000F5FF02F019FC00F0F2F803B4FFF7F2FFDB
:1002B00003BC00F0F5F800000948804709480047F2
:1002C000FEE7FEE7FEE7FEE7FEE7FEE7FEE7FEE706
:1002D000FEE7FEE704480549054A064B7047000063
:1002E0004D230008D9010008B0050020B00B002004
:1002F000B0070020B007002053EA020C00F069802C
:100300002DE9F04B4FF00006002B1FBFB3FA83F529
:1003100003FA05F424FA05F65E4012BF1643B2FA5A
:1003200082F502FA05F4C5F120051EBF22FA05FC8C
:1003300044EA0C04203556EA044C4FEA144418BF32
:10034000641C4FF000084FF00009904271EB030C61
:1003500039D3002919BFB1FA81F701FA07F6B0FACB
:1003600080F700FA07F6C7F120071EBF20FA07FC46
:1003700046EA0C062037B6FBF4FCA7EB0507103F56
:1003800007F01F0BCBF120060CFA0BFB2CFA06F63C
:1003900044BFB3460026202FA4BF5E464FF0000B9B
:1003A0005BEA060C08BF4FF0010B19EB0B09ABFB26
:1003B000027C48EB0608C01B06FB02CC0BFB03CCFF
:1003C00071EB0C01C1E70B46024641464846BDE8C9
:1003D000F08B13B54FF000004FF00001AFF3008039
:1003E000BDE81C4070474FF0000200B5134694462C
:1003F0009646203922BFA0E80C50A0E80C50B1F17D
:100400002001BFF4F7AF090728BFA0E80C5048BF90
:100410000CC05DF804EB890028BF40F8042B08BF2E
:10042000704748BF20F8022B11F0804F18BF00F82A
:10043000012B7047704770477047000000487047B5
:10044000500500207546FFF7F9FFAE4605006946E6
:10045000534620F00700854618B020B5FFF73AFF55
:10046000BDE820404FF000064FF000074FF00008B5
:100470004FF0000B21F00701AC46ACE8C009ACE836
:10048000C009ACE8C009ACE8C0098D46704710B59A
:100490000446AFF300802046BDE81040FFF705BFDB
:1004A00001491820ABBEFEE726000200704700009D
:1004B0002DE9F043884685B091460021214A1E4629
:1004C00004460D4602AF01A8D31C039112F801C0E7
:1004D00007F801C013F801C000F801C0491CC9B2F7
:1004E0000329F3D3174803AA801E01788DF8101052
:1004F00040788DF811008DF80C400121002000F0AB
:100500004BF98DF804809DF805008DF8096040EAEC
:1005100009008DF805008DF80650002C0ED002AAB7
:100520000321012000F038F9022104AA084600F056
:1005300033F9032101AA084600F02EF905B0BDE801
:10054000F08300004A020020F8B50024009417460A
:100550000D468DF800001E466A460121204600F037
:100560001BF9384602F0C6F9304602F0E9F928884E
:1005700002F0AFF905EB44004188204602F00FFA83
:10058000641CE4B20F2CF5D3F8BD2DE9FC5F0C46DA
:1005900001460CA8934690E8C007002001908DF812
:1005A00004101D46009001AA012100F0F5F848460C
:1005B00002F0A0F9504602F0C3F94146384602F075
:1005C000E1F9A80502F034FAB00502F0C7F9200AF3
:1005D0008DF801008DF802406A460321062000F0E4
:1005E000DBF85946002002F0DAF9BDE8FC9FF8B5C7
:1005F0000024009416460D468DF800006A4601213D
:10060000204600F0C9F8304602F09AF9286802F056
:1006100071F905EB84004168204602F0D1F9641CB1
:10062000E4B20F2CF5D3F8BD2DE9F84F8B460AA99B
:10063000DDE90D5491E8C0010021009192468DF84A
:10064000000099466A460121002000F0A5F82046E6
:1006500002F076F9284602F03CF94146384602F0AD
:1006600091F9484603F0A9FD104C94ED021B53ECA0
:10067000112B03F0B5FD03F073FD02F0D9F93046FC
:1006800003F09BFD94ED021B53EC112B03F0A8FD2E
:1006900003F066FD02F062F9584602F02BF951466C
:1006A000002002F08DF9BDE8F88F0000480200201C
:1006B000F8B50024009416460D468DF800006A46F1
:1006C0000121204600F068F8304602F013F928882E
:1006D00002F036F905EB44004188204602F098F913
:1006E000641CE4B20F2CF5D3F8BD2DE9F84F8B460E
:1006F0000AA9924691E8E003002100918DF80000DC
:100700001C466A460121002000F046F8404602F0EF
:10071000F1F8484602F0DDF83946304602F032F989
:10072000A00402F085F9A80402F018F9584602F076
:1007300007F95146002002F06BF9BDE8F88F38B593
:10074000002200920C468DF800006A46012100202C
:1007500000F022F8204602F0BCF838BD38B500227F
:1007600000920C468DF800006A460121002000F03E
:1007700013F8204602F0BEF838BD38B500220092CA
:100780000C468DF800006A460121002000F004F8B4
:10079000204602F0D5F838BD2DE9F74F89460546C9
:1007A00000264FF480774FF0904432463946204679
:1007B00000F029FA00227900204600F024FADFF840
:1007C000A8A04FF4806800223946204600F01BFAAA
:1007D000280601D5012200E000224146504600F0E3
:1007E00012FA01223946204600F00DFA6806761CFE
:1007F000050EF6B2082EE6D300223946204600F058
:1008000002FAC346B8460025274622E00298002493
:10081000465D00224146384600F0F5F9300601D524
:10082000012200E000225946504600F0ECF9012276
:100830004146384600F0E7F97006641C060EE4B243
:10084000082CE6D300224146384600F0DCF96D1C46
:10085000EDB24D45DAD303B03846BDE8F04F012282
:10086000510200F0D0B9000000040048FEE77047D4
:100870004FF4005000F092B872B6FEE710B590F851
:10088000253000210122022B03D00421C163012164
:1008900022E003681C6824F00E041C60836C1C6852
:1008A00024F480741C6003681C6824F001041C603C
:1008B00090F84430046C03F01F0302FA03F3636002
:1008C000D0E913345C60436D33B11C6824F4807448
:1008D0001C60D0E916345C6080F82520002280F886
:1008E0002420084610BD70B590F825200024012171
:1008F0002346022A07D00422C26380F8251080F81C
:100900002430012429E00268156825F00E051560E1
:100910000268156825F001051560826C156825F4DC
:100920008075156090F84420056C02F01F0201FAF2
:1009300002F26A60D0E913255560426D32B1156844
:1009400025F480751560D0E91625556080F82510CE
:1009500080F82430816B01B18847204670BD0000CB
:1009600070B5044600F054F90546601C02D00448F6
:100970004068044400F04CF9401BA042FAD370BD1B
:10098000040000200448012101704178491C01F055
:100990000F0141707047000000000020044910B5AD
:1009A0000A68024202D00860FFF7ECFF10BD0000A9
:1009B000140401402DE9F04FDFF8209200230126B6
:1009C0000324A9F1040B85B00F2709F1040AABF148
:1009D000040EFAE006FA03F52A407CD091F804C030
:1009E0000CF0030CBCF1010F02D0BCF1020F26D1B8
:1009F000D0F808C0CDF800C04FEA430C04FA0CF858
:100A0000CDF810C0DDF800C02CEA080CCDF800C00D
:100A1000D1F80C80DDF810C008FA0CF8DDF800C041
:100A200048EA0C08C0F80880D0F804C02CEA050C8D
:100A30000D79C5F300159D4045EA0C0545600D791B
:100A4000ED43AD070ED0C5684FEA430804FA08FC31
:100A500025EA0C05D1F808C00CFA08FC4CEA050C94
:100A6000C0F80CC00D7905F00305022D16D1DD0884
:100A700000EB850CCDF808C0DCF820805D074FEA5C
:100A8000D56C07FA0CF528EA05080D6905FA0CF58E
:100A9000DDF808C045EA0805CCF8205005684FEAA3
:100AA000430CCDF808C004FA0CFC25EA0C0591F8BB
:100AB00004C00CF00308DDF808C008FA0CF848EA96
:100AC0000508C0F800804D6815F4403F7CD0444DC7
:100AD000D5F860C000E077E04CF0010CC5F860C0CC
:100AE0002D6E23F0030C05F0010500953D4D654486
:100AF0000295AD684FEA837C4FEA1C7807FA08FC40
:100B000025EA0C05B0F1904F06D0DFF8DCC0604557
:100B100005D14FF0010C20E04FF0000C1DE0DFF894
:100B2000CCC0604502D14FF0020C16E0DFF8C0C027
:100B3000604502D14FF0030C0FE0DFF8B8C060450C
:100B400002D14FF0040C08E0DFF8ACC0604502D1E0
:100B50004FF0050C01E04FF0060C0CFA08FC4CEAD3
:100B6000050C029DC5F808C0D9F80050CC46D1F854
:100B7000048095435FEAC82800D51543CCF800509F
:100B8000DAF80050D446D1F8048095435FEA88280B
:100B900000D51543CCF80050DBF80050DC46D1F806
:100BA000048095435FEA883800D51543CCF800509F
:100BB000DEF80050F446D1F8048095435FEAC83867
:100BC00000D51543CCF800505B1C0A6832FA03F5D7
:100BD0007FF400AF05B0BDE8F08F000008040140CD
:100BE00000100240000001400004004800080048D6
:100BF000000C00480010004800140048006908403C
:100C000000D0012070470AB181617047816270474E
:100C10000148806870470000040000200548016812
:100C200009B90121016004490A680068104408609C
:100C300070470000080000200C00002010B50024C0
:100C4000032000F073F8002000F008F808B1012438
:100C500001E000F025F8204610BD000070B50E4EF2
:100C600005460024706898B14FF47A71B1FBF0F03A
:100C70000A490968B1FBF0F000F0A8FD40B9102D59
:100C800006D200222946501E00F030F8356000E000
:100C90000124204670BD0000040000201000002048
:100CA0000A4882B0016E41F001010166016E01F057
:100CB00001010091816D41F080518165806D00F0EE
:100CC0008050009002B000F0A1B800000010024077
:100CD000002809DB00F01F0201219140400980003B
:100CE00000F1E020C0F8001170470000F0B40E4B96
:100CF0001B680C46C3F30223C3F10705042D00D97A
:100D00000425191D072901D2002300E0DB1E01265E
:100D100006FA05F1491E214099409E40761E164074
:100D20003143F0BC01F098BE0CED00E0064900F044
:100D3000070208684FF6FF03184040EA0220034A02
:100D400010430860704700000CED00E00000FA0559
:100D50002B492C4B0A6832214A432B4940B1B0F54C
:100D6000007F086829D020F4C06040F480602CE047
:100D70000868C0F34120022804D051F8800F20F405
:100D8000807022E0D1F8800020F48070C1F88000EB
:100D9000086820F4C06040F400700860B2FBF3F013
:100DA000401C00E0401E4A69520501D50028F9D1D7
:100DB000486940050AD503207047C0F34120022846
:100DC00006D051F8800F40F4807008600020704712
:100DD000D1F8800040F48070C1F88000086820F4E9
:100DE000C06040F400700860B2FBF3F0401C00E00B
:100DF000401E4A695205DBD50028F9D1D8E700002A
:100E00001000002040420F0000700040024881683E
:100E100041F4804181607047007000402DE9F84343
:100E2000044600680026BB4D00035ED5A86D002770
:100E3000C00008D4A86D40F08050A865A86D0127B7
:100E400000F080500090DFF8D092D9F8001041F403
:100E50008071C9F80010FFF7DBFE804606E000BF96
:100E6000FFF7D6FEA0EB080002282BD8D9F8000027
:100E7000C005F5D5D5F8900010F4407014D0216D60
:100E8000814211D0D5F89000D5F8901020F4407030
:100E900041F48031C5F89010D5F8901021F48031DC
:100EA000C5F89010C5F89000C00711D0FFF7B0FE4C
:100EB000804641F2883907E0FFF7AAFEA0EB08015F
:100EC000494501D903260BE0D5F890008007F3D5FA
:100ED000D5F89000216D20F440700843C5F89000CB
:100EE0001FB1A86D20F08050A8652078C00707D0FA
:100EF000D5F88800616820F003000843C5F8880031
:100F00002078800707D5D5F88800A16820F00C006C
:100F10000843C5F888002078400707D5D5F8880031
:100F2000E16820F030000843C5F888002078000709
:100F300007D5D5F88800216920F0C0000843C5F81E
:100F400088002078C00607D5D5F88800616920F4AC
:100F500040700843C5F888002078800607D5D5F88A
:100F60008800A16920F440600843C5F88800207813
:100F7000400607D5D5F88800E16920F440500843C1
:100F8000C5F888002078000607D5D5F88800216AC2
:100F900020F440400843C5F888002088C00507D5E4
:100FA000D5F88800616A20F440300843C5F888000D
:100FB0002068800307D5D5F89C00A16A20F00300C3
:100FC0000843C5F89C002088800507D5D5F888001F
:100FD000E16A20F440200843C5F8880020884005D5
:100FE0000FD5D5F88800216B20F440100843C5F8D0
:100FF0008800206BB0F5801F03D1E86840F48010B2
:10100000E860208800050FD5D5F88800616B20F4D2
:1010100040000843C5F88800606BB0F5800F03D12D
:10102000E86840F48010E8602088C0040FD5D5F847
:101030008800A16B20F040700843C5F88800A06BC1
:10104000B0F1807F03D1E86840F48010E860208828
:101050004FF0006180040ED5D5F88800E26B20F0D7
:1010600040601043C5F88800E06B884203D1E8680F
:1010700040F48010E860208840040ED5D5F8880040
:10108000226C20F040601043C5F88800206C884234
:1010900003D1E86840F48010E860208800040FD590
:1010A000D5F88800616C20F040500843C5F88800EE
:1010B000606CB0F1805F03D1E86840F48030E86094
:1010C0002068C0030FD5D5F88800A16C20F04040FF
:1010D0000843C5F88800A06CB0F1804F03D1E868E0
:1010E00040F48030E860206840030FD5D5F89C00BC
:1010F000E16C20F440100843C5F89C00E06CB0F5AA
:10110000001F03D1E86840F48010E8603046BDE875
:10111000F883000000100240007000402DE9F04705
:101120000E4605004FF0000725D0DFF8AC81D8F857
:10113000000000F00F00B0420CD2D8F8001021F0EF
:101140000F013143C8F80010D8F8000000F00F007C
:10115000B04210D12968614CC80741F2883A5AD090
:101160006868DFF87C91032808D0022820682DD019
:10117000400500282CDB0120BDE8F08720688001B5
:10118000F9D5E06800F00302E068C0F30310401CEA
:10119000032A19D0534A00BFB2FBF0F0E268C2F351
:1011A00006225043E268C2F34162521C5200B0FB77
:1011B000F2F0484517D9A06810F0F00F0CD088075E
:1011C00011D5A86840B10EE0474AE5E78003D0E7B3
:1011D00000F0B6F8484506D9A06820F0F00040F0CD
:1011E0008000A0608027A068696820F003000843A1
:1011F000A060FFF70DFD814606E000BFFFF708FD88
:10120000A0EB090151453AD8A068696800F00C00CC
:10121000B0EB810FF2D12868810714D5400703D5C0
:10122000A06840F4E060A0602878000705D5A068B9
:1012300020F4605040F4E060A060A068A96820F04D
:10124000F000084304E0802F03D1A06820F0F000F4
:10125000A060D8F80010404601F00F01B14216D945
:10126000016821F00F0131430160FFF7D1FC07460F
:1012700007E000BFFFF7CCFCC11B514501D903209B
:101280007AE7D8F8000000F00F00B042F2D12878D9
:10129000400705D5A068E96820F4E0600843A06035
:1012A0002878000706D5A068296920F4605040EA34
:1012B000C100A06000F044F8A1680C4AC1F303111A
:1012C000515C01F01F01C8400949086009480068E5
:1012D000BDE8F047FFF7C2BC00200240001002400A
:1012E00000B4C4040024F40000366E010E4400086B
:1012F00010000020040000200548064900688968A5
:10130000054AC1F30221515C01F01F01C84070473A
:1013100010000020001002401E4400080548064945
:1013200000688968054AC1F3C221515C01F01F01C0
:10133000C840704710000020001002401E44000802
:10134000184910B58868C0F381021748012A0BD0EC
:101350008A68164BC2F38102022A06D08A68C2F359
:101360008102032A03D0002010BD184610BDCA68B0
:1013700002F00304CA68C2F30312521C032C02D009
:10138000B0FBF2F001E0B3FBF2F0CA68C968C2F347
:1013900006225043C1F34161491C4900B0FBF1F002
:1013A00010BD0000001002400024F40000366E0161
:1013B0002DE9F84304007AD02078F84DC00747D0D3
:1013C000A868E96800F00C0001F003010C2802D0C5
:1013D000082817D001E0032914D06068B0F5803FD9
:1013E00017D0B0F5A02F286817D020F480302860DF
:1013F000286820F4802028606068E0B1FFF708FCCE
:10140000064614E02868800322D560680028D2D000
:101410001EE0286840F48030EDE740F4802028602A
:10142000F7E700BFFFF7F4FB801B642870D828683B
:101430008003F7D50CE0FFF7EBFB064605E000BFA5
:10144000FFF7E6FB801B6428F0D828688003F7D4F8
:10145000207880074CD5A868E96800F00C0001F0FE
:1014600003010C2802D004280DD001E002290AD083
:10147000E068002828682BD040F480702860FFF7CF
:10148000C7FB064619E02868400502D5E068002839
:1014900091D06868217C20F0FE4040EA01606860DD
:1014A000BF480068FFF7DAFB002800D120E072E1B6
:1014B000FFF7AEFB801B0228B8D828684005F7D597
:1014C0006868217C20F0FE4040EA016068600FE01F
:1014D00020F480702860FFF79BFB064605E000BF04
:1014E000FFF796FB801B0228A0D828684005F7D498
:1014F0002078000729D560690028D5F8940013D01A
:1015000040F00100C5F89400FFF782FB064606E0B4
:1015100090E000BFFFF77CFB801B022886D8D5F83F
:1015200094008007F6D510E020F00100C5F8940083
:10153000FFF76EFB064604E0FFF76AFB801B0228FC
:1015400078D8D5F894008007F6D42078400761D584
:10155000A86D0026C00008D4A86D40F08050A86592
:10156000A86D012600F0805000908E480168C905E2
:1015700011D40168804641F480710160FFF748FB97
:10158000074604E0FFF744FBC01B022852D8D8F8F6
:101590000000C005F6D5A068012815D00528D5F8AB
:1015A000900016D020F00100C5F89000D5F890000A
:1015B00020F00400C5F89000A06841F28838B8B166
:1015C000FFF726FB07460EE0D5F8900040F001003B
:1015D000F0E740F00400C5F89000F5E7FFF718FBCE
:1015E000C11B414526D8D5F890008007F6D50CE000
:1015F000FFF70EFB074604E0FFF70AFBC11B41455E
:1016000018D8D5F890008007F6D41EB1A86D20F048
:101610008050A8652078800629D5A0690028D5F8D3
:10162000980013D040F00100C5F89800FFF7F0FAD9
:10163000064606E075E000BFFFF7EAFA801B0228C5
:101640006FD8D5F898008007F6D510E020F001009B
:10165000C5F89800FFF7DCFA064604E0FFF7D8FA71
:10166000801B02285DD8D5F898008007F6D4E06981
:10167000F0B3A968C1F3810103295DD0022828686D
:1016800020F08070286003D0FFF7C2FA04464BE0D8
:10169000FFF7BEFA064604E0FFF7BAFA801B0228FD
:1016A0003FD828688001F7D4F4E908016FF00F02F1
:1016B00002EB01110843218A5204490802EB41510F
:1016C000A26841EA02210843217D4FF07E42490889
:1016D00002EB41610843217B40EAC160E968324A7C
:1016E00011400843E860286840F08070286000E0FE
:1016F0005EE0E86840F08070E860FFF789FA044631
:1017000005E000BFFFF784FA001B022809D828680B
:101710008001F7D54CE000BFFFF77AFA001B0228E2
:1017200002D90320BDE8F88328688001F4D4E86872
:101730001E490840E8603BE00128F3D0E868226ACF
:1017400000F00301914226D1616A00F0F002090124
:10175000103991421FD1A26A00F4FE41B1EB022F71
:1017600019D194F82C2000F07841B1EBC26F12D15E
:10177000218E00F4C00249084905A1F500119142EB
:1017800009D194F8341000F0C06049084906A1F16D
:10179000007181420CD00120C4E70000001002401B
:1017A00004000020007000400C809F01FCFFEEFE52
:1017B0000020B7E74FF0E0210428086903D020F0AB
:1017C00004000861704740F00400FAE710B5401EBD
:1017D000B0F1807F01D3012010BD4FF0E0246061A3
:1017E0000F21601701F038F90020A0610720206167
:1017F000002010BD90F88410012918D0012180F834
:1018000084102421C0F8881001680A680B6823F04E
:1018100001030B6022F00051002242660368196048
:101820002021C0F8881080F88420104670470220DC
:1018300070477047704770B5044690F884000128DF
:101840001DD0012084F884002420C4F8880020687A
:101850000568026822F0010202602068826822F0B6
:1018600060620A438260204600F078FD20680560CF
:101870002020C4F88800002084F8840070BD022075
:1018800070BD70B5044690F8840001281DD0012079
:1018900084F884002420C4F8880020680568026861
:1018A00022F0010202602068826822F060420A434E
:1018B0008260204600F052FD206805602020C4F8B8
:1018C0008800002084F8840070BD022070BD70473D
:1018D000704770472DE9F04103680446D8691968DC
:1018E0009A6840F60F0528424FF000054FF00206B7
:1018F0000AD187067ED501F0200702F0805C57EA06
:101900000C0777D0616F42E1B64FDFF8DCC21740B9
:1019100001EA0C0C57EA0C0C6CD05FEAC07C0CD0CE
:101920005FEAC15C09D54FF0010CC3F820C0D4F8C0
:10193000903043F00103C4F89030830709D5D307F2
:1019400007D023681E62D4F8903043F00403C4F833
:10195000903043070AD5D30708D0266804233362A2
:10196000D4F8903043F00203C4F8903003070CD54C
:1019700001F020033B4308D0266808233362D4F8E3
:10198000903043F00803C4F8903003050BD54B01A9
:1019900009D526684FF400633362D4F8903043F0E1
:1019A0002003C4F89030D4F89030002B3DD080064E
:1019B00009D501F0200002F08051084303D0616F87
:1019C00009B120468847D4F8900021688968490603
:1019D00002D410F0280F2AD0204600F0A3FD206882
:1019E000806840061ED52068083050E8001F21F0AE
:1019F000400100E021E040E80012002AF3D1D4F8D1
:101A0000800078B179498163D4F88000FEF76BFFDC
:101A100000280AD0D4F88000816B00E02046BDE8A1
:101A2000F04108472046FFF754FFBDE8F08120460B
:101A3000FFF74FFFC4F89050F7E7D4F86CC02027A9
:101A4000BCF1010F7ED15FEAC06C7BD55FEAC16C4F
:101A500078D51020186220688068400651D5D4F8E7
:101A600080100A6850680004000C3ED0B4F85C3066
:101A700083423AD9A4F85E000868006880062CD436
:101A8000216851E8000F20F4807041E80002002A2C
:101A9000F6D12068083050E8001F21F0010140E82D
:101AA0000012002AF5D12068083050E8001F21F00C
:101AB000400140E80012002AF5D1C4F88C70E566B8
:101AC000216851E8000F20F0100041E80002002AD0
:101AD000F6D1D4F88000FEF7D1FE2667B4F85C009A
:101AE000B4F85E10401A81B207E0B4F85C1081428D
:101AF0009BD11068800698D526672046FFF799FE8F
:101B000093E7B4F85C00B4F85E10401A81B2B4F800
:101B10005E00002889D0002987D0226852E8000F93
:101B200020F4907042E80003002BF6D12D4BDB43EC
:101B30002068083050E8002F1A4040E8002CBCF123
:101B4000000F00E00EE0F3D1C4F88C70E566656725
:101B5000206850E8002F22F0100240E80023002BFC
:101B6000F6D1C9E7C60209D5560207D54FF4801051
:101B700018622046BDE8F041FFF7AABE03060AD569
:101B800001F0800302F40002134304D0A16F002986
:101B90007FF444AF49E7420611D54A060FD52046E7
:101BA000016851E8002F22F0400241E80023002B99
:101BB000F6D1C0F88870856700F096F835E7020224
:101BC00006D54A0004D52046BDE8F041FFF77FBEA8
:101BD000C00195D5002993DA2046BDE8F041FFF712
:101BE00029BE000001000010200100041525000896
:101BF00010B5040003D0D4F8880010B107E001202C
:101C000010BD002084F88400204600F027F824202E
:101C1000C4F888002068016821F001010160A06A11
:101C200010B1204600F0BCFB204600F0A5FC0128C6
:101C3000E6D02068416821F49041416020688168C5
:101C400021F02A0181602068016841F001010160F2
:101C50002046BDE8104000F007BC000010B59CB065
:101C60000446142115A8FEF7BEFB54216846FEF772
:101C7000BAFB1A49206888422ED101200024CDE900
:101C800000046846FFF7CAF808B1FEF7F5FD1448EE
:101C9000016E41F480410166016E01F480411A91A8
:101CA000C16C41F00401C164C06C15A900F00400CE
:101CB0001A90302015900220CDE916040720CDE9B6
:101CC00018400848FEF776FE002211462520FFF74F
:101CD0000DF82520FEF7FCFF1CB010BD00380140B8
:101CE00000100240000800487047FEE770B50D463E
:101CF000044600F05FF8782000F020F800F0B0F81B
:101D0000204600F01BF800F0ABF8284600F016F86B
:101D100000F0A6F8BDE8704000F076B810B5064CAB
:101D2000012211022046FEF76EFF20460122BDE887
:101D300010405102FEF767BF000400482DE9F04152
:101D40001B4C06462046216821F440212160216871
:101D500041F4802121604FF4007700223946FEF7DC
:101D600052FF00254FF48078300601D5012200E0B3
:101D7000002241462046FEF746FF7006060E02206E
:101D800000F090FE012239462046FEF73CFF02207B
:101D900000F088FE002239462046FEF734FF02207C
:101DA00000F080FE6D1CEDB2082DDDD3BDE8F081A2
:101DB0000004004870B5134C206820F440202060D7
:101DC000206840F480202060012215022946204628
:101DD000FEF719FF0122560231462046FEF713FF97
:101DE000042000F05FFE002229462046FEF70BFF8C
:101DF000042000F057FE31462046BDE87040002226
:101E0000FEF701BF0004004870B5144C206820F4B0
:101E100040202060206840F4802020604FF400754E
:101E2000002229462046FEF7EEFE6E1000223146C3
:101E30002046FEF7E8FE042000F034FE0122294689
:101E40002046FEF7E0FE012231462046FEF7DBFE8B
:101E5000BDE87040042000F025BE000000040048EA
:101E60002DE9F041184C0025206820F44020206026
:101E7000206820600122160231462046FEF7C3FE8C
:101E8000012000F00FFE0122570239462046FEF7DE
:101E9000BAFE012000F006FE08E06D1CEDB2FA2D3E
:101EA00004D9FFF7B1FF0120BDE8F081314620469B
:101EB000FEF7A4FE0028F0D1002239462046FEF7A6
:101EC000A2FE0020F0E700000004004810B50C4C12
:101ED000002210212046FEF796FE022000F0CCFDE5
:101EE000012210212046FEF78EFE042000F0C4FDE2
:101EF00020460022BDE810401021FEF784BE0000FD
:101F0000000400482DE9F04186B014216846FEF730
:101F10006AFA4048C16C41F00401C164C16C01F02F
:101F200004010591C16C41F02001C164C16C01F054
:101F300020010591C16C41F00101C164C16C01F047
:101F400001010591C16C41F00201C164C06C4FF404
:101F5000FC6500F002004FF09046059000222946F3
:101F60003046FEF750FEDFF8B08000224CF2787168
:101F70004046FEF748FE294F002280213846FEF7F2
:101F800042FE4FF4005000904FF488100024CDE939
:101F9000010469463846FEF70DFD00950125CDE99F
:101FA0000154694630460394FEF704FD4FF48F60F8
:101FB0000090CDE90154694640460394FEF7FAFCCF
:101FC0004FF440400326CDE90005CDE902466946BD
:101FD0004046FEF7EFFC80200090CDE901546946B1
:101FE00038460394FEF7E6FC3002009001AA112067
:101FF00082E8610069464046FEF7DCFC002211469B
:102000002820FEF773FE2820FEF762FE06B0BDE82A
:10201000F081000000100240000400480008004861
:10202000184810B5164901604FF4E13141600021B4
:1020300081600C22C160C0E904128161C16101624A
:1020400041628162FFF7D4FD08B1FEF715FC002163
:102050000C48FFF716FC08B1FEF70EFC00210948FA
:10206000FFF7E9FB08B1FEF707FC0648FFF7C2FBE4
:10207000002803D0BDE81040FEF7FEBB10BD0000F5
:102080000038014058040020FEE70000094881683C
:102090000968C96989060CD507490A68074B416870
:1020A0005A54491C4160642903D100214160012137
:1020B000017070473C02002024380140EC040020ED
:1020C000034988600068016841F0200101607047A1
:1020D0003C020020FEE70020AFF3008070B506460A
:1020E0005FF0000404F1B000C0B200F0EAFB002091
:1020F00000F0E7FB102000F0E4FB0025304600F084
:10210000E4FB6D1CEDB2802DF8D3641CE4B2082C06
:10211000E8D370BD10B5FFF701FE642000F0BCFCF1
:10212000AE2000F0CEFB202000F0CBFB102000F012
:10213000C8FBB02000F0C5FBC82000F0C2FB0020A7
:1021400000F0BFFB102000F0BCFB402000F0B9FB0A
:10215000812000F0B6FB204C607800F0B2FBA1209B
:1021600000F0AFFB207808B1A62000E0A72000F027
:10217000A8FBA82000F0A5FB3F2000F0A2FBA420B4
:1021800000F09FFBD32000F09CFB002000F099FBA7
:10219000D52000F096FBF02000F093FBD92000F052
:1021A00090FB222000F08DFBDA2000F08AFB122049
:1021B00000F087FBDB2000F084FB202000F081FB97
:1021C0008D2000F07EFB142000F07BFBBDE810406A
:1021D000AF2000F076BB00001600002010B50446CA
:1021E000B031C8B200F06DFB102040EA141000F0CE
:1021F00068FB04F00F00BDE8104040F0010000F063
:1022000060BB00002DE9F047002591468A46044650
:10221000012B22D0DFF8BC80022B24D155E02038DE
:10222000C7B27E2C04D90AF10100002400F0FF0A95
:1022300051462046FFF7D2FF07EB4700002608EB88
:102240004007B85D00F041FB761CF6B2062EF8D3CD
:10225000A41D6D1CE4B2EDB201E0DFF87C8019F83A
:1022600005000028DBD1BDE8F0872038C7B2782C04
:1022700004D90AF10100002400F0FF0A514620466B
:10228000FFF7ACFF5FF0000606EB071118F801003E
:1022900000F01BFB761CF6B2082EF5D30AF1010004
:1022A000C1B22046FFF79AFF5FF0000606EB071168
:1022B00001EB0800007A00F008FB761CF6B2082E4D
:1022C000F4D308346D1CE4B2EDB219F8050000280F
:1022D000CBD1C8E75C4600082E4400087047704721
:1022E000FEF79CBC10B594B038216846FEF77BF829
:1022F00014210EA8FEF777F80020FEF729FD012033
:1023000000900004032406210190CDE90841022039
:102310005521CDE90A1007900C900D906846FFF703
:1023200047F808B172B6FEE70F20CDE90E04002091
:1023300010901190129004210EA8FEF7EFFE0028D5
:1023400001D072B6FEE714B010BD0000024801686B
:1023500041F470010160704788ED00E030B5416ED6
:10236000B9B1026891689268C1F342610B4B520F98
:102370009C5CE50003F10804A25CB5FBF2F2A0F856
:102380006A205A5C615CD200B2FBF1F1A0F86810DF
:1023900030BD0121A0F86A10F8E70000FE430008F4
:1023A00090F82810090706D501684A68836B22F463
:1023B00000421A434A6090F82810C90706D0016805
:1023C0004A68C36A22F400321A434A6090F828101F
:1023D000890706D501684A68036B22F480321A43E4
:1023E0004A6090F82810490706D501684A68436B8F
:1023F00022F480221A434A6090F82810C90606D5B4
:1024000001688A68C36B22F480521A438A6090F88C
:102410002810890606D501688A68036C22F40052E8
:102420001A438A6090F82810490611D501684A6855
:10243000436C22F480121A434A60416CB1F5801F4C
:1024400006D101684A68836C22F4C0021A434A60CC
:1024500090F82810090606D501684A68C06C22F475
:10246000002202434A6070472DE9F84300260446E3
:10247000C0F89060FEF7CCFB8046206800684FF003
:10248000200500076FF07E4713D54346002229043C
:102490002046009700F0BCF958B1216851E8000FC0
:1024A00020F0800041E80002002AF6D1C4F88850EC
:1024B00021E020680068400722D5434600224FF4FF
:1024C00080012046009700F0A3F9C8B1216851E8C7
:1024D000000F20F4907041E80002002AF6D1206835
:1024E000083050E8001F21F0010140E80012002AE6
:1024F000F5D1C4F88C5084F884600320BDE8F883DB
:10250000C4F88850C4F88C5044F86C6F6660267626
:102510000020F3E710B5806A0021A0F85E10FFF7F5
:10252000D8F910BD10B5026852E8001F21F490716F
:1025300042E80013002BF6D10E4B0268083252E835
:10254000001F194042E80014002CF6D1C16E012989
:1025500008D1016851E8002F22F0100241E8002361
:10256000002BF6D12021C0F88C100021C1664167F4
:1025700010BD0000FEFFFFEF2DE9F04104460168A9
:1025800080682269E3691043626900251A43104399
:10259000DFF84CC20A68934B1A4002430A60206875
:1025A0004168E26821F44051114341602168A0690B
:1025B000614501D0226A10438A688B4B1A4002435E
:1025C0008A602068C16A626A21F00F011143C1620A
:1025D0008649236886488B420DD1D0F8880010F0D8
:1025E000030006D0012867D0022854D0032851D117
:1025F00064E001204FE07F498B420BD1D0F8880086
:1026000010F00C0047D0042845D0082852D00C28E0
:1026100040D153E078498B420BD1D0F8880010F0BC
:10262000300038D0102847D0202843D0302831D16E
:1026300044E072498B420BD1D0F8880010F0C00002
:1026400029D0402838D0802834D0C02822D135E085
:102650006B498B420ED1D0F8880010F440701AD02C
:10266000B0F5807F28D0B0F5007F23D0B0F5407F53
:1026700010D123E063450DD1D0F8880010F44060FC
:1026800009D0B0F5806F17D0B0F5006F12D0B0F55B
:10269000406F13D010205B4A5B4F00264FF400417F
:1026A000634539D160B102280DD004280DD0082827
:1026B00031D10EE00220EEE70420ECE70820EAE743
:1026C000FEF71AFE03E0114603E0FEF739FE0100B3
:1026D0007BD0606A37F810206768B1FBF2F007EB37
:1026E0004703834269D8B0EB073F66D8002308460A
:1026F0001946FDF701FE090241EA1061020278085D
:10270000101871413A460023FDF7F6FD3F4AA0F547
:102710004071914257D950E0E3694FF6EF788B4210
:102720002BD1092849D2DFE800F005080D482548DB
:1027300048480E00FEF7E0FD01E0FEF7EFFD010066
:1027400001D142E01146606A37F81000B1FBF0F0A9
:102750004100606801EB5001B1FBF0F1A1F1100004
:1027600040452AD84FF6F07201EA0200C1F3420157
:10277000084328E0FEF7E4FDE1E709281DD2DFE881
:1027800000F005080D1C1E1C1C1C0E00FEF7B4FDFD
:1027900001E0FEF7C3FD010001D116E01146606AB9
:1027A00037F81000B1FBF0F1606801EB5001B1FBAC
:1027B000F0F0A0F11001414504D9012505E0FEF734
:1027C000BFFDE8E780B22168C8600120A4F86A0074
:1027D00024F8680F2846E6602661BDE8F081000015
:1027E00000800040F369FFCFFFF4FF110038014083
:1027F000001002400044004000480040004C0040EF
:10280000005000400024F400E6430008FFFC0F00E5
:102810002DE9F047994617460D4604464FF000084B
:10282000089E33E0701C31D0FEF7F2F9A0EB0900EE
:10283000B04218D8BEB120680168490726D5802D5E
:1028400024D0402D22D0C169C94309070DD40825E1
:1028500005622046FFF766FEC4F8905084F8848035
:102860000120BDE8F0870320FBE7C069C0430005F5
:102870000CD421684FF4006008622046FFF752FE36
:102880002020C4F8900084F88480ECE72068C069B8
:1028900035EA000004D00020B842C3D00020E0E7B1
:1028A0000120F9E710B50448FFF7F0FBBDE8104040
:1028B0000248FFF70FB8000000380140580400201C
:1028C000FEE701460020FFF711BA01464020FFF75E
:1028D0000DBA08B5002140F480500091010A8DF82E
:1028E00001108DF802006A4603210620FDF754FF0F
:1028F00008BD000008B50021009101F05EFC41EC2C
:10290000100B0E4890ED021B51EC100B53EC112BE9
:1029100001F066FC01F024FC8DF80300010A8DF83B
:102920000210010C8DF80110000E8DF8000004213A
:102930006A460846FDF730FF08BD00004802002047
:1029400008B5002100918DF80100000A8DF8000003
:102950006A4602210520FDF71FFF08BD08B50021CA
:1029600000918DF80300010A8DF80210010C8DF81A
:102970000110000E8DF800006A4604210920FDF7C1
:102980000BFF08BD08B5002200928DF801008DF8FC
:1029900000106A4602210720FDF7FEFE08BD08B5BB
:1029A000002200928A018DF8012089088DF800101C
:1029B0000A30C0B26A460421FDF7EEFE08BD0000F1
:1029C00038B5044600200090084601F0F6FB41ECC3
:1029D000100B0E4890ED021B51EC100B53EC112B19
:1029E00001F0FEFB01F0BCFB8DF80300010A8DF83D
:1029F0000210010C8DF80110000E8DF800000A3451
:102A0000E0B26A460421FDF7C7FE38BD4802002047
:102A100008B5002200928A008DF8012089098DF8FE
:102A200000100A30C0B26A460421FDF7B5FE08BDA9
:102A300008B5002100918DF80300010A8DF80210FD
:102A4000010C8DF80110000E8DF800006A4604217B
:102A50000820FDF7A1FE08BD0907090E002804DBC8
:102A600000F1E02080F80014704700F00F0000F142
:102A7000E02080F8141D704700EB40008000401EED
:102A8000FDD2704710B504460420FEF793FE0148BE
:102A9000048010BD140000204FF47A71484300F008
:102AA00001B8000070B54FF0E024002265690949C3
:102AB000A36909884843A1699942FCD002D2A3EBDB
:102AC000010302E0A5EB010633441A440B4682429F
:102AD000F1D370BD1400002086B0FEF7AFF8FFF709
:102AE00001FCFFF70FFAFFF79BFAAA20FFF7CAFFD6
:102AF000FE48FFF7E5FAFFF70DFBFFF7ECFA0223BC
:102B0000FBA203211420FFF77DFBFC4E1020314671
:102B1000FDF724FE71002020FDF720FE3146402005
:102B2000FDF71CFE31468020FDF718FE40F2FF3411
:102B300021461020FDF703FE21462020FDF7FFFD72
:102B400021464020FDF7FBFD21468020FDF7F7FDE3
:102B500000211020FDF711FE4FF480512020FDF7D9
:102B60000CFE4FF400514020FDF707FE4FF440519A
:102B70008020FDF702FEFFF7A9F9DFF884834FF408
:102B8000806B08F5807908F5C07ADE4F3878012827
:102B900015D078781028F8D2DFE810F0100076030E
:102BA0008503C605E20399058503C6056206C207CB
:102BB000F1072E08C9084A0A7B0AA90AE5E7FFF7C8
:102BC0008AFA00253D7078781028DED2DFE800F020
:102BD0000842759CC7FEFDFCFBFAF9F8F7F6F5F420
:102BE0000223C3A203211420FFF70CFB314610205F
:102BF000FDF7B4FDC4492020FDF7B0FD314640206B
:102C0000FDF7ACFD31468020FDF7A8FD21461020E0
:102C1000FDF795FD21462020FDF791FD214640203E
:102C2000FDF78DFD21468020FDF789FD0021102054
:102C3000FDF7A3FD4FF480512020FDF79EFD4FF4DA
:102C400000514020FDF799FD4FF440518020FDF7E1
:102C500094FD2FE00223ADA203211420FFF7D2FA46
:102C600000231A468021F020FDF722FCA64D4FF4E8
:102C70007A77C8E900750022A1491020FDF7B7FC5A
:102C80009F48002240300146C0E900752020FDF732
:102C9000AEFC9B48002280300146C0E90075402010
:102CA000FDF7A5FC96480022C0300146C0E900753A
:102CB00080209BE0FFF70AF967E7022395A2032132
:102CC0001420FFF79FFA0123002280213020FDF716
:102CD000EFFB64274FF47A7142F21075C8F8007068
:102CE000C8E90115002286491020C8F80C60FDF7DC
:102CF0007EFC83484FF47A714030002280C080E827
:102D00006200011F202071E0022384A2032114200D
:102D1000FFF778FA0223002280211020FDF7C8FB7C
:102D20006421C8F800104FF4FA71C8F80410490083
:102D3000C8F8081040F2DC51C8F80C104FF4FA61E2
:102D4000C8F8101040F6C411C8F8141040F6B83195
:102D5000C8F8181040F6AC51C8F81C1043E0022324
:102D600070A203211420FFF74DFA032300228021D3
:102D70001020FDF79DFB42F21071C8F800104900C9
:102D8000C8F804104CF25031C8F808106749C8F868
:102D90000C106749C8F810106649C8F81410664945
:102DA000C8F8181058494046C8F81C106349016219
:102DB0006349416263490AE049E22CE210E2C4E15E
:102DC0009AE169E132E1E8E076E048E011E0816211
:102DD0005D49C1625D4901635D4941635D4981634C
:102DE0005D49C8F83C10002245491020FDF7FFFB63
:102DF00060E7022359A203211420FFF703FA0023FE
:102E00001A464021F020FDF753FB4FF4FA75A9F85C
:102E100000506F00A9F8024000233A4651491020A3
:102E2000FDF792FB4F480023203001460580448087
:102E30003A462020FDF788FB4A48002340300146EF
:102E4000058044803A464020FDF77EFB454800233C
:102E500060300146058044803A468020E3E002234A
:102E600041A203211420FFF7CDF9012300224021C4
:102E70003020FDF71DFBFF25A9F800506F00A9F8D1
:102E8000027040F2FD21A9F80410A9F806400023C1
:102E90004FF47A7233491020FDF756FB314840F267
:102EA000FD2120300023058047808180C4800146B9
:102EB0004FF47A722020B6E002232DA203211420C1
:102EC000FFF7A0F90223002240211020FDF7F0FABD
:102ED0007F21A9F80010FF21A9F8021040F27F110C
:102EE000A9F8041040F2FF1146E000005804002049
:102EF00053696E676C6520546F6E6500A086010093
:102F00005802002000000020400D03003246534BC1
:102F1000000000003446534B000000003846534B7D
:102F200000000000313646534B000000803801009D
:102F3000C0D40100E022020020BF020090D00300B4
:102F4000B01E0400E093040000E2040030570500C6
:102F5000801A0600C0270900809698003241534B22
:102F600000000000580300203441534B00000000D3
:102F70003841534B00000000A9F8061040F27F21B1
:102F8000A9F8081040F2FF21A9F80A1040F27F3199
:102F9000A9F80C10A9F80E4040E00223FEA203217C
:102FA0001420FFF72FF90323002240211020FDF702
:102FB0007FFA4021A9F800108021A9F80210C02151
:102FC000A9F804104FF48071A9F806104FF4A0710D
:102FD000A9F808104FF4C071A9F80A104FF4E07175
:102FE000A9F80C104FF400714846A9F80E104FF4E0
:102FF000107101824FF4207141824FF4307181824F
:103000004FF44071C1824FF4507101834FF46071ED
:1030100041834FF470718183A9F81E4000234FF45F
:103020007A72DF491020FDF78FFA43E60223DDA212
:1030300003211420FFF7E6F800231A46C021F020F0
:10304000FDF736FAD649AAF8005040F6FF77AAF8FD
:1030500002704FF47A7280311020FDF729FBD048BE
:103060004FF47A72A0300146058047802020FDF79A
:103070001FFBCB484FF47A72C03001460580478071
:103080004020FDF715FBC6484FF47A72E030014648
:10309000058047808020A0E00223C4A203211420E1
:1030A000FFF7B0F801230022C0213020FDF700FA1D
:1030B000AAF8005040F6FF77AAF8027041F6FF71B7
:1030C000AAF8041042F6FF71AAF80610B4494FF4AA
:1030D0007A7280311020FDF7EBFAB14841F6FF71AA
:1030E000A0304FF47A7205804780818042F6FF71EC
:1030F000C1800146202070E00223AEA203211420EB
:10310000FFF780F802230022C0211020FDF7D0F93C
:10311000AAF8005040F2FF71AAF8021040F6FF71C1
:10312000AAF8041041F2FF71AAF8061041F6FF71E7
:10313000AAF8081042F2FF71AAF80A10AAF80C10B7
:1031400043F2FF71AAF80E1042E002239BA2032172
:103150001420FFF757F803230022C0211020FDF7A9
:10316000A7F9AAF80050AAF802B04FF40061AAF833
:1031700004104FF44061AAF806104FF48051AAF8E9
:1031800008104FF4A051AAF80A104FF4C051AAF841
:103190000C104FF4E051AAF80E104FF400515046B5
:1031A000AAF810104FF4105141824FF4205181823F
:1031B0004FF43051C1824FF4405101834FF45051CC
:1031C00041834FF4605181834FF47051AAF81E106F
:1031D00073494FF47A7280311020FDF769FA69E57E
:1031E000022378A203210020FFF70CF800234022DD
:1031F0008021F020FDF75CF9FA2002A9019081E816
:10320000310001200346009032464FF47A71F020DD
:10321000FDF70AFA4EE502236EA203210020FEF715
:10322000F1FF402200231146F020FDF741F9FA207A
:1032300002AA42F21071019082E8230001200346A5
:10324000009022460021F020FDF79FF932E502238D
:1032500065A203210020FEF7D5FF00234022C021F4
:10326000F020FDF725F9FA2002AA42F21071019030
:1032700082E8130001200346009043F6FF7200210C
:10328000F020FDF732FA15E55A4D002208212846B4
:10329000FDF7B9FC00225F4659464FF09040FDF71C
:1032A000B2FC002238E0534D002208212846FDF7E9
:1032B000AAFC00225F4659464FF09040FDF7A3FC60
:1032C000002280214C48FDF79EFC00224021284628
:1032D000FDF799FC0A20FDF743FB00220821284650
:1032E000FDF791FC012239464FF09040FDF78BFC31
:1032F000002280214048FDF786FC0122402128461B
:10330000FDF781FC0A20FDF72BFB0122082128464E
:10331000FDF779FC0022FBE380213748FDF773FCC1
:10332000002240212846FDF76EFC0A20FDF718FB1D
:10333000012208212846FDF766FC012239464FF09C
:103340009040FDF760FC012280212B48FDF75BFCDB
:10335000012240214FEA0500FDF755FC0A20FDE35C
:10336000244D002208212846FDF74DFC00225F462F
:1033700059464FF09040FDF746FC002280211E4840
:10338000FDF741FC002240212846FDF73CFC0F20C0
:10339000FFF788FB002231E0313641534B0000003B
:1033A000580300203250534B000000003450534B60
:1033B000000000003850534B0000000031365053DD
:1033C0004B00000053776565702046726571756526
:1033D0006E637900537765657020416D70696C6923
:1033E000747564650000000053776565702050684F
:1033F0006173650000040048000800480821284661
:10340000FDF701FC002239464FF09040FDF7FBFB31
:1034100000228021FE48FDF7F6FB012240212846CC
:10342000FDF7F1FB0F20FFF73DFB002208212846A6
:10343000FDF7E9FB002239464FF09040FDF7E3FB32
:1034400001228021F248FDF7DEFB002240212846C0
:10345000FDF7D9FB0F20FFF725FB002208212846A6
:10346000FDF7D1FB002239464FF09040FDF7CBFB32
:1034700001228021E648FDF7C6FB012240212846B3
:10348000FDF7C1FB0F20FFF70DFB002208212846A6
:10349000FDF7B9FB012239464FF09040FDF7B3FB31
:1034A00000228021DA48FDF7AEFB002240212846A9
:1034B000FDF7A9FB0F20FFF7F5FA002208212846A7
:1034C000FDF7A1FB012239464FF09040FDF79BFB31
:1034D00000228021CE48FDF796FB0122402128469C
:1034E000FDF791FB0F20FFF7DDFA002208212846A7
:1034F000FDF789FB012239464FF09040FDF783FB31
:1035000001228021C248FDF77EFB0022402128468F
:10351000FDF779FB0F20FFF7C5FA002208212846A6
:10352000FDF771FB012239464FF09040FDF76BFB30
:1035300001228021B648FDF766FB01224021284682
:10354000FDF761FB0F20FFF7ADFA012208212846A5
:10355000FDF759FB002239464FF09040FDF753FB31
:1035600000228021AA48FDF74EFB00224021284678
:10357000FDF749FB0F20FFF795FA012208212846A5
:10358000FDF741FB002239464FF09040FDF73BFB31
:10359000002280219E48FDF736FB0122402128466B
:1035A000FDF731FB0F20FFF77DFA012208212846A5
:1035B000FDF729FB002239464FF09040FDF723FB31
:1035C000012280219248FDF71EFB0022402128465F
:1035D000FDF719FB0F20FFF765FA012208212846A5
:1035E000FDF711FB002239464FF09040FDF70BFB31
:1035F000012280218648FDF706FB01224021284652
:10360000FDF701FB0F20FFF74DFA012208212846A4
:10361000FDF7F9FA012239464FF09040FDF7F3FA31
:10362000002280217A48FDF7EEFA00224021284648
:10363000FDF7E9FA0F20FFF735FA012208212846A5
:10364000FDF7E1FA012239464FF09040FDF7DBFA31
:10365000002280216E48FDF7D6FA0122402128463B
:10366000FDF7D1FA0F20FFF71DFA012208212846A5
:10367000FDF7C9FA012239464FF09040FDF7C3FA31
:10368000012280216248FDF7BEFA0022402128462F
:10369000FDF7B9FA0F20FFF705FA012208212846A5
:1036A000FDF7B1FA012239464FF09040FDF7ABFA31
:1036B000012280215648FDF7A6FA01224021284622
:1036C000FDF7A1FA0F20FFF7EDF9FFF75EBA002230
:1036D00008215048FDF797FA4FF0904500225946CF
:1036E0002846FDF790FA4A4F002280213846FDF720
:1036F0008AFA002240214748FDF785FA0A20FDF7A3
:103700002FF9012208214348FDF77DFA012259468D
:103710002846FDF778FA012280213846FDF773FA32
:10372000012240213B4817E63A4D00220821284655
:10373000FDF769FA00225F4659464FF09040FDF7C9
:1037400062FA002280213248FDF75DFA0A20FDF777
:1037500007F9002208212846FDF755FA00223946CC
:103760004FF09040FDF74FFA012280212848FDF7E5
:103770004AFA0A20FDF7F4F8002208212846FDF74E
:1037800042FA012239464FF09040FDF73CFA002200
:1037900080211F48FDF737FA0A20FDF7E1F80022E3
:1037A00008212846FDF72FFA012239464FF09040B4
:1037B000FDF729FA012280211548FDF724FA0A2095
:1037C000FDF7CEF8012208212846FDF71CFA002259
:1037D00039464FF09040FDF716FA002280210C4840
:1037E000FDF711FA0A20FDF7BBF80122082128464F
:1037F000FDF709FA002239464FF09040FDF703FA31
:10380000012280210248FDF7FEF90A2004E00000B1
:103810000008004800040048FDF7A2F80122082132
:103820002846FDF7F0F9012239464FF09040FDF7A8
:10383000EAF900228021FE48FDF7E5F90A20FDF7AC
:103840008FF8012208212846FDF7DDF901223946CB
:103850004FF09040FDF7D7F901228021F4487BE535
:10386000F44D002208212846FDF7CDF900225F46DD
:1038700059464FF09040FDF7C6F900228021EC48F0
:10388000FDF7C1F9002240212846FDF7BCF90A20C6
:10389000FDF766F8002208212846FDF7B4F900225A
:1038A00039464FF09040FDF7AEF900228021E04804
:1038B000FDF7A9F9012240212846FDF7A4F90A20C5
:1038C000FDF74EF8002208212846FDF79CF900225A
:1038D00039464FF09040FDF796F901228021D448F7
:1038E000FDF791F9002240212846FDF78CF90A20C6
:1038F000FDF736F8002208212846FDF784F900225A
:1039000039464FF09040FDF77EF901228021C848EA
:10391000FDF779F9012240212846FDF774F90A20C4
:10392000FDF71EF8002208212846FDF76CF9012258
:1039300039464FF09040FDF766F900228021BC48DF
:10394000FDF761F9002240212846FDF75CF90A20C5
:10395000FDF706F8002208212846FDF754F9012258
:1039600039464FF09040FDF74EF900228021B048D3
:10397000FDF749F9012240212846FDF744F90A20C4
:10398000FCF7EEFF002208212846FDF73CF9012252
:1039900039464FF09040FDF736F901228021A448C6
:1039A000FDF731F9002240212846FDF72CF90A20C5
:1039B000FCF7D6FF002208212846FDF724F9012252
:1039C00039464FF09040FDF71EF9012280219848BA
:1039D000FDF719F9012240212846FDF714F90A20C4
:1039E000FCF7BEFF012208212846FDF70CF9002252
:1039F00039464FF09040FDF706F9002280218C48AF
:103A0000FDF701F9002240212846FDF7FCF80A20C5
:103A1000FCF7A6FF012208212846FDF7F4F8002252
:103A200039464FF09040FDF7EEF8002280218048A3
:103A3000FDF7E9F8012240212846FDF7E4F80A20C5
:103A4000FCF78EFF012208212846FDF7DCF8002252
:103A500039464FF09040FDF7D6F801228021744896
:103A6000FDF7D1F8002240212846FDF7CCF80A20C6
:103A7000FCF776FF012208212846FDF7C4F8002252
:103A800039464FF09040FDF7BEF80122802168488A
:103A9000FDF7B9F8012240212846FDF7B4F80A20C5
:103AA000FCF75EFF012208212846FDF7ACF8012251
:103AB00039464FF09040FDF7A6F8002280215C487F
:103AC000FDF7A1F8002240212846FDF79CF80A20C6
:103AD000FCF746FF012208212846FDF794F8012251
:103AE00039464FF09040FDF78EF800228021504873
:103AF000FDF789F8012240212846FDF784F80A20C5
:103B0000FCF72EFF012208212846FDF77CF8012250
:103B100039464FF09040FDF776F80122FFF7FCBBE5
:103B2000002208214348FDF76EF84FF0904500222F
:103B300059462846FDF767F83D4F00228021384658
:103B4000FDF761F8002240213A48FDF75CF80220B9
:103B5000FCF706FF01220821364800E098E2FDF755
:103B600052F8012259462846FDF74DF801228021DE
:103B70003846FDF748F8012240212E4838E02D4D07
:103B8000002208212846FDF73EF800225F465946EC
:103B90004FF09040FDF737F8002280212448FDF7D0
:103BA00032F8002240212846FDF72DF80220FCF7CC
:103BB000D7FE002208212846FDF725F801223946C4
:103BC0004FF09040FDF71FF8002280211848FDF7C4
:103BD0001AF8012240212846FDF715F80220FCF7CB
:103BE000BFFE012208212846FDF70DF80022F6E16C
:103BF000FDF709F80220AAE20E4D0022082128460E
:103C0000FDF701F800225F4659464FF09040FCF75F
:103C1000FAFF002280210648FCF7F5FF0220FCF79E
:103C20009FFE002208212846FCF7EDFF002203E05A
:103C3000000800480004004839464FF09040FCF767
:103C4000E2FF01228021F848FCF7DDFF0220FCF7AB
:103C500087FE002208212846FCF7D5FF01223946BD
:103C60004FF09040FCF7CFFF00228021EE48FCF798
:103C7000CAFF0220FCF774FE002208212846FCF748
:103C8000C2FF012239464FF09040FCF7BCFF0122F1
:103C90008021E548FCF7B7FF0220FCF761FE012216
:103CA00008212846FCF7AFFF002239464FF090402C
:103CB000FCF7A9FF00228021DB48FCF7A4FF0220CB
:103CC000FCF74EFE012208212846FCF79CFF00224B
:103CD00039464FF09040FCF796FF01228021D248F0
:103CE000FCF791FF0220FCF73BFE01220821284649
:103CF000FCF789FF012239464FF09040FCF783FF23
:103D000000228021C848FCF77EFF0220FCF728FE35
:103D1000012208212846FCF776FF012239464FF0A0
:103D20009040FCF770FF01228021BF4860E7BF4D43
:103D3000002208212846FCF766FF00225F4659460C
:103D40004FF09040FCF75FFF00228021B648FCF75F
:103D50005AFF002240212846FCF755FF0220FCF7BD
:103D6000FFFD002208212846FCF74DFF00223946BE
:103D70004FF09040FCF747FF00228021AA48FCF753
:103D800042FF012240212846FCF73DFF0220FCF7BC
:103D9000E7FD002208212846FCF735FF00223946BE
:103DA0004FF09040FCF72FFF012280219E48FCF746
:103DB0002AFF002240212846FCF725FF0220FCF7BD
:103DC000CFFD002208212846FCF71DFF00223946BE
:103DD0004FF09040FCF717FF012280219248FCF73A
:103DE00012FF012240212846FCF70DFF0220FCF7BC
:103DF000B7FD002208212846FCF705FF01223946BD
:103E00004FF09040FCF7FFFE002280218648FCF72F
:103E1000FAFE002240212846FCF7F5FE0220FCF7BE
:103E20009FFD002208212846FCF7EDFE01223946BD
:103E30004FF09040FCF7E7FE002280217A48FCF723
:103E4000E2FE012240212846FCF7DDFE0220FCF7BD
:103E500087FD002208212846FCF7D5FE01223946BD
:103E60004FF09040FCF7CFFE012280216E48FCF716
:103E7000CAFE002240212846FCF7C5FE0220FCF7BE
:103E80006FFD002208212846FCF7BDFE01223946BD
:103E90004FF09040FCF7B7FE012280216248FCF70A
:103EA000B2FE012240212846FCF7ADFE0220FCF7BD
:103EB00057FD012208212846FCF7A5FE00223946BD
:103EC0004FF09040FCF79FFE002280215648FCF7FF
:103ED0009AFE002240212846FCF795FE0220FCF7BE
:103EE0003FFD012208212846FCF78DFE00223946BD
:103EF0004FF09040FCF787FE002280214A48FCF7F3
:103F000082FE012240212846FCF77DFE0220FCF7BC
:103F100027FD012208212846FCF775FE00223946BC
:103F20004FF09040FCF76FFE012280213E48FCF7E5
:103F30006AFE002240212846FCF765FE0220FCF7BD
:103F40000FFD012208212846FCF75DFE00223946BC
:103F50004FF09040FCF757FE012280213248FCF7D9
:103F600052FE012240212846FCF74DFE0220FCF7BC
:103F7000F7FC012208212846FCF745FE01223946BC
:103F80004FF09040FCF73FFE002280212648FCF7CE
:103F90003AFE002240212846FCF735FE0220FCF7BD
:103FA000DFFC012208212846FCF72DFE01223946BC
:103FB0004FF09040FCF727FE002280211A48FCF7C2
:103FC00022FE012240212846FCF71DFE0220FCF7BC
:103FD000C7FC012208212846FCF715FE01223946BC
:103FE0004FF09040FCF70FFE012280210E48FCF7B5
:103FF0000AFE002240212846FCF705FE0220FCF7BD
:10400000AFFC012208212846FCF7FDFD01223946BC
:104010004FF09040FCF7F7FD012280210248FCF7A9
:10402000F2FD012260E000000008004800040048A2
:10403000494D012208212846FCF7E5FD0122594699
:104040004FF09040FCF7DFFD444F012280213846BD
:10405000FCF7D9FD012240212846FCF7D4FDC620FB
:10406000FCF77EFC002208212846FCF7CCFD00224C
:1040700059464FF09040FCF7C6FD0022802138469B
:10408000FCF7C1FD002240212846FCF7BCFDC620FC
:104090005DE0314D012208212846FCF7B4FD0122E4
:1040A0005F4659464FF09040FCF7ADFD012280215C
:1040B0002A48FCF7A8FD012240212846FCF7A3FD71
:1040C0000220FCF74DFC002208212846FCF79BFD4E
:1040D000002239464FF09040FCF795FD00228021E8
:1040E0001E48FCF790FD00224021284680E51A4D2D
:1040F000012208212846FCF786FD01225F46594629
:104100004FF09040FCF77FFD012280211348FCF71F
:104110007AFD012240212846FCF775FD2120FCF79D
:104120001FFC002208212846FCF76DFD00223946BD
:104130004FF09040FCF767FD002280210748FCF714
:1041400062FD002240212846FCF75DFD2120FCF79E
:1041500007FCFEF71ABD00000004004800080048F4
:104160004FEA1153A3F58063D3F11E03A8BFD3F127
:10417000200C08DB4FF0004242EAC12252EA5052C2
:1041800032FA03F0704709420BD4102BC4BF002051
:10419000704703F5787CBCF1FF3F05D04FF0FF304E
:1041A00070474FF00000704770B500F0C3F800BFD3
:1041B0004992248000207047F0E7B0FA80F310FAAB
:1041C00003F10AD0C3F11D0303F580634FEA4150A8
:1041D0004FEA035202EBD12170474FF000007047C5
:1041E000DFF848C170B51CEA111E1EBF1CEA13158A
:1041F0009EEA0C0F95EA0C0F00F06F8081EA030431
:1042000023EA4C134EEAD47E21EA4C1141F480118A
:1042100043F48013AE44A1FB024CA0FB0365AEF156
:104220007F7E361955EB0C05A1FB034C4CF10003C6
:10423000A0FB021C16EB0C06654153F1000309427A
:1042400018BF46F0010613F4007F0BD14FEA03318B
:104250004FEA0530340341EA155140EA16506FF039
:1042600003020AE04FEAC3214FEAC520F40241EA03
:10427000555140EA56506FF0020202EB2E4201EB1C
:10428000025585EACE710AD05FEA440C18BF24F0CB
:10429000004450F1000041F1000120EAD47040F2E6
:1042A000FE7C624500D270BDA84214BF4FF080442E
:1042B0004FF04044002E08BF0024BEF1806FA8BF1D
:1042C000A1F1C041BDE8704080F282804FF0000053
:1042D00001F1C04101F0004170479EEA0C0F0CEA69
:1042E000131518BF95EA0C0F06D04FF0000081EAB5
:1042F000030E0EF0004170BD00F01CF88900013E75
:1043000000F007B800F009B84FEA430C5FEA5C5CC4
:1043100008D081EA030100F05BB84FEA410C5FEA84
:104320005C5CF6D14FF00000014970470000FF07C8
:104330000000F87F0EF1020E2EF0030E5EF8046B03
:10434000364205D4012A43EB030515F5001F12D8A8
:10435000012841EB010C1CF5001F0CD80ED14FEACF
:10436000D17C15F5001F0CEB4C0C0CF1020C08BFB6
:104370004CEBD37C04E04FF0080C01E04FEAD37C17
:104380000CEB4C0526FA05F606F00706B6F1040C10
:1043900006D20EEB860CBDE870404CF0010C604775
:1043A000DFE80CF0090B02024FF000414FF0000073
:1043B000A1F5002170BD19461046012851EB0104FA
:1043C00018BFD4F5001484BF002001F0004170BD77
:1043D0000808A0F500114FEA310170474FF0407016
:1043E000E1EE100A70470100020004000600080018
:1043F0000A000C00100020004000800000010101B4
:104400000103070100000804020408010101000083
:104410000000000000000102030406070809000074
:104420000000010203040302010600050407000066
:10443000000000000000002F00000000070007003F
:1044400000147F147F1400242A7F2A12006264085B
:1044500013230036495522500000050300000000D8
:104460001C224100000041221C000014083E0814D8
:104470000008083E0808000000A0600000080808C6
:104480000808000060600000002010080402003EE0
:104490005149453E0000427F40000042615149467B
:1044A000002141454B31001814127F10002745456B
:1044B0004539003C4A49493000017109050300367D
:1044C0004949493600064949291E00003636000090
:1044D0000000563600000008142241000014141495
:1044E0001414000041221408000201510906003290
:1044F0004959513E007C1211127C007F49494936CE
:10450000003E41414122007F4141221C007F494938
:104510004941007F09090901003E4149497A007F6C
:104520000808087F0000417F4100002040413F0112
:10453000007F08142241007F40404040007F020C71
:10454000027F007F0408107F003E4141413E007F12
:1045500009090906003E4151215E007F09192946DB
:104560000046494949310001017F0101003F4040B7
:10457000403F001F2040201F003F4038403F006365
:104580001408146300070870080700615149454387
:1045900000007F41410000552A552A550000414145
:1045A0007F0000040201020400404040404000003F
:1045B00001020400002054545478007F48444438D9
:1045C00000384444442000384444487F0038545460
:1045D000541800087E0901020018A4A4A47C007FDE
:1045E000080404780000447D4000004080847D0081
:1045F000007F102844000000417F4000007C041828
:104600000478007C0804047800384444443800FCF2
:10461000242424180018242418FC007C080404080E
:1046200000485454542000043F444020003C404083
:10463000207C001C2040201C003C4030403C0044BA
:1046400028102844001CA0A0A07C004464544C44C2
:10465000141414141414FFFFFFFFFFFF00000000E8
:10466000000000000000000000000000000000F852
:1046700000000000000000333000000000100C06B5
:10468000100C0600000000000000000040C0784050
:10469000C0784000043F04043F040400007088FC1C
:1046A00008300000001820FF211E0000F008F00074
:1046B000E018000000211C031E211E0000F00888E5
:1046C000700000001E2123241927211010160E004F
:1046D000000000000000000000000000000000E0FA
:1046E000180402000000000718204000000204180F
:1046F000E00000000040201807000000404080F06B
:10470000804040000202010F01020200000000F0A0
:10471000000000000101011F010101000000000074
:104720000000000080B070000000000000000000E9
:104730000000000000010101010101010000000072
:104740000000000000303000000000000000000009
:1047500080601804006018060100000000E01008E6
:104760000810E000000F102020100F00001010F8BB
:10477000000000000020203F2020000000700808FA
:10478000088870000030282422213000003008887A
:10479000884830000018202020110E000000C020A2
:1047A00010F8000000070424243F240000F80888C3
:1047B000880808000019212020110E0000E0108850
:1047C00088180000000F112020110E000038080882
:1047D000C83808000000003F000000000070880892
:1047E00008887000001C222121221C0000E0100813
:1047F0000810E0000000312222110F00000000C06C
:10480000C000000000000030300000000000008008
:1048100000000000000080600000000000008040F8
:104820002010080000010204081020004040404011
:104830004040400004040404040404000008102064
:1048400040800000002010080402010000704808A9
:104850000808F0000000003036010000C030C82811
:10486000E810E0000718272423140B000000C038CC
:10487000E0000000203C23020227382008F8888846
:1048800088700000203F202020110E00C030080852
:1048900008083800071820202010080008F8080829
:1048A0000810E000203F202020100F0008F8888822
:1048B000E8081000203F20202320180008F88888EE
:1048C000E8081000203F200003000000C030080866
:1048D0000838000007182020221E020008F80800EF
:1048E0000008F808203F210101213F20000808F8B6
:1048F000080800000020203F2020000000000808D9
:10490000F8080800C08080807F00000008F888C098
:1049100028180800203F20012638200008F8080049
:1049200000000000203F20202020300008F8F80080
:10493000F8F80800203F003F003F200008F830C092
:104940000008F808203F200007183F00E010080882
:104950000810E0000F10202020100F0008F80808B1
:104960000808F000203F210101010000E0100808C4
:104970000810E0000F18242438504F0008F88888E9
:1049800088887000203F2000030C302000708808C9
:10499000080838000038202121221C00180808F8D7
:1049A000080818000000203F2000000008F8080058
:1049B0000008F808001F202020201F000878880029
:1049C00000C83808000007380E010000F80800F899
:1049D0000008F800033C0700073C03000818688043
:1049E0008068180820302C03032C30200838C800B9
:1049F000C83808000000203F200000001008080808
:104A0000C83808002038262120201800000000FEA9
:104A1000020202000000007F40404000000C30C055
:104A200000000000000000010638C0000002020281
:104A3000FE000000004040407F0000000000040233
:104A4000020204000000000000000000000000005E
:104A5000000000008080808080808080000202044E
:104A60000000000000000000000000000000808046
:104A7000808000000019242222223F2008F80080B4
:104A800080000000003F112020110E000000008077
:104A900080800000000E1120202011000000008006
:104AA0008088F800000E112020103F200000808038
:104AB00080800000001F222222221300008080F04C
:104AC000888888180020203F202000000000808077
:104AD00080808000006B94949493600008F80080BC
:104AE00080800000203F210000203F200080989817
:104AF000000000000020203F202000000000008077
:104B00009898000000C08080807F000008F80000B6
:104B100080808000203F24022D302000000808F80B
:104B2000000000000020203F2020000080808080C6
:104B300080808000203F20003F20003F8080008058
:104B400080800000203F210000203F200000808066
:104B500080800000001F202020201F008080008017
:104B60008000000080FFA12020110E0000000080C6
:104B700080808000000E112020A0FF8080808000B7
:104B80008080800020203F212000010000008080E4
:104B9000808080000033242424241900008080E0D9
:104BA000808000000000001F2020000080800000A6
:104BB00000808000001F202020103F208080800087
:104BC0000080808000010E30080601008080008097
:104BD000008080800F300C030C300F0000808000BC
:104BE000808080000020312E0E31200080808000E7
:104BF0000080808080818E70180601000080808097
:104C0000808080000021302C222130000000000034
:104C1000807C020200000000003F404000000000D5
:104C2000FF00000000000000FF0000000002027C06
:104C3000800000000040403F00000000000601012D
:104C40000202040400000000000000006C4C000898
:104C5000000000205802000014020008384E00082E
:104C600058020020580900007002000841321082EA
:104C7000012B24F40E12FF1C108C84012B85F606E8
:104C80001484940C101020201008040201FF01026B
:104C90000408102020160809CEB8082C027A4A0110
:104CA000137A02191B1112031EFF4949497F041987
:104CB000401560020CC0100AF8888888FF8888A810
:104CC00018101004047C0380601F80432C102846B9
:104CD00081803D808282FE031A8059138660258080
:104CE00040300F22FF1780844221100C1010407CAE
:104CF000407F484840F2121AD61212F20220109059
:104D00008E404F201E804F20180710204F80200E0D
:104D100014A4442434AD6624940444A414180C0848
:104D2000090808090909FD09090B0922084EF808B4
:104D3000FF08F8A1247A0202120F1BFF080439A011
:104D40001967111AF06D180AF080904C57A4544C52
:104D50008450180F1F100F081F10101515FF151580
:104D6000101088200D60F80704E4A4A4BFA4A4E4F4
:104D7000041A019D3C40407FEF847F40404BFF0878
:104D800001290B6A4101295F2010100C44241404EE
:104D900005060404142444140C2B40401B2A7F05F0
:104DA000493F1BFE4001112EFF804020103F111C87
:104DB0007F2020782A3F1623407828090202C20269
:104DC0000202FE820119BF19151977390439381604
:104DD00002E222223E2808088848390E08C88015B9
:104DE0004382423E200921712925232128703996CA
:104DF0001DF8898E880139A019681B18074854804E
:104E0000403F8B04840119E0CA200111300E2010AC
:104E1000E824272424E424342C20E01D80601F098A
:104E20000107147F090949897F32D0000B00030272
:084E300095D626E80B2E214067
:04000005080001D915
:00000001FF
