:020000040800F2
:1000000098320020C1020008053700086F3100084F
:10001000B93600085D0A0008453F000800000000EE
:100020000000000000000000000000000F38000881
:100030001B0B0008000000000D38000811380008F4
:10004000DB020008DB020008DB020008DB0200081C
:10005000DB020008DB020008DB020008DB0200080C
:10006000DB020008DB020008DB020008610A00086E
:100070006D0A0008DB020008DB020008DB02000852
:10008000DB020008DB020008DB020008DB020008DC
:10009000DB020008DB020008DB020008DB020008CC
:1000A000DB020008DB020008DB020008DB020008BC
:1000B000DB020008DB020008DB020008DB020008AC
:1000C000DB020008DB020008DB020008DB0200089C
:1000D000DB020008293F0008DB020008DB02000801
:1000E0001D0B0008DB020008DB020008DB02000831
:1000F000DB020008DB020008DB020008DB0200086C
:10010000DB020008DB020008DB020008DB0200085B
:10011000DB020008DB020008DB020008DB0200084B
:10012000DB020008DB020008DB020008DB0200083B
:10013000DB020008DB020008DB020008DB0200082B
:10014000DB020008DB020008DB020008DB0200081B
:10015000DB020008DB020008DB020008DB0200080B
:10016000DB020008DB020008DB020008DB020008FB
:10017000DB020008DB020008DB020008DB020008EB
:10018000DB020008DB020008DB020008DB020008DB
:10019000DB02000800000000DB020008DB020008B0
:1001A000DB020008DB020008DB020008DB020008BB
:1001B000DB020008DB020008DB020008DB020008AB
:1001C000DB020008DB020008DB020008DB0200089B
:1001D000DB020008DB02000800F002F800F061F822
:1001E0000AA090E8000C82448344AAF10107DA4592
:1001F00001D100F056F8AFF2090EBAE80F0013F083
:10020000010F18BFFB1A43F0010318475C3F0000C1
:100210007C3F00000A444FF0000C10F8013B13F043
:10022000070408BF10F8014B1D1108BF10F8015B4F
:10023000641E05D010F8016B641E01F8016BF9D142
:1002400013F0080F1EBF10F8014BAD1C0C1B09D199
:100250006D1E58BF01F801CBFAD505E014F8016B0B
:1002600001F8016B6D1EF9D59142D6D3704700009D
:100270000023002400250026103A28BF78C1FBD8AF
:10028000520728BF30C148BF0B607047642900F097
:10029000BB80002070471FB503F040FF1FBD10B5A5
:1002A00010BD00F053FA1146FFF7F5FF03F0A2FE70
:1002B00000F071FA03B4FFF7F2FF03BC00F074FA28
:1002C0000948804709480047FEE7FEE7FEE7FEE7EA
:1002D000FEE7FEE7FEE7FEE7FEE7FEE70448054926
:1002E000054A064B704700007D380008D901000818
:1002F000982C002098320020982E0020982E002064
:1003000053EA020C00F069802DE9F04B4FF0000633
:10031000002B1FBFB3FA83F503FA05F424FA05F6A0
:100320005E4012BF1643B2FA82F502FA05F4C5F137
:1003300020051EBF22FA05FC44EA0C04203556EACB
:10034000044C4FEA144418BF641C4FF000084FF0EF
:100350000009904271EB030C39D3002919BFB1FA9F
:1003600081F701FA07F6B0FA80F700FA07F6C7F14D
:1003700020071EBF20FA07FC46EA0C062037B6FB12
:10038000F4FCA7EB0507103F07F01F0BCBF120068D
:100390000CFA0BFB2CFA06F644BFB3460026202FBE
:1003A000A4BF5E464FF0000B5BEA060C08BF4FF09F
:1003B000010B19EB0B09ABFB027C48EB0608C01BD9
:1003C00006FB02CC0BFB03CC71EB0C01C1E70B4627
:1003D000024641464846BDE8F08B13B54FF0000099
:1003E0004FF00001AFF30080BDE81C4070470000F3
:1003F0000FB4044910B503AA029800F08DF910BC9F
:100400005DF814FB500200202DE9F041064600245F
:1004100010687529314616A510D0AFF3008000286A
:1004200002DA404213A507E031688A0701D512A518
:1004300002E0490704D511A5012401E0AFF30080D3
:1004400000210A2206F1240709E0B0FBF2FCB0FB10
:10045000F2F302FB1C00303078541846491C002887
:10046000F3D123462A463046BDE8F04100F0E2B819
:10047000000000002D0000002B0000002000000004
:100480002DE9F0474FF0000A89460446C0F820A045
:100490002046E1688847002876D0252806D0D4E990
:1004A00001219047206A401C2062F1E7E168204664
:1004B00000268847C4F81CA005460027C4F818A0E9
:1004C0002A2D09D0284603F056FD38B304EB8708DF
:1004D000303DC8F8185019E059F8041B204604EBC9
:1004E00087029161E1688847012F054618D1E069CC
:1004F000002820DA26F020061DE0D8F8180000EBCE
:10050000800005EB40003038C8F818002046E1684C
:100510008847054603F02FFD0028EED1012F0AD0B1
:100520002E2D08D12046E16888477F1C0546022F02
:1005300046F02006C4DBA069002803DA404246F0FA
:100540000106A061F00701D026F010066C2D0AD03C
:10055000682D08D04C2D39D06A2D35D0742D35D06A
:100560007A2D33D016E0E1682F4620468847B842FE
:1005700005460AD16C2F27D04FF48060E16806430E
:1005800020468847054605E027E06C2F1AD04FF437
:10059000807006430DB3A5F14100192802D820351B
:1005A00046F400664A462946204626604E46FFF736
:1005B0006DFE80B101280BD0F61D26F0070000F17A
:1005C000080965E74020E4E78020D7E70020D5E769
:1005D00006F104095CE7284661E7206ABDE8F08778
:1005E0004FF0000200B5134694469646203922BFCC
:1005F000A0E80C50A0E80C50B1F12001BFF4F7AF17
:10060000090728BFA0E80C5048BF0CC05DF804EBF8
:10061000890028BF40F8042B08BF704748BF20F866
:10062000022B11F0804F18BF00F8012B7047704764
:10063000704770472DE9F0470D46994692460446AB
:1006400000F124080168880604D5E06921F0100152
:10065000216000E00120A84201DD471B00E00027E7
:10066000A1697A1902EB0900081AA0612078C00676
:1006700002D42046AFF30080002608E0D4E901212F
:100680001AF806009047206A401C761C20624E45EE
:10069000F4DB2078C0060AD52046AFF3008006E0E0
:1006A000D4E9012130209047206A401C2062381E86
:1006B000A7F10107F4DC07E0D4E9012118F80500EF
:1006C0009047206A401C2062281EA5F10105F3DC3A
:1006D0002046AFF300802078000602D50220BDE856
:1006E000F0870120FBE7000001694A1C02610878DD
:1006F000704700B58FB0CDE9013100210591054962
:100700007944CDE9031011466846FFF7B9FE0FB0F2
:1007100000BD0000E5FFFFFF074B70B50D467B44B1
:10072000FFF7E7FF0446284600F008F810B14FF045
:10073000FF3070BD204670BDB7380000007B00F070
:100740008000704700487047342C00207546FFF742
:10075000F9FFAE4605006946534620F0070085467E
:1007600018B020B5FFF7BAFDBDE820404FF00006F5
:100770004FF000074FF000084FF0000B21F0070189
:10078000AC46ACE8C009ACE8C009ACE8C009ACE8CC
:10079000C0098D46704710B50446AFF3008020466F
:1007A000BDE81040FFF786BD01491820ABBEFEE74B
:1007B00026000200704700002DE9F04104460027A2
:1007C0000D46006802F0CEFD0646206802F0C6FD28
:1007D00030435DD02068C1682E4E890105D5617F08
:1007E000012902D1217F01290BD0022D1DD02068C3
:1007F00002F0B8FDB8B120688168C1F3400169B169
:1008000011E00125244902E08F4232D27F1C0268A8
:10081000D2435206F8D440210160E8E781683140B4
:1008200041F010018160012D11D0206802F096FD89
:1008300048B120688168C1F3400121B98168314025
:1008400041F020018160022D08D0032D04D0042541
:1008500001F0BCFA064617E00C25F9E70825F7E792
:1008600001F0B4FA801B05280ED920688068284260
:100870000AD0E06D40F01000E065206E40F001000D
:1008800020660120BDE8F081206880682842E7D119
:100890000020F7E7C0FFFF7F000040A310B5846A87
:1008A000E16D11F0500F06D0E16DC90625D5204647
:1008B00000F051FC10BDE06D40F40070E065206870
:1008C0000168090716D502F055FD78B12068C068A7
:1008D000800400280ADBE06D20F48070E065E06DA4
:1008E000C00403D4E06D40F00100E065204600F054
:1008F00001FC10BDC0688007EBE7616D496BBDE886
:100900001040084710B5806AC16D41F04001C165D3
:10091000016E41F00401016600F01DFC10BD10B530
:10092000806A00F017FC10BD70B50446006881684D
:100930008268C1F3400112F0010F28D039BB8168F1
:1009400001F00D01012914D18168124A1140891C5E
:10095000816021680320086001F038FA054612E042
:1009600001F034FA401B02280DD920688068C007C6
:1009700009D0E06D40F01000E065206E40F001000D
:100980002066012070BD20688068C007E8D1002083
:1009900070BD0000C0FFFF7FF8B504460020009046
:1009A0002068816811F0010F4AD18168254A1142FF
:1009B00037D18168D5432940491C81602068B0F156
:1009C000A04F02D02049884201D1204800E02048B1
:1009D000806800F0E07000020DD51E481E490068D6
:1009E000B0FBF1F0401C00EB4000800000E0401E36
:1009F00000900028FBD101F0E9F906461BE0816870
:100A000011F0010F03D181682940491C816001F078
:100A1000DDF9801B02280ED920680068C043C0079A
:100A200009D0E06D40F01000E065206E40F001005C
:100A300020660120F8BD20680168C943C907DED1DE
:100A40000020F8BD3F00008000010050000300506E
:100A50000007005018000020400D0300FEE70000D2
:100A6000014800F070BF0000D0290020014800F0CC
:100A70006ABF0000442A00200D4902688A4201D260
:100A80000C4901E00B492031D2B21423083AB2FBE1
:100A9000F3F2436C02F01F0223F003031944816454
:100AA00004498031C1640121914001657047000013
:100AB00008040240000802400179074A02EB810263
:100AC0004265054A4432491E826501F01F02012138
:100AD0009140C16570470000FC08024030B5D0E984
:100AE00013456560446D14B1D0E91645656090F812
:100AF000444004F01F050124AC40056C6C600468A0
:100B000063608368102B036803D099600068C2603B
:100B100030BD9A600068C16030BD70474FF400502E
:100B200001F01AB872B6FEE72DE9F04F044690F8CE
:100B300058009BB00F464FF0000B012812D0012047
:100B400084F8580000261796189620684FF0A048A1
:100B5000DFF81C91DFF81CA1474D404506D128461F
:100B6000009508E002201BB0BDE8F08F48450AD18F
:100B70005046CDF800A002F0F9FB0090206802F08A
:100B8000F5FB40B109E0E06D40F02000E06584F83D
:100B900058600120E7E7009850B1E06D40F0200078
:100BA000E0654FF0010B00BF84F858605846DAE763
:100BB00020684146884201D0A84201D12F4800E078
:100BC0002F48D7F800C02F4B40F61F72BCF1000F22
:100BD0002DD0D0F808C094F838802CF4604C4CEA42
:100BE000483CD7F804804CEA080CC0F808C0D4F898
:100BF00000C08C4501D0AC4504D18968AB6801F0D8
:100C0000010109E0D9F80810DAF8085001F00101F3
:100C100005F001059B68294303F001031943C3D183
:100C2000BB68396819438368934319431DE087689B
:100C300027F46047876027688F4201D0AF4204D114
:100C40008968AB6801F0010109E0D9F80810DAF809
:100C5000085001F0010105F001059B68294303F0EC
:100C600001031943A0D18168914381609CE7000092
:100C70000004005000050050000100500003005027
:100C800000070050000600502DE9F84F00270446E9
:100C9000009790F85800DFF81C840D46B9460128EB
:100CA00011D0012684F85860206802F05BFB60B127
:100CB000E06D40F02000E0655FF0010784F8589097
:100CC0003846BDE8F88F0220FBE7D5E900210C2368
:100CD000206803EA91131844036B01F01F014FF0E1
:100CE0001F0C0CFA01FCC2F3846223EA0C038A4055
:100CF00013430363206802F035FB8246206802F04C
:100D00002DFB5AEA00003CD1AA6829682068B2F19C
:100D1000004F37D002F036FB2068416921F00041D6
:100D2000416120686969C268C2F3C1025200914002
:100D30002A69042A31D000EB82002B68026EDFF8AA
:100D400078C303F0F84302EA0C020B431A4342F063
:100D50000041016622682869A96902EB8000026EE1
:100D600022F080720A430266297F226828690129DD
:100D700010D0002102EB8000026E22F000720A43C4
:100D800002667DE0002202F0FDFA2068416941F030
:100D90000041C5E74FF00071ECE7002102F0D8FAFE
:100DA000400320684FF0000172D002F0D1FA90FAAF
:100DB000A0F0B0FA80F1286842036ED090FAA0F05B
:100DC000B0FA80F0814204D100221146206802F07E
:100DD000E8FA0121206802F0BBFA400320684FF0D6
:100DE00001015DD002F0B4FA90FAA0F0B0FA80F1FF
:100DF0002868420359D090FAA0F0B0FA80F08142FE
:100E000004D100220121206802F0CBFA02212068DF
:100E100002F09EFA400320684FF0020148D002F031
:100E200097FA90FAA0F0B0FA80F12868420344D013
:100E300090FAA0F0B0FA80F0814204D100220221A1
:100E4000206802F0AEFA0321206802F081FA400324
:100E500020684FF0030133D002F07AFA90FAA0F044
:100E6000B0FA80F1286842032FD090FAA0F0B0FACF
:100E700080F0814204D100220321206802F091FA1F
:100E80002068816811F0010F22D0ACE000E004E09E
:100E900002F05EFAC0F384618DE7C0F3846091E7ED
:100EA00002F056FAC0F38461A2E7C0F38460A6E7BB
:100EB00002F04EFAC0F38461B7E7C0F38460BBE789
:100EC00002F046FAC0F38461CCE7C0F38460D0E757
:100ED0002A7B296850F8B03FC1F3120C23EA0C03B7
:100EE00002F0180C754A22FA0CF20A401343036010
:100EF000E968414577D1286841031CD090FAA0F1F8
:100F0000B1FA81F1491C01F01F0109294FEA403172
:100F100032D8002912D000BF90FAA0F1B1FA81F1C5
:100F200001F1010101F01F0106FA01F609D100BF2C
:100F3000C0F3846109E0C0F38461E3E7C0F3846136
:100F4000EEE790FAA0F1B1FA81F101F1010101F0AF
:100F50001F0146EA816102D1C0F3846003E090FA88
:100F6000A0F0B0FA80F000F1010000F01F0000EBEB
:100F7000400041EA005132E000290ED090FAA0F181
:100F8000B1FA81F101F1010101F01F0106FA01F648
:100F900006D100BFC0F3846106E0C0F38461F1E7CD
:100FA00090FAA0F1B1FA81F101F1010101F01F0104
:100FB00046EA816102D1C0F3846003E090FAA0F0B8
:100FC000B0FA80F000F1010000F01F003C4A00EB95
:100FD000400002EB005041EA000141F00071AA68B4
:100FE000206802F0CFF937482B6803423FF466AE21
:100FF00021684FF0A04C3448344E354D614501D046
:10100000A94201D1024600E032469268DFF8C4806E
:1010100002F0E072434503D0DFF8BC80434521D1A4
:101020005FEA02281ED4614506D02C4B99427FF41A
:1010300045AEA94200D0304642F40001826822F059
:10104000E0720A438260264826490068B0FBF1F04E
:10105000401C00EB4000800000E0401E0090002893
:10106000FBD12BE6DFF8808043450FD15FEAC21841
:101070000CD4A94202D11D4B9942F2D0614502D055
:10108000A94200D0304642F080710CE0DFF8608069
:101090004345E6D15302E4D4A942E2D0614500D0F1
:1010A000304642F48001826822F0E0720A43826096
:1010B00004E6000000007F4000F0FF03FFFF070090
:1010C000000020FE000008800003005000070050D0
:1010D00000010050000021C31000C0900006005025
:1010E00018000020400D0300000052C7000500500A
:1010F000000084CB134910B5884222D1124849F62A
:10110000404201238168491C816091420DD8C90782
:101110004FF47A7202D0C3700C4901E00C4983701D
:10112000BDE81040074800F085B90178002908D1D2
:101130004370044800F014FABDE81040014800F084
:101140000FBA10BD642900200000002054020020C6
:10115000240A002070477047F8B54FF000050400DE
:101160002E46009502D0E06D10B107E00120F8BDD9
:10117000204600F009F9266684F8586020688168E6
:10118000C1F3407119B18168734A114081602068D0
:101190008168C1F3007189B98168704A114041F0DA
:1011A000805181606E486F490068B0FBF1F04000EB
:1011B000801C00E0401E00900028FBD12068816860
:1011C000C1F3007141B9E16D41F01001E165216E9B
:1011D00041F001012166012502F0C4F8E16DC90664
:1011E00000D430B1E06D40F01000E06501252846E4
:1011F000F8BDE06D20F4807040F00200E0652068EA
:10120000816811F0010F27D14FF0A043564A984250
:1012100001D0904204D19968966801F001010AE07A
:1012200052498968524E01F00101B66806F0010684
:101230003143504EB66806F0010631430CD1984256
:1012400001D0904201D14C4800E04C48616882686E
:1012500022F47C120A438260E168E06B627F0843FB
:10126000A16841EA4231084394F8241040EA014061
:10127000012904D1218D424A02EB41410843E16A30
:1012800029B101F47871226B014342EA010022681E
:10129000D1683C4B19400143D16020680169626B01
:1012A00021F0406111430161206802F057F870BBE2
:1012B000207F94F838102268800340EA4100D1680A
:1012C00044F2020399430143D16020690028206859
:1012D00001690AD041F480310161206850F8C01FD3
:1012E00022696FF30D01114307E021F480310161A0
:1012F000206850F8C01F6FF30D01016094F84000A2
:1013000001280CD02068016921F0010101616069A8
:1013100001282068016B21F00F0111D013E0D4E9FE
:1013200011010843D4E913121143084321680A69E3
:1013300040F2FC739A43104340F001000861E6E775
:10134000226A521E11430163E06D20F0020040F05A
:101350000100E0654BE70000C0FFFF5FC0FFFF7FBB
:1013600018000020400D0300000100500004005050
:101370000005005000060050000300500007005018
:101380000000FEFF0740F0FF70B59CB00546142139
:1013900015A8FFF725F954216846FFF721F92868B9
:1013A000B0F1A04F3ED14FF4004000908003119067
:1013B000684600F009FE08B1FFF7B4FB1A49C86C93
:1013C00040F40050C864C86C00F400501A90C86C17
:1013D00040F00100C864C86C002600F001001A90BB
:1013E000012015900320CDE9160615A94FF0904075
:1013F00000F0BEFB0E4C0D4820600520C4E901063C
:101400008020C4E90360400060618000A06120206A
:10141000C4E90706204600F0F3FA08B1FFF782FBA3
:101420006C65A5621CB070BD00100240080002404F
:10143000D02900202DE9F047044600684FF0A0486D
:101440003D4F91468A46404501D0B84201D13B49C3
:1014500000E03B49896801F01F0501F083FF002887
:1014600068D194F85800012864D0012084F858000D
:1014700034492068884201D1012000E00020401E4C
:1014800028424FF0000605D0052D03D0092D01D0CC
:10149000012003E02046FFF77FFA18B184F8586076
:1014A000BDE8F087E06D40F60161884340F480704C
:1014B000E0652068B84201D1414605E022498842F2
:1014C00001D1224900E00146814200D01DB9E06D02
:1014D00020F48010E065E06DC00404D5206E20F09B
:1014E0000600206600E02666616D1948C862616DDD
:1014F00018480863616D1848486321681C2008601B
:1015000084F858602068416841F01001416020680B
:10151000C16841F00101C16021684B46524640312B
:10152000606D00F0CDFA21688A680C4B1A40121DDC
:101530008A60B5E70220B3E70001005000030050C5
:101540000007005000060050000500500004005045
:101550009D0800081F09000805090008C0FFFF7F5B
:1015600070B5044690F85800012809D0012084F88D
:10157000580003212046FFF71FF9050002D027E09D
:10158000022070BD2068C16821F00101C160606D5A
:1015900090F82510022907D100F064F9050003D066
:1015A000E06D40F04000E0652068416821F01001E6
:1015B0004160204615B1FFF7B7F909E0FFF7B4F92C
:1015C000050005D1E06D20F4885040F00100E06591
:1015D000002084F85800284670BD00002DE9F0472F
:1015E00090460D4604004FF0000A0FD075B16079A7
:1015F00001280ED04FF0010984F8059002202071D7
:10160000A96808F01006042905D04AE00120BDE8C9
:10161000F0870220FBE700F0D9FB07465FEA0800ED
:101620004FF0030809D022E000F0D0FBC01B0128D6
:1016300003D92068406B000411D42068406B00047B
:10164000F2D42168686A086418E000BF00F0BEFBAD
:10165000C01B01280BD92068406B002807DA2069DD
:1016600040F00800206184F804800320CFE7206860
:10167000406B0028EADB2168686A48642068816C56
:1016800040F2FF32B2409143AA6AB24011438164F2
:101690002068C16CFF22B2409143EA6AB240114314
:1016A000C164E869012808D12268916B1F20B0400D
:1016B0008143286AB040084390632068C06B0721CB
:1016C000B1408843A969012903D0022957D069692B
:1016D000F1B300216B69AA681A430A434FF4807181
:1016E00001FA06F398432B79012B00D00021114316
:1016F0004FF4007202FA06F398436B79012B00D085
:10170000002220F44047286842EA0108022838D025
:1017100057EA0007216808FA06F03843C8632068D2
:1017200001684FF48042B240914301602268116821
:1017300040F6FE70B0408143E868B0400843106056
:1017400020680168C022B24091430160287B00E01C
:1017500015E0297CC0F3830001F03C0140EA8110D0
:1017600021680A6E40F60F73B3409A43B0400243BB
:101770000A6684F8049000206071504647E7012112
:10178000A8E700F08FFE0649884202D947F40047D7
:10179000C0E704498842BDD947F48047BAE7000052
:1017A0000068890900B4C40470B5040003D020792E
:1017B000002510B105E0012070BD6571204600F0E4
:1017C00007F802202071256101202071002070BDE2
:1017D000F0B587B0054614216846FEF701FF1D49A4
:1017E0002868884233D11C49C86C40F48030C864F2
:1017F000C86C00F480300590C86C40F00100C864EB
:10180000C86C102700F00100009705900320002607
:10181000CDE9010669464FF0904000F0A9F9104C5F
:101820000E4820600620C4E901078020C4E9036057
:10183000800060614000A0612020C4E907062046C6
:1018400000F0DEF808B1FFF76DF9AC60A56207B0F3
:10185000F0BD000000080050001002401C000240D3
:10186000442A002010B590F8253000210122022BD7
:1018700003D00421C163012122E003681C6824F025
:101880000E041C60836C1C6824F480741C60036864
:101890001C6824F001041C6090F84430046C03F0D0
:1018A0001F0302FA03F36360D0E913345C60436DF5
:1018B00033B11C6824F480741C60D0E916345C6079
:1018C00080F82520002280F82420084610BD70B53D
:1018D00090F82520002401212346022A07D0042263
:1018E000C26380F8251080F82430012429E00268C2
:1018F000156825F00E0515600268156825F00105CC
:101900001560826C156825F48075156090F8442088
:10191000056C02F01F0201FA02F26A60D0E9132599
:101920005560426D32B1156825F480751560D0E9B7
:101930001625556080F8251080F82430816B01B1A0
:101940008847204670BDF0B4016C0C6801680D68D2
:1019500090F8442002F01F06042202FA06F3234204
:1019600011D06B070FD50B689B0603D40B6823F0CF
:1019700004030B6090F8441001F01F018A40016CD1
:101980004A60016B1DE0022303FA06F727424FF07D
:10199000000C4FF0010218D0AF0716D50C68A40652
:1019A00005D40C6824F00A040C6080F8252090F817
:1019B000441001F01F018B40016C4B6080F824C083
:1019C000C16A00291AD0F0BC08470823B34023425B
:1019D00014D02B0712D50B6823F00E030B6090F880
:1019E0004410036C01F01F0102FA01F15960C26357
:1019F00080F8252080F824C0416BE2E7F0BC7047F6
:101A000070B504000CD02B4A21681420914209D2F1
:101A1000294A0A44B2FBF0F08000606427480AE0DB
:101A2000012070BD234A52420A44B2FBF0F080000C
:101A30006064204808382064022084F825000A6881
:101A400047F6F0708243D4E902031843D4E9043521
:101A50002B431843A3691843E3691843236A1843C7
:101A6000104308602046FFF707F8A0680025B0F58E
:101A7000804F00D16560A16C20790860D4E9130122
:101A800041606068401E032808D82046FFF714F81C
:101A9000606D0560D4E91601416002E06565A565E9
:101AA000E565E563012084F8250084F824500020D2
:101AB00070BD000008040240F8FFFDBF00000240B6
:101AC00070B5044690F82400002501280CD00120B0
:101AD00084F8240094F825600020012E06D084F8B4
:101AE00024000225284670BD022070BD022684F81D
:101AF0002560E0632068066826F00106066020463F
:101B0000FEF7ECFF206B00282068016802D041F04E
:101B10000E0106E021F0040101602068016841F037
:101B20000A010160A06C0168C90303D5016841F492
:101B300080710160606D18B1016841F480710160CD
:101B40002068016841F001010160CBE701490120F3
:101B50000870704700000020044910B50A6802426E
:101B600002D00860FFF7F2FF10BD0000140401402E
:101B70002DE9F04FDFF82092002301260324A9F17C
:101B8000040B85B00F2709F1040AABF1040EFAE04B
:101B900006FA03F52A407CD091F804C00CF0030C3F
:101BA000BCF1010F02D0BCF1020F26D1D0F808C061
:101BB000CDF800C04FEA430C04FA0CF8CDF810C081
:101BC000DDF800C02CEA080CCDF800C0D1F80C807C
:101BD000DDF810C008FA0CF8DDF800C048EA0C087F
:101BE000C0F80880D0F804C02CEA050C0D79C5F3C4
:101BF00000159D4045EA0C0545600D79ED43AD07A4
:101C00000ED0C5684FEA430804FA08FC25EA0C0523
:101C1000D1F808C00CFA08FC4CEA050CC0F80CC05E
:101C20000D7905F00305022D16D1DD0800EB850CBA
:101C3000CDF808C0DCF820805D074FEAD56C07FAC4
:101C40000CF528EA05080D6905FA0CF5DDF808C061
:101C500045EA0805CCF8205005684FEA430CCDF85A
:101C600008C004FA0CFC25EA0C0591F804C00CF03D
:101C70000308DDF808C008FA0CF848EA0508C0F8BF
:101C800000804D6815F4403F7CD0444DD5F860C0CD
:101C900000E077E04CF0010CC5F860C02D6E23F039
:101CA000030C05F0010500953D4D65440295AD68B6
:101CB0004FEA837C4FEA1C7807FA08FC25EA0C05FA
:101CC000B0F1904F06D0DFF8DCC0604505D14FF091
:101CD000010C20E04FF0000C1DE0DFF8CCC06045A7
:101CE00002D14FF0020C16E0DFF8C0C0604502D10F
:101CF0004FF0030C0FE0DFF8B8C0604502D14FF0A1
:101D0000040C08E0DFF8ACC0604502D14FF0050CD0
:101D100001E04FF0060C0CFA08FC4CEA050C029DA1
:101D2000C5F808C0D9F80050CC46D1F804809543D6
:101D30005FEAC82800D51543CCF80050DAF8005007
:101D4000D446D1F8048095435FEA882800D515432E
:101D5000CCF80050DBF80050DC46D1F80480954305
:101D60005FEA883800D51543CCF80050DEF8005003
:101D7000F446D1F8048095435FEAC83800D515438E
:101D8000CCF800505B1C0A6832FA03F57FF400AF10
:101D900005B0BDE8F08F00000804014000100240CB
:101DA000000001400004004800080048000C004802
:101DB00000100048001400480069084000D00120CD
:101DC00070470AB18161704781627047014880683D
:101DD000704700000C0000200248816842681144EE
:101DE000816070470C00002010B50024032000F033
:101DF00073F8002000F008F808B1012401E000F0B9
:101E000025F8204610BD000070B50E4E0546002492
:101E1000706898B14FF47A71B1FBF0F00A49096823
:101E2000B1FBF0F000F0AEFD40B9102D06D200225B
:101E30002946501E00F030F8356000E001242046AD
:101E400070BD00000C000020180000200A4882B07D
:101E5000016E41F001010166016E01F00101009186
:101E6000816D41F080518165806D00F0805000905F
:101E700002B000F0A1B8000000100240002809DB09
:101E800000F01F02012191404009800000F1E02094
:101E9000C0F8001170470000F0B40E4B1B680C46F0
:101EA000C3F30223C3F10705042D00D90425191D2E
:101EB000072901D2002300E0DB1E012606FA05F106
:101EC000491E214099409E40761E16403143F0BC89
:101ED00002F041B80CED00E0064900F00702086886
:101EE0004FF6FF03184040EA0220034A10430860FF
:101EF000704700000CED00E00000FA052B492C4B68
:101F00000A6832214A432B4940B1B0F5007F086886
:101F100029D020F4C06040F480602CE00868C0F351
:101F20004120022804D051F8800F20F4807022E074
:101F3000D1F8800020F48070C1F88000086820F497
:101F4000C06040F400700860B2FBF3F0401C00E099
:101F5000401E4A69520501D50028F9D1486940055B
:101F60000AD503207047C0F34120022806D051F85B
:101F7000800F40F48070086000207047D1F8800026
:101F800040F48070C1F88000086820F4C06040F41C
:101F900000700860B2FBF3F0401C00E0401E4A698C
:101FA0005205DBD50028F9D1D8E700001800002041
:101FB00040420F00007000400248816841F48041B7
:101FC00081607047007000402DE9F84304460068C6
:101FD0000026BB4D00035ED5A86D0027C00008D4C5
:101FE000A86D40F08050A865A86D012700F08050D2
:101FF0000090DFF8D092D9F8001041F48071C9F850
:102000000010FFF7E3FE804606E000BFFFF7DEFEAC
:10201000A0EB080002282BD8D9F80000C005F5D5A0
:10202000D5F8900010F4407014D0216D814211D089
:10203000D5F89000D5F8901020F4407041F480312C
:10204000C5F89010D5F8901021F48031C5F89010A3
:10205000C5F89000C00711D0FFF7B8FE804641F2E6
:10206000883907E0FFF7B2FEA0EB0801494501D926
:1020700003260BE0D5F890008007F3D5D5F8900043
:10208000216D20F440700843C5F890001FB1A86D81
:1020900020F08050A8652078C00707D0D5F88800C8
:1020A000616820F003000843C5F8880020788007A5
:1020B00007D5D5F88800A16820F00C000843C5F8C2
:1020C00088002078400707D5D5F88800E16820F01F
:1020D00030000843C5F888002078000707D5D5F8F8
:1020E0008800216920F0C0000843C5F888002078E6
:1020F000C00607D5D5F88800616920F44070084310
:10210000C5F888002078800607D5D5F88800A16931
:1021100020F440600843C5F888002078400607D5C1
:10212000D5F88800E16920F440500843C5F88800DC
:102130002078000607D5D5F88800216A20F44040B1
:102140000843C5F888002088C00507D5D5F8880061
:10215000616A20F440300843C5F888002068800395
:1021600007D5D5F89C00A16A20F003000843C5F804
:102170009C002088800507D5D5F88800E16A20F406
:1021800040200843C5F88800208840050FD5D5F8C1
:102190008800216B20F440100843C5F88800206BAC
:1021A000B0F5801F03D1E86840F48010E860208813
:1021B00000050FD5D5F88800616B20F44000084376
:1021C000C5F88800606BB0F5800F03D1E86840F473
:1021D0008010E8602088C0040FD5D5F88800A16B76
:1021E00020F040700843C5F88800A06BB0F1807FF4
:1021F00003D1E86840F48010E86020884FF0006167
:1022000080040ED5D5F88800E26B20F040601043C2
:10221000C5F88800E06B884203D1E86840F480107C
:10222000E860208840040ED5D5F88800226C20F0A4
:1022300040601043C5F88800206C884203D1E868EC
:1022400040F48010E860208800040FD5D5F888009D
:10225000616C20F040500843C5F88800606CB0F114
:10226000805F03D1E86840F48030E8602068C003F4
:102270000FD5D5F88800A16C20F040400843C5F880
:102280008800A06CB0F1804F03D1E86840F4803042
:10229000E860206840030FD5D5F89C00E16C20F47D
:1022A00040100843C5F89C00E06CB0F5001F03D156
:1022B000E86840F48010E8603046BDE8F88300002C
:1022C00000100240007000402DE9F0470E46050066
:1022D0004FF0000725D0DFF8AC81D8F8000000F0FF
:1022E0000F00B0420CD2D8F8001021F00F0131439A
:1022F000C8F80010D8F8000000F00F00B04210D16C
:102300002968614CC80741F2883A5AD06868DFF8FA
:102310007C91032808D0022820682DD04005002891
:102320002CDB0120BDE8F08720688001F9D5E0684A
:1023300000F00302E068C0F30310401C032A19D028
:10234000534A00BFB2FBF0F0E268C2F306225043EA
:10235000E268C2F34162521C5200B0FBF2F0484501
:1023600017D9A06810F0F00F0CD0880711D5A86815
:1023700040B10EE0474AE5E78003D0E700F0BCF843
:10238000484506D9A06820F0F00040F08000A06029
:102390008027A068696820F003000843A060FFF769
:1023A00015FD814606E000BFFFF710FDA0EB090117
:1023B00051453AD8A068696800F00C00B0EB810F75
:1023C000F2D12868810714D5400703D5A06840F4EE
:1023D000E060A0602878000705D5A06820F4605070
:1023E00040F4E060A060A068A96820F0F000084315
:1023F00004E0802F03D1A06820F0F000A060D8F89E
:102400000010404601F00F01B14216D9016821F0D9
:102410000F0131430160FFF7D9FC074607E000BF19
:10242000FFF7D4FCC11B514501D903207AE7D8F846
:10243000000000F00F00B042F2D12878400705D527
:10244000A068E96820F4E0600843A06028780007ED
:1024500006D5A068296920F4605040EAC100A06058
:1024600000F04AF8A1680C4AC1F30311515C01F075
:102470001F01C8400949086009480068BDE8F047E5
:10248000FFF7C2BC002002400010024000B4C404A8
:102490000024F40000366E014E41000818000020B0
:1024A0000C00002001480068704700001800002060
:1024B0000548064900688968054AC1F30221515C54
:1024C00001F01F01C84070471800002000100240B2
:1024D0005E4100080548064900688968054AC1F35D
:1024E000C221515C01F01F01C84070471800002054
:1024F000001002405E410008184910B58868C0F31A
:1025000081021748012A0BD08A68164BC2F3810258
:10251000022A06D08A68C2F38102032A03D000206F
:1025200010BD184610BDCA6802F00304CA68C2F3A1
:102530000312521C032C02D0B0FBF2F001E0B3FBFB
:10254000F2F0CA68C968C2F306225043C1F3416180
:10255000491C4900B0FBF1F010BD00000010024022
:102560000024F40000366E012DE9F84304007AD00F
:102570002078F84DC00747D0A868E96800F00C0043
:1025800001F003010C2802D0082817D001E003292C
:1025900014D06068B0F5803F17D0B0F5A02F286840
:1025A00017D020F480302860286820F4802028602C
:1025B0006068E0B1FFF70AFC064614E02868800373
:1025C00022D560680028D2D01EE0286840F4803010
:1025D000EDE740F480202860F7E700BFFFF7F6FB47
:1025E000801B642870D828688003F7D50CE0FFF7BB
:1025F000EDFB064605E000BFFFF7E8FB801B642803
:10260000F0D828688003F7D4207880074CD5A868D4
:10261000E96800F00C0001F003010C2802D0042846
:102620000DD001E002290AD0E068002828682BD0EC
:1026300040F480702860FFF7C9FB064619E028685F
:10264000400502D5E068002891D06868217C20F020
:10265000FE4040EA01606860BF480068FFF7D4FBB5
:10266000002800D120E072E1FFF7B0FB801B0228B8
:10267000B8D828684005F7D56868217C20F0FE406E
:1026800040EA016068600FE020F480702860FFF786
:102690009DFB064605E000BFFFF798FB801B022864
:1026A000A0D828684005F7D42078000729D56069AC
:1026B0000028D5F8940013D040F00100C5F894002C
:1026C000FFF784FB064606E090E000BFFFF77EFBC5
:1026D000801B022886D8D5F894008007F6D510E034
:1026E00020F00100C5F89400FFF770FB064604E0F7
:1026F000FFF76CFB801B022878D8D5F89400800780
:10270000F6D42078400761D5A86D0026C00008D413
:10271000A86D40F08050A865A86D012600F080509B
:1027200000908E480168C90511D40168804641F4C3
:1027300080710160FFF74AFB074604E0FFF746FBA4
:10274000C01B022852D8D8F80000C005F6D5A068F2
:10275000012815D00528D5F8900016D020F00100EA
:10276000C5F89000D5F8900020F00400C5F890005E
:10277000A06841F28838B8B1FFF728FB07460EE0A1
:10278000D5F8900040F00100F0E740F00400C5F8F3
:102790009000F5E7FFF71AFBC11B414526D8D5F895
:1027A00090008007F6D50CE0FFF710FB074604E029
:1027B000FFF70CFBC11B414518D8D5F890008007E6
:1027C000F6D41EB1A86D20F08050A8652078800650
:1027D00029D5A0690028D5F8980013D040F0010051
:1027E000C5F89800FFF7F2FA064606E075E000BF6C
:1027F000FFF7ECFA801B02286FD8D5F89800800705
:10280000F6D510E020F00100C5F89800FFF7DEFAD9
:10281000064604E0FFF7DAFA801B02285DD8D5F8F7
:1028200098008007F6D4E069F0B3A968C1F381018C
:1028300003295DD00228286820F08070286003D02A
:10284000FFF7C4FA04464BE0FFF7C0FA064604E07F
:10285000FFF7BCFA801B02283FD828688001F7D414
:10286000F4E908016FF00F0202EB01110843218A1D
:102870005204490802EB4151A26841EA022108438F
:10288000217D4FF07E42490802EB41610843217BE4
:1028900040EAC160E968324A11400843E8602868AC
:1028A00040F08070286000E05EE0E86840F08070F2
:1028B000E860FFF78BFA044605E000BFFFF786FAF1
:1028C000001B022809D828688001F7D54CE000BF1A
:1028D000FFF77CFA001B022802D90320BDE8F88329
:1028E00028688001F4D4E8681E490840E8603BE0AD
:1028F0000128F3D0E868226A00F00301914226D152
:10290000616A00F0F0020901103991421FD1A26AF8
:1029100000F4FE41B1EB022F19D194F82C2000F005
:102920007841B1EBC26F12D1218E00F4C002490888
:102930004905A1F50011914209D194F8341000F035
:10294000C06049084906A1F1007181420CD0012004
:10295000C4E70000001002400C000020007000409E
:102960000C809F01FCFFEEFE0020B7E74FF0E02156
:102970000428086903D020F004000861704740F083
:102980000400FAE710B5401EB0F1807F01D30120AA
:1029900010BD4FF0E02460610F21601701F0DBFAF9
:1029A0000020A06107202061002010BDF0B590F844
:1029B0003C20012A43D0012580F83C50022280F8B7
:1029C0003D2003685A689C681E4E1F4FDFF87CC08C
:1029D000B34203D0BB4201D0634504D122F4700E50
:1029E0004A6842EA0E02DFF868E002EA0E02D1F815
:1029F00000E04EEA020EC3F804E00268B24212D0D0
:102A0000B2F1804F0FD0134B9A420CD0124B9A4226
:102A100009D0124B9A4206D0BA4204D0104B9A42C7
:102A200001D0624504D1896824F080031943916084
:102A300080F83D50002180F83C100846F0BD02208F
:102A4000F0BD0000002C0140003401400050014066
:102A50008FFFFFFD0004004000080040000C004014
:102A60000040014010B5040003D094F83D0010B1BF
:102A700007E0012010BD002084F83C00204600F053
:102A800023F8022084F83D00211D206800F0FEFE9E
:102A9000012084F8480084F83E0084F83F0084F860
:102AA000400084F8410084F8420084F8430084F830
:102AB000440084F8450084F8460084F8470084F810
:102AC0003D00002010BD000008B50C4A01680C480C
:102AD000914207D1816D41F002018165806D00F066
:102AE000020009E0074A914207D1816D41F01001CF
:102AF0008165806D00F01000009008BD000400406A
:102B0000001002400010004090F83D10012901D053
:102B100001207047022180F83D1000681249884268
:102B200014D0B0F1804F11D0104988420ED0104916
:102B300088420BD00F49884208D00F49884205D0FF
:102B40000E49884202D00E49884207D181680D4A59
:102B50001140062906D0B1F5803F03D0016841F04D
:102B60000101016000207047002C0140000400407A
:102B700000080040000C00400034014000400140CB
:102B8000005001400700010070B5044690F83C0079
:102B9000002501281CD0012684F83C60022084F81E
:102BA0003D0022689068334B184020F47F409060CD
:102BB0000868B0F5005F2ED016DC402849D009DC4B
:102BC000D0B1102818D0202816D0302849D113E0D1
:102BD000022070BD50282AD0602830D070280FD035
:102BE000B0F5805F3DD13DE010F00F0F39D10111FC
:102BF000A1F58031072934D822680146104625E026
:102C0000CB68D1E90121206800F0B2FE206881681C
:102C100041F0770109E0CB68D1E90121206800F09B
:102C2000A7FE2068816841F4804181601AE0CA688B
:102C30004968206800F0B0FE5021206806E0CA68AC
:102C40004968206800F0B9FE6021206800F09AFE13
:102C500008E0CA684968206800F09EFE40212068AC
:102C6000F4E7012584F83D60002084F83C00284604
:102C700070BD000088FFCEFF90F88410012918D0A5
:102C8000012180F884102421C0F8881001680A68A6
:102C90000B6823F001030B6022F000510022426612
:102CA000036819602021C0F8881080F8842010463D
:102CB0007047022070477047704770B5044690F81F
:102CC000840001281DD0012084F884002420C4F849
:102CD000880020680568026822F00102026020680E
:102CE000826822F060620A438260204600F078FE2B
:102CF000206805602020C4F88800002084F8840043
:102D000070BD022070BD70B5044690F884000128A3
:102D10001DD0012084F884002420C4F88800206895
:102D20000568026822F0010202602068826822F0D1
:102D300060420A438260204600F052FE206805602F
:102D40002020C4F88800002084F8840070BD022090
:102D500070BD7047704770472DE9F0410368044625
:102D6000D86919689A6840F60F0528424FF00005A7
:102D70004FF002060AD187067ED501F0200702F047
:102D8000805C57EA0C0777D0616F42E1B64FDFF8FD
:102D9000DCC2174001EA0C0C57EA0C0C6CD05FEA5D
:102DA000C07C0CD05FEAC15C09D54FF0010CC3F8C0
:102DB00020C0D4F8903043F00103C4F8903083076A
:102DC00009D5D30707D023681E62D4F8903043F0AA
:102DD0000403C4F8903043070AD5D30708D0266807
:102DE00004233362D4F8903043F00203C4F89030E7
:102DF00003070CD501F020033B4308D026680823C5
:102E00003362D4F8903043F00803C4F890300305DF
:102E10000BD54B0109D526684FF400633362D4F813
:102E2000903043F02003C4F89030D4F89030002B59
:102E30003DD0800609D501F0200002F08051084302
:102E400003D0616F09B120468847D4F8900021680B
:102E50008968490602D410F0280F2AD0204600F0D5
:102E6000A3FE2068806840061ED52068083050E820
:102E7000001F21F0400100E021E040E80012002A9C
:102E8000F3D1D4F8800078B179498163D4F8800017
:102E9000FEF71DFD00280AD0D4F88000816B00E009
:102EA0002046BDE8F04108472046FFF754FFBDE843
:102EB000F0812046FFF74FFFC4F89050F7E7D4F8B1
:102EC0006CC02027BCF1010F7ED15FEAC06C7BD5BE
:102ED0005FEAC16C78D510201862206880684006CF
:102EE00051D5D4F880100A6850680004000C3ED018
:102EF000B4F85C3083423AD9A4F85E0008680068F0
:102F000080062CD4216851E8000F20F4807041E83D
:102F10000002002AF6D12068083050E8001F21F096
:102F2000010140E80012002AF5D12068083050E87D
:102F3000001F21F0400140E80012002AF5D1C4F83A
:102F40008C70E566216851E8000F20F0100041E820
:102F50000002002AF6D1D4F88000FEF783FC266731
:102F6000B4F85C00B4F85E10401A81B207E0B4F81F
:102F70005C1081429BD11068800698D52667204658
:102F8000FFF799FE93E7B4F85C00B4F85E10401ABE
:102F900081B2B4F85E00002889D0002987D0226869
:102FA00052E8000F20F4907042E80003002BF6D1A5
:102FB0002D4BDB432068083050E8002F1A4040E8D2
:102FC000002CBCF1000F00E00EE0F3D1C4F88C70CF
:102FD000E5666567206850E8002F22F0100240E89F
:102FE0000023002BF6D1C9E7C60209D5560207D542
:102FF0004FF4801018622046BDE8F041FFF7AABEEA
:1030000003060AD501F0800302F40002134304D042
:10301000A16F00297FF444AF49E7420611D54A0663
:103020000FD52046016851E8002F22F0400241E808
:103030000023002BF6D1C0F88870856700F096F861
:1030400035E7020206D54A0004D52046BDE8F04126
:10305000FFF77FBEC00195D5002993DA2046BDE871
:10306000F041FFF729BE000001000010200100041C
:10307000993B000810B5040003D0D4F8880010B1C3
:1030800007E0012010BD002084F88400204600F0F5
:1030900027F82420C4F888002068016821F0010185
:1030A0000160A06A10B1204600F0BCFC204600F090
:1030B000A5FD0128E6D02068416821F490414160D7
:1030C0002068816821F02A0181602068016841F050
:1030D000010101602046BDE8104000F007BD00007E
:1030E00010B59CB00446142115A8FDF779FA5421B7
:1030F0006846FDF775FA1A49206888422ED10120EA
:103100000024CDE900046846FEF75EFF08B1FDF734
:1031100009FD1448016E41F480410166016E01F41D
:1031200080411A91C16C41F00401C164C06C15A9C1
:1031300000F004001A90302015900220CDE916040A
:103140000720CDE918400848FEF712FD002211467D
:103150002520FEF7A1FE2520FEF790FE1CB010BD35
:103160000038014000100240000800487047FEE7A8
:1031700070B50D46044600F05FF8782000F020F8A6
:1031800000F0B0F8204600F01BF800F0ABF828463D
:1031900000F016F800F0A6F8BDE8704000F076B830
:1031A00010B5064C012211022046FEF70AFE204609
:1031B0000122BDE810405102FEF703BE00040048A2
:1031C0002DE9F0411B4C06462046216821F44021A0
:1031D0002160216841F4802121604FF400770022B2
:1031E0003946FEF7EEFD00254FF48078300601D514
:1031F000012200E0002241462046FEF7E2FD700673
:10320000060E022000F0CEFE012239462046FEF7CF
:10321000D8FD022000F0C6FE002239462046FEF707
:10322000D0FD022000F0BEFE6D1CEDB2082DDDD3F6
:10323000BDE8F0810004004870B5134C206820F40C
:1032400040202060206840F4802020600122150288
:1032500029462046FEF7B5FD01225602314620469A
:10326000FEF7AFFD042000F09DFE00222946204617
:10327000FEF7A7FD042000F095FE31462046BDE88C
:1032800070400022FEF79DBD0004004870B5144C4C
:10329000206820F440202060206840F480202060D6
:1032A0004FF40075002229462046FEF78AFD6E1075
:1032B000002231462046FEF784FD042000F072FE15
:1032C000012229462046FEF77CFD01223146204698
:1032D000FEF777FDBDE87040042000F063BE0000FB
:1032E000000400482DE9F041184C0025206820F426
:1032F00040202060206820600122160231462046CE
:10330000FEF75FFD012000F04DFE01225702394615
:103310002046FEF756FD012000F044FE08E06D1C3B
:10332000EDB2FA2D04D9FFF7B1FF0120BDE8F0811D
:1033300031462046FEF740FD0028F0D100223946F4
:103340002046FEF73EFD0020F0E7000000040048A4
:1033500000EB8100006E00F0F84070478068C0F319
:10336000C00070478068C0F3800070478068C0F379
:1033700080007047C06810F4406F01D00020704793
:1033800001207047042303EAD15310B51844436960
:10339000C1F3045107248C40A3438A401343436183
:1033A00010BD00EB8100016E21F000411143016668
:1033B0007047000030B58BB0002408940994202198
:1033C00068460A94FDF70CF91E484FF0A041042509
:1033D00001604FF44031C0E90114C4600461C0E9E8
:1033E0000545047744770121016280F824404FF4B9
:1033F0009062C2628A02026380F83810C46380F867
:103400004040FDF7A9FE08B1FDF78CFB08A90D4867
:103410000894FDF789FB08B1FDF784FB0A4800908A
:103420000620CDE901047F200594CDE90305694616
:103430000448FDF729FC002801D0FDF773FB0BB011
:1034400030BD0000642900200200300400B58DB0BA
:1034500030216846FDF7C4F8124911480860084653
:10346000FEF7A2F908B1FDF75DFB022000900020F5
:103470001E218DF80400CDE902018DF8050001211F
:103480000490CDE905010246079069460548FEF71C
:10349000A5F8002801D0FDF745FB0DB000BD0000E8
:1034A00000080050302A0020114808B5816C41F016
:1034B00004018164816C01F004010091816C41F090
:1034C00001018164806C002200F00100009011462F
:1034D0000B20FEF7E1FC0B20FEF7D0FC002211468A
:1034E0000C20FEF7D9FCBDE808400C20FEF7C6BC56
:1034F0000010024030B587B014216846FDF770F81F
:103500002448C16C41F00401C164C16C01F00401A4
:103510000591C16C41F02001C164C16C01F0200132
:103520000591C16C41F00101C164C16C01F0010160
:103530000591C16C41F00201C164C06C164D00F0F0
:1035400002004FF440740590002221462846FEF701
:1035500038FC4FF4005000904FF488100190002088
:10356000029069460D48FEF703FB1120CDE90040AB
:10357000012002900320039069462846FEF7F8FADE
:10358000002211462820FEF787FC2820FEF776FC53
:1035900007B030BD00100240000400480008004899
:1035A00010B588B000241748009401940294039445
:1035B000049405941249069401601021C0E9011495
:1035C0000921C0E903148461FFF74CFA08B1FDF743
:1035D000A9FA4FF48050009069460A48FFF7D4FAE0
:1035E00008B1FDF79FFA2020049004A9069405482D
:1035F000FFF7DCF9002801D0FDF794FA08B010BD00
:1036000000040040A42A00203EB500240F48009486
:1036100001940D49029401601021C0E901140921AF
:10362000C16080218161FFF71DFA08B1FDF77AFAC8
:1036300020200090694602940448FFF7B7F900285B
:1036400001D0FDF76FFA3EBD00100040F02A0020C7
:10365000184810B5164901604FF4E131416000216E
:1036600081600C22C160C0E904128161C161016204
:1036700041628162FFF7FEFC08B1FDF753FA0021B9
:103680000C48FFF740FB08B1FDF74CFA0021094850
:10369000FFF713FB08B1FDF745FA0648FFF7ECFA10
:1036A000002803D0BDE81040FDF73CBA10BD000073
:1036B000003801403C2B0020FEE7000009488168EB
:1036C0000968C96989060CD507490A68074B41682A
:1036D0005A54491C4160642903D1002141600121F1
:1036E000017070474402002024380140D02B002094
:1036F000034988600068016841F02001016070475B
:1037000044020020FEE70020AFF3008070B50646BB
:103710005FF0000404F1B000C0B200F014FC00201F
:1037200000F011FC102000F00EFC0025304600F0E7
:103730000EFC6D1CEDB2802DF8D3641CE4B2082C95
:10374000E8D370BD10B5FFF72BFD642000F024FC1A
:10375000AE2000F0F8FB202000F0F5FB102000F078
:10376000F2FBB02000F0EFFBC82000F0ECFB0020E3
:1037700000F0E9FB102000F0E6FB402000F0E3FB46
:10378000812000F0E0FB204C607800F0DCFBA12001
:1037900000F0D9FB207808B1A62000E0A72000F0B7
:1037A000D2FBA82000F0CFFB3F2000F0CCFBA420F0
:1037B00000F0C9FBD32000F0C6FB002000F0C3FBE3
:1037C000D52000F0C0FBF02000F0BDFBD92000F0B8
:1037D000BAFB222000F0B7FBDA2000F0B4FB122085
:1037E00000F0B1FBDB2000F0AEFB202000F0ABFBD3
:1037F0008D2000F0A8FB142000F0A5FBBDE81040D0
:10380000AF2000F0A0BB00001E00002070477047F2
:10381000FEF7E2BA10B594B038216846FCF7E0FE36
:1038200014210EA8FCF7DCFE0020FEF767FB012048
:1038300000900004032406210190CDE908410220F4
:103840005521CDE90A1007900C900D906846FEF7BF
:103850008BFE08B172B6FEE70F20CDE90E04002002
:1038600010901190129004210EA8FEF72DFD002853
:1038700001D072B6FEE714B010BD00000248016826
:1038800041F470010160704788ED00E02DE9F04FD0
:1038900002682E4B2E4E2F4FDFF8BCC02F4C304D00
:1038A0004FF0804B98420BD0584509D0B04207D01A
:1038B000B84205D0604503D0A04201D0A84204D14F
:1038C00022F070084A6842EA0802DFF89880DFF8C0
:1038D0009890DFF898A0984211D058450FD0B04288
:1038E0000DD0B8420BD0604509D0A04207D040456A
:1038F00005D0484503D0504501D0A84203D122F459
:103900004076CA6832434E6922F080023243026038
:103910008A68C2620A688262984209D0A04207D0CF
:10392000404505D0484503D0504501D0A84201D1BB
:1039300009690163012141610169C90703D0016976
:1039400021F001010161BDE8F08F0000002C014071
:103950000004004000080040000C0040003401401A
:103960000050014000400140004401400048014037
:1039700010B5846842EA032224F47F440A432243B8
:10398000826010BD8268034B1A400A4342F007016F
:10399000816070478FFFCFFF10B5036A046A24F07F
:1039A00001040462846924F0F00444EA021423F060
:1039B0000A020A438461026210BD10B5036A046AF8
:1039C00024F010040462846923F0A00324F47044FA
:1039D00044EA023243EA01118261016210BD000033
:1039E00030B5416EB9B1026891689268C1F3426125
:1039F0000B4B520F9C5CE50003F10804A25CB5FB85
:103A0000F2F2A0F86A205A5C615CD200B2FBF1F1DC
:103A1000A0F8681030BD0121A0F86A10F8E7000096
:103A20003E41000890F82810090706D501684A6849
:103A3000836B22F400421A434A6090F82810C907A9
:103A400006D001684A68C36A22F400321A434A6009
:103A500090F82810890706D501684A68036B22F49C
:103A600080321A434A6090F82810490706D5016849
:103A70004A68436B22F480221A434A6090F8281067
:103A8000C90606D501688A68C36B22F480521A43BE
:103A90008A6090F82810890606D501688A68036C48
:103AA00022F400521A438A6090F82810490611D572
:103AB00001684A68436C22F480121A434A60416CE0
:103AC000B1F5801F06D101684A68836C22F4C002F8
:103AD0001A434A6090F82810090606D501684A681A
:103AE000C06C22F4002202434A6070472DE9F8437B
:103AF00000260446C0F89060FEF768F9804620680A
:103B000000684FF0200500076FF07E4713D543464D
:103B1000002229042046009700F0BCF958B1216822
:103B200051E8000F20F0800041E80002002AF6D1A1
:103B3000C4F8885021E020680068400722D5434639
:103B400000224FF480012046009700F0A3F9C8B18D
:103B5000216851E8000F20F4907041E80002002A2B
:103B6000F6D12068083050E8001F21F0010140E83C
:103B70000012002AF5D1C4F88C5084F88460032028
:103B8000BDE8F883C4F88850C4F88C5044F86C6FD2
:103B9000666026760020F3E710B5806A0021A0F861
:103BA0005E10FFF7D8F810BD10B5026852E8001F8C
:103BB00021F4907142E80013002BF6D10E4B0268FD
:103BC000083252E8001F194042E80014002CF6D1D8
:103BD000C16E012908D1016851E8002F22F01002BE
:103BE00041E80023002BF6D12021C0F88C100021E1
:103BF000C166416710BD0000FEFFFFEF2DE9F041F7
:103C00000446016880682269E369104362690025FF
:103C10001A431043DFF84CC20A68934B1A40024320
:103C20000A6020684168E26821F440511143416014
:103C30002168A069614501D0226A10438A688B4BD4
:103C40001A4002438A602068C16A626A21F00F014B
:103C50001143C1628649236886488B420DD1D0F852
:103C6000880010F0030006D0012867D0022854D045
:103C7000032851D164E001204FE07F498B420BD1F2
:103C8000D0F8880010F00C0047D0042845D0082850
:103C900052D00C2840D153E078498B420BD1D0F858
:103CA000880010F0300038D0102847D0202843D0AA
:103CB000302831D144E072498B420BD1D0F88800D2
:103CC00010F0C00029D0402838D0802834D0C02837
:103CD00022D135E06B498B420ED1D0F8880010F428
:103CE00040701AD0B0F5807F28D0B0F5007F23D087
:103CF000B0F5407F10D123E063450DD1D0F88800A6
:103D000010F4406009D0B0F5806F17D0B0F5006FA7
:103D100012D0B0F5406F13D010205B4A5B4F0026E5
:103D20004FF40041634539D160B102280DD0042819
:103D30000DD0082831D10EE00220EEE70420ECE798
:103D40000820EAE7FEF7B4FB03E0114603E0FEF7C4
:103D5000D3FB01007BD0606A37F810206768B1FBA5
:103D6000F2F007EB4703834269D8B0EB073F66D810
:103D7000002308461946FCF7C3FA090241EA10611C
:103D800002027808101871413A460023FCF7B8FA8D
:103D90003F4AA0F54071914257D950E0E3694FF690
:103DA000EF788B422BD1092849D2DFE800F00508D3
:103DB0000D48254848480E00FEF77AFB01E0FEF763
:103DC00089FB010001D142E01146606A37F810001A
:103DD000B1FBF0F04100606801EB5001B1FBF0F184
:103DE000A1F1100040452AD84FF6F07201EA020016
:103DF000C1F34201084328E0FEF77EFBE1E7092812
:103E00001DD2DFE800F005080D1C1E1C1C1C0E0056
:103E1000FEF74EFB01E0FEF75DFB010001D116E06D
:103E20001146606A37F81000B1FBF0F1606801EBF1
:103E30005001B1FBF0F0A0F11001414504D901257A
:103E400005E0FEF759FBE8E780B22168C860012071
:103E5000A4F86A0024F8680F2846E6602661BDE8E9
:103E6000F081000000800040F369FFCFFFF4FF11F4
:103E7000003801400010024000440040004800406B
:103E8000004C0040005000400024F400264100088F
:103E9000FFFC0F002DE9F047994617460D460446F2
:103EA0004FF00008089E33E0701C31D0FDF78EFF04
:103EB000A0EB0900B04218D8BEB1206801684907DC
:103EC00026D5802D24D0402D22D0C169C9430907B1
:103ED0000DD4082505622046FFF766FEC4F8905011
:103EE00084F884800120BDE8F0870320FBE7C069E7
:103EF000C04300050CD421684FF4006008622046DE
:103F0000FFF752FE2020C4F8900084F88480ECE78C
:103F10002068C06935EA000004D00020B842C3D050
:103F20000020E0E70120F9E710B50448FFF7C6FBE1
:103F3000BDE810400248FEF70FBF00000038014006
:103F40003C2B0020FEE701460020FFF711B9014697
:103F50004020FFF70DB90907090E002804DB00F126
:103F6000E02080F80014704700F00F0000F1E0201E
:103F700080F8141D704730380A2801D2012070479C
:103F80000020704710B504460420FEF7EFFC0148FE
:103F9000048010BD1C0000204FF47A71484300F0EB
:103FA00001B8000070B54FF0E024002265690949AE
:103FB000A36909884843A1699942FCD002D2A3EBC6
:103FC000010302E0A5EB010633441A440B4682428A
:103FD000F1D370BD1C000020044989680968CA69D2
:103FE0005206FCD5024AC1B211607047440200205B
:103FF00028380140FDF7F8FEFFF70CFCFFF77AFACE
:10400000FFF752FAFFF724FBFFF7D4F9FFF71EFA88
:10401000FFF7FAFAFFF7C4FAAA20FFF7B3FF354813
:10402000FFF766FBFFF78EFBFFF76DFB3248FEF7ED
:104030006BFD4FF47A78424630493148FDF7FAF982
:10404000304C314D4FF000096178207851EA000280
:104050001FD00028F8D10029F6D084F80190012162
:1040600021702A4E4846A4F8049049F6404780B291
:1040700055F82010B1FBF7F189B226F8101024A0F2
:10408000FCF7B6F9A088401C80B2A0804045EED372
:10409000DAE7207AC00716D0E0780028D4D0174994
:1040A0004F46A4F804904646A08855F8202031F8E1
:1040B00010301A4445F82020401C80B2A080B04245
:1040C000F2D3E770C0E7A0780028BDD012494F4670
:1040D000A4F804904646A08855F8202031F8103006
:1040E0001A4445F82020401C80B2A080B042F2D390
:1040F000A770A9E73C2B0020A42A0020240A002056
:104100006429002000000020F411002094210020E8
:1041100025640D0A00000000540200204FF040709A
:10412000E1EE100A704701000200040006000800DA
:104130000A000C0010002000400080000001010176
:104140000103070100000804020408010101000046
:104150000000000000000102030406070809000037
:104160000000010203040000884100080000002054
:1041700054020000140200084843000854020020C2
:104180004430000070020008C1321082012B24F478
:104190000E12FF1C108C84012B85F6061484940CDF
:1041A000101020201008040201FF01020408102052
:1041B00020160809CEB8082C027A4A01137A02198F
:1041C0001B1112031EFF4949497F04194015600263
:1041D0000CC0100AF8888888FF8888A81810100476
:1041E000047C0380601F80432C10284681803D8022
:1041F0008282FE031A8059138660258040300F2288
:10420000FF1780844221100C1010407C407F4848EA
:1042100040F2121AD61212F2022010908E404F2055
:104220001E804F20180710204F80200E14A4442415
:1042300034AD6624940444A414180C080908080931
:104240000909FD09090B0922084EF808FF08F8A121
:10425000247A0202120F1BFF080439A01967111AF1
:10426000F06D180AF080904C57A4544C8450180FED
:104270001F100F081F10101515FF1515101088209E
:104280000D60F80704E4A4A4BFA4A4E4041A019DEB
:104290003C40407FEF847F40404BFF0801290B6A80
:1042A0004101295F2010100C442414040506040465
:1042B000142444140C2B40401B2A7F05493F1BFE4D
:1042C0004001112EFF804020103F111C7F202078DC
:1042D0002A3F1623407828090202C2020202FE8207
:1042E0000119BF19151977390439381602E222224B
:1042F0003E2808088848390E08C880154382423E87
:104300002009217129252321287039961DF8898ECD
:10431000880139A019681B1807485480403F8B0456
:10432000840119E0CA200111300E2010E82427244E
:1043300024E424342C20E01D80601F090107167F2F
:08434000090949897F00000012
:04000005080001D915
:00000001FF
