:020000040800F2
:100000007006002089010008830C0008ED0B000831
:10001000810C0008C5030008F70C00080000000070
:10002000000000000000000000000000870C000835
:10003000C703000800000000850C0008890C0008B8
:10004000A3010008A3010008A3010008A301000800
:10005000A3010008A3010008A3010008A3010008F0
:10006000A3010008A3010008A3010008A3010008E0
:10007000A3010008A3010008A3010008A3010008D0
:10008000A3010008A3010008A3010008A3010008C0
:10009000A3010008A3010008A3010008A3010008B0
:1000A000A3010008A3010008A3010008A3010008A0
:1000B000A3010008A3010008A3010008A301000890
:1000C000A3010008A3010008A3010008A301000880
:1000D000A3010008A3010008A3010008A301000870
:1000E000A3010008A3010008A301000800F002F822
:1000F00000F03AF80AA090E8000C82448344AAF188
:100100000107DA4501D100F02FF8AFF2090EBAE885
:100110000F0013F0010F18BFFB1A43F0010318473B
:10012000C80E0000E80E0000103A24BF78C878C15D
:10013000FAD8520724BF30C830C144BF04680C60ED
:10014000704700000023002400250026103A28BF35
:1001500078C1FBD8520728BF30C148BF0B60704739
:100160001FB51FBD10B510BD00F058F81146FFF7C0
:10017000F7FF00F0D1FD00F076F803B4FFF7F2FFCF
:1001800003BC00F07DF8000009488047094800479B
:10019000FEE7FEE7FEE7FEE7FEE7FEE7FEE7FEE737
:1001A000FEE7FEE704480549054A064B7047000094
:1001B000F50C0008ED00000870000020700600201B
:1001C00070020020700200204FF0000200B51346BC
:1001D00094469646203922BFA0E80C50A0E80C5067
:1001E000B1F12001BFF4F7AF090728BFA0E80C5018
:1001F00048BF0CC05DF804EB890028BF40F8042B11
:1002000008BF704748BF20F8022B11F0804F18BF7D
:1002100000F8012B7047704770477047754600F033
:100220002BF8AE4605006946534620F00700854688
:1002300018B020B5FFF7B6FFBDE820404FF000062C
:100240004FF000074FF000084FF0000B21F00701BE
:10025000AC46ACE8C009ACE8C009ACE8C009ACE801
:10026000C0098D46704710B50446AFF300802046A4
:10027000BDE81040FFF781BF004870471000002024
:1002800001491820ABBEFEE72600020070470000BF
:1002900010B50A4C00224021204600F085F90022CA
:1002A0002021204600F080F94FF4045000F056F869
:1002B000BDE8104042F2380000F050B8000801409C
:1002C00070B5104C054601221021204600F06CF953
:1002D00001220821204600F067F901220221204670
:1002E00000F062F901220221204600F05DF90022AF
:1002F0000221204600F058F92846BDE8704000F081
:100300002DB800000008014010B50446084600F072
:1003100048FD104A104B00F057FD00F015FD810B11
:100320007CB120F4804021F4804140F4004041F44D
:10033000004400BF00F012F82046BDE8104000F075
:100340000DB820F4004021F4004140F4804041F415
:100350008044EFE7F8BA40D813A20C4070B5184DAE
:100360000646002401220821284600F01DF900223B
:100370001021284600F018F9300401D5012200E0D0
:1003800000220421284600F00FF900220821284607
:1003900000F00AF9760001220821284600F004F94D
:1003A000641CE4B2102CE7D301220421284600F09B
:1003B000FBF82846BDE870400122102100F0F4B897
:1003C00000080140FEE770472DE9F84FDFF8B891CB
:1003D0000024A9F1040B23460F2709F1040AABF10D
:1003E000040EC9E00125A5402A40AA427DD1674EEE
:1003F000D1F804C0ACEB0608B44532D014DCBCF133
:10040000030F3AD009DCBCF1000F2AD0BCF1010F78
:100410001CD0BCF1020F31D11DE0BCF1110F17D07F
:10042000BCF1120F2AD119E0B8F5881F19D006DCEB
:10043000B8F5803F15D0B8F5801F1FD111E0B8F591
:10044000001F0ED0B8F5041F18D10AE0CB6815E0E4
:10045000CB681B1D12E0CB6808330FE0CB680C3370
:100460000CE08B682BB1012B4FF0080303D04561E2
:1004700004E0042302E0056100E00023FF2A01D824
:10048000064601E000F104064FEA840501D9A5F112
:100490002005D6F8008007FA05FC28EA0C0803FAC4
:1004A00005F548EA0508C6F800804D68ED0062D5FC
:1004B000374DAE6946F00106AE61AD6924F0030622
:1004C00005F001050095334D06EB050CDCF80850EE
:1004D000A607360F07FA06F825EA0805DFF8B88000
:1004E000404503D14FF0000817E044E0DFF8AC804E
:1004F000404502D14FF001080FE0DFF8A4804045ED
:1005000002D14FF0020808E0DFF89880404502D1A0
:100510004FF0030801E04FF0040808FA06F848EA33
:100520000508CCF808804D68D9F80060ED024D460A
:1005300001D5164300E096432E604D68DAF800605E
:10054000AD02554601D5164300E096432E604D6836
:10055000DBF80060AD035D4601D5164300E096432D
:100560002E604D68DEF80060ED03754601D5164338
:1005700000E096432E60641C0D682A46E5407FF437
:1005800031AFBDE8F88F00000804014000001110F1
:10059000001002400000014000080140000C014032
:1005A00000100140001401400AB1016170470904C4
:1005B000FBE7000001488068704700000000002051
:1005C0000548017809B90121017004490A680078D9
:1005D0001044086070470000000000200800002060
:1005E000074810B5016841F010010160032000F0D8
:1005F00067F80F2000F006F800F024F8002010BD86
:100600000020024070B50D4D04464FF47A712878F1
:10061000B1FBF0F00A490968B1FBF0F000F0D2FA42
:1006200048B9102C07D200222146501E00F028F8AD
:1006300000206C6070BD012070BD00000000002033
:100640000C0000200C4808B5816941F0010181616E
:10065000816901F001010091C16941F08051C161DE
:10066000C06900F0805000900448416821F0E061CA
:1006700041F08071416008BD00100240000001405F
:10068000F0B40E4B1B680C46C3F30223C3F10705FD
:10069000042D00D90425191D072901D2002300E0EB
:1006A000DB1E012606FA05F1491E214099409E40B5
:1006B000761E16403143F0BC00F01EBB0CED00E08E
:1006C000064900F0070208684FF6FF03184040EAA9
:1006D0000220034A10430860704700000CED00E060
:1006E0000000FA052DE9F0470F46050061D0434EA2
:1006F000306800F00700B84209D2306820F00700E7
:1007000038433060306800F00700B84251D12868A3
:100710003B4C810712D5400703D5606840F4E06088
:1007200060602878000703D5606840F4605060601E
:100730006068A96820F0F000084360602878C0076E
:1007400028D06868012810D02168022810D08907B5
:1007500000292EDA616821F0030101436160FFF78F
:1007600029FF804641F288390DE021688903EFE7CF
:100770008901EDE7FFF71EFFA0EB0801494502D90B
:100780000320BDE8F0876068696800F00C00B0EBFA
:10079000810FEFD1306800F00700B8420BD9306804
:1007A00020F0070038433060306800F00700B8429E
:1007B00001D00120E5E72878400705D56068E968A1
:1007C00020F4E060084360602878000706D5606880
:1007D000296920F4605040EAC100606000F018F818
:1007E0006168084AC1F30311515CC84006490860BA
:1007F00006480068FFF706FF0020C2E7002002401D
:1008000000100240D60F00080C0000200400002059
:100810000E4A51680E4801F00C03042B11D0082B2E
:100820000FD10C48C1F38343C903C05C0AD551689A
:10083000084AC1F34041921E515C054A5043B0FB47
:10084000F1F070470449484370470000001002402F
:1008500000127A00C60F000800093D0030B585B0CF
:100860000020029002200190032003900B4C4FF4D3
:1008700080700090A0690D4640F00400A061A0695E
:10088000694600F0040004900548FFF79DFD60688C
:1008900020F0E0602843606005B030BD00100240E9
:1008A000000801402DE9F84F040070D02078C04DB9
:1008B000C00749D06868C0F38100012807D0686884
:1008C000C0F38100022809D16868C00306D52868F2
:1008D000800339D560680028E7D035E06068B0F55E
:1008E000803F0BD010B1B0F5A02F11D0286820F4B4
:1008F00080302860286820F4802002E0286840F4D6
:1009000080302860606890B1FFF754FE06460AE028
:10091000286840F480202860F0E700BFFFF74AFE17
:10092000801B642873D828688003F7D50CE0FFF794
:1009300041FE064605E000BFFFF73CFE801B642831
:10094000F0D828688003F7D420789A4E80074FF0BB
:1009500001094FF0000839D5686810F00C0F07D076
:100960006868C0F38100022809D16868C00306D412
:100970002868800714D52069012808D110E0206973
:10098000B0B1C6F80090FFF715FE074605E00AE192
:10099000FFF710FEC01B0228C4D828688007F7D5CF
:1009A0002868616920F0F80040EAC10028600DE085
:1009B000C6F80080FFF7FEFD074604E0FFF7FAFDEA
:1009C000C01B022823D828688007F7D420780007A6
:1009D0002CD57948A169D9B1C0F80090FFF7EAFD9C
:1009E000074604E0FFF7E6FDC01B02280FD8686A3F
:1009F0008007F7D571484FF4FA510068B0FBF1F069
:100A0000009000BF0098411E0091FAD20EE080E0F5
:100A1000C0F80080FFF7CEFD074604E0FFF7CAFDEF
:100A2000C01B022875D8686A8007F7D42078400771
:100A300060D5E8690027C00008D4E86940F080501C
:100A4000E861E869012700F0805000905C48016887
:100A5000C90513D40168834641F480710160FFF732
:100A6000A9FD824606E000BFFFF7A4FDA0EB0A0047
:100A700064284ED8DBF80000C005F5D5E0680128F1
:100A80000AD008B1052813D0286A20F00100286296
:100A9000286A20F0040002E0286A40F00100286281
:100AA000E06841F2883B98B1FFF784FD82460BE095
:100AB000286A40F004002862EEE700BFFFF77AFDE5
:100AC000A0EB0A0159455AD8286A8007F6D50CE0F0
:100AD000FFF770FD824605E0FFF76CFDA0EB0A0111
:100AE00059454CD8286A8007F6D41FB1E86920F030
:100AF0008050E861E06988B36968C1F38101022927
:100B000044D00228C6F8608004D0FFF753FD0446A5
:100B100038E034E0FFF74EFD074604E0FFF74AFDFA
:100B2000C01B02282BD828688001F7D4206AB0F5B2
:100B3000803F05D16868A16820F4003008436860F0
:100B4000D4E908010843696821F474110843686016
:100B5000C6F86090FFF72EFD044606E025E000BFD2
:100B6000FFF728FD001B022809D828688001F7D567
:100B70001BE000BFFFF71EFD001B022802D9032067
:100B8000BDE8F88F28688001F4D40EE00128F7D082
:100B90006868226A00F48031914204D1616A00F4ED
:100BA0007010884201D00120EAE70020E8E7000049
:100BB0000010024000004242800442420C0000202B
:100BC0000070004010B5401EB0F1807F01D30120BD
:100BD00010BD4FF0E02460610F21601700F08CF829
:100BE0000020A06107202061002010BDFEE700006A
:100BF00030B585B0002420480094019402940394F9
:100C0000816941F010018161816901F01001049155
:100C1000816941F020018161816901F02001049125
:100C2000816941F004018161816901F0040104914D
:100C3000816941F0080181618069104D00F0080070
:100C4000049000227E212846FFF7AEFC7E20009013
:100C50000120CDE901040320039069462846FFF7EF
:100C6000B3FB0221A815CDE900010391694628468E
:100C7000FFF7AAFB05B030BD00100240000801409C
:100C8000FEE7FEE770477047FFF79ABC30B58FB0BC
:100C900028216846FFF798FA14210AA8FFF794FA6A
:100CA00001210804CDE900100024029402250491DA
:100CB000CDE907504FF4E01009906846FFF7F2FDC8
:100CC00008B172B6FEE70F20CDE90A054FF4806047
:100CD000CDE90C4002210AA80E94FFF703FD08B1EC
:100CE00072B6FEE700224FF0E0611046FFF7B6FD56
:100CF0000FB030BD7047FEE70907090E002804DB7E
:100D000000F1E02080F80014704700F00F0000F1BF
:100D1000E02080F8141D7047FFF762FCFFF7B6FF74
:100D2000FFF766FFFFF7B4FA42F20800FFF7C8FAD0
:100D3000044C00202146FFF7E7FA21460120FFF787
:100D4000E3FAFEE7B8DA1C004FEA1153A3F580631B
:100D5000D3F11E03A8BFD3F1200C08DB4FF00042F3
:100D600042EAC12252EA505232FA03F07047094275
:100D70000BD4102BC4BF0020704703F5787CBCF166
:100D8000FF3F05D04FF0FF3070474FF00000704735
:100D900070B500F0C3F800BF49922480002070476E
:100DA000F0E7B0FA80F310FA03F10AD0C3F11D03A3
:100DB00003F580634FEA41504FEA035202EBD12121
:100DC00070474FF000007047DFF848C170B51CEA6B
:100DD000111E1EBF1CEA13159EEA0C0F95EA0C0F9C
:100DE00000F06F8081EA030423EA4C134EEAD47EBC
:100DF00021EA4C1141F4801143F48013AE44A1FB6D
:100E0000024CA0FB0365AEF17F7E361955EB0C0555
:100E1000A1FB034C4CF10003A0FB021C16EB0C06DB
:100E2000654153F10003094218BF46F0010613F46F
:100E3000007F0BD14FEA03314FEA0530340341EA1A
:100E4000155140EA16506FF003020AE04FEAC32141
:100E50004FEAC520F40241EA555140EA56506FF07E
:100E6000020202EB2E4201EB025585EACE710AD056
:100E70005FEA440C18BF24F0004450F1000041F137
:100E8000000120EAD47040F2FE7C624500D270BDC1
:100E9000A84214BF4FF080444FF04044002E08BFDA
:100EA0000024BEF1806FA8BFA1F1C041BDE8704031
:100EB00080F282804FF0000001F1C04101F000415A
:100EC00070479EEA0C0F0CEA131518BF95EA0C0F39
:100ED00006D04FF0000081EA030E0EF0004170BD15
:100EE00000F01CF88900013E00F007B800F009B8D6
:100EF0004FEA430C5FEA5C5C08D081EA030100F032
:100F00005BB84FEA410C5FEA5C5CF6D14FF0000041
:100F1000014970470000FF070000F87F0EF1020E44
:100F20002EF0030E5EF8046B364205D4012A43EB23
:100F3000030515F5001F12D8012841EB010C1CF523
:100F4000001F0CD80ED14FEAD17C15F5001F0CEB19
:100F50004C0C0CF1020C08BF4CEBD37C04E04FF0BE
:100F6000080C01E04FEAD37C0CEB4C0526FA05F6A1
:100F700006F00706B6F1040C06D20EEB860CBDE8AF
:100F800070404CF0010C6047DFE80CF0090B0202E6
:100F90004FF000414FF00000A1F5002170BD19464F
:100FA0001046012851EB010418BFD4F5001484BF8A
:100FB000002001F0004170BD0808A0F500114FEAC3
:100FC00031017047010202030405060708090A0BF4
:100FD0000C0D0E0F101000000000000000000102B8
:100FE000030406070809000008100008000000209C
:100FF0001000000028010008181000081000002050
:10100000600600004401000801000000100000001C
:08101000000000000024F400C0
:04000005080000ED02
:00000001FF
