:020000040800F2
:1000000038590020ED010008014D0008CF460008D6
:10001000E94C0008611C0008655D00080000000054
:100020000000000000000000000000004750000831
:10003000131D00080000000045500008495000084A
:10004000070200080702000807020008070200086C
:10005000070200080702000807020008070200085C
:10006000070200080702000807020008651C0008D4
:10007000070200080702000807020008070200083C
:10008000070200080702000807020008070200082C
:10009000070200080702000807020008070200081C
:1000A000070200080702000807020008070200080C
:1000B000C550000807020008D150000807020008D8
:1000C00007020008070200080702000807020008EC
:1000D00007020008595D000807020008070200082F
:1000E00007020008070200080702000807020008CC
:1000F00007020008070200080702000807020008BC
:1001000007020008070200080702000807020008AB
:10011000070200080702000807020008070200089B
:10012000070200080702000807020008070200088B
:10013000070200080702000807020008070200087B
:10014000070200080702000807020008070200086B
:10015000070200080702000807020008070200085B
:10016000070200080702000807020008070200084B
:10017000070200080702000807020008070200083B
:10018000070200080702000807020008070200082B
:10019000070200080000000007020008070200082C
:1001A000070200080702000807020008070200080B
:1001B00007020008070200080702000807020008FB
:1001C00007020008070200080702000807020008EB
:1001D0000702000807020008DFF80CD000F0B4FBAB
:1001E00000480047C9690008385900200648804780
:1001F00006480047FEE7FEE7FEE7FEE7FEE7FEE70C
:10020000FEE7FEE7FEE7FEE7B5500008D90100086B
:100210002DE9F05F0546002092469B46884606463B
:10022000814640241BE0284641464746224600F0CE
:1002300010FA53465A46C01A914110D31146184637
:10024000224600F0F7F92D1A67EB01084F462246C7
:100250000120002100F0EEF917EB00094E41201EAD
:10026000A4F10104DFDC484631462A464346BDE896
:10027000F09FD2B201E000F8012B491EFBD270477B
:100280000022F6E710B513460A4604461946FFF762
:10029000F0FF204610BD421C10F8011B0029FBD1C5
:1002A000801A7047F0B480EA0102D40F4200B2EB2A
:1002B000410F02D20246084611464A0042D0C30D01
:1002C000DDB2C1F3C752AD1A202D35DAC1F31601E4
:1002D00041F4000204B15242C5F1200602FA06F1CF
:1002E0002A411044B3EBD05F23D0C4B1012DA0EB61
:1002F000C35009DCF0BC4FF0004202EAC352DBB24B
:1003000000F5000000F0BEB9400000F1807000EB85
:10031000C350A0F1807040EAD170490009E049085B
:1003200041EAC071A0EBC35000F50000400800EBAB
:10033000C350F0BC00F09DB96142012202EB4101C3
:10034000001BF6E7F0BC704781F00041AAE780F09F
:100350000040A7E780EA010210B502F00043400028
:1003600022D04A001FD0010E01EB1261C0F35600EB
:10037000C2F3560240F4000042F40002A0FB022047
:1003800000047F39140400D0401C50EA124001D40C
:100390004000491EC2B20C0604EBD010401C4008BD
:1003A000802A02D003E0002010BD20F001000029C7
:1003B00000DA0020184310BD2DE9FE4F81EA030446
:1003C00004F0004421F0004100944FF0000B23F0B2
:1003D000004350EA01045ED052EA03045BD0C3F349
:1003E0000A54C1F30A552C44A4F2F3340194A0FB3F
:1003F0000254C1F3130141F48011C3F3130343F416
:10040000801301FB024400FB034E840A970A44EA6E
:10041000815447EA8357A4FB076802958D0A05FBC0
:1004200007854FEA932C04FB0C542705029D4FEAE5
:10043000065847EA1637B5EB08056EEB070C870E32
:10044000920E47EA811742EA8312A7FB0201B6EB3C
:100450000B0164EB00042B0D43EA0C335E1844EBF4
:100460001C50DA465146E7FB0201C5F313044FEA7C
:100470000B3343EA14534FEA0432019C43EA060368
:10048000A4F10C040294009CCDE900B400F037F90B
:1004900003B0BDE8F08F00200146F9E72DE9F04DEB
:1004A00081EA030404F0004B21F0004514464FF0AC
:1004B000000A23F0004150EA050220D054EA01026C
:1004C0001DD0C5F30A570246C5F31303C1F3130049
:1004D000C1F30A5640F4801543F48013A7EB0608D5
:1004E000101BD64608F2FD3873EB050002D308F165
:1004F000010801E092185B41B8F1000F03DA002017
:100500000146BDE8F08D00204FF480110646844678
:100510000EE0171B73EB050705D3121B63EB0503F6
:1005200006434CEA010C49084FEA300092185B413F
:1005300050EA0107EDD152EA030012D082EA04002A
:1005400083EA0501084305D0101BAB4106D2012206
:10055000002306E000224FF0004302E06FF00102AA
:1005600053101AEB06004CEB085110EB0A0041EB5C
:100570000B01BDE8F04D00F0B3B8002801DBC0F17D
:100580000040002901DBC1F10041814201D201207C
:100590007047002070470EB540F2334102910021B0
:1005A000CDE900110A460B4600F0A9F803B000BDE2
:1005B000C1F30A5210B5C1F3130140F2FF3341F405
:1005C00080119A4201DA002010BD40F233439A4272
:1005D000A2F2334203DC524200F03BF810BD9040DF
:1005E00010BD00F0004230F000400AD0C10D01F50E
:1005F0006071C0F3160042EA0151C208400711437E
:10060000704700200146704730B50B460146002078
:100610002022012409E021FA02F59D4205D303FAC4
:1006200002F5491B04FA02F52844151EA2F1010245
:10063000F1DC30BD202A04DB203A00FA02F1002070
:1006400070479140C2F1200320FA03F31943904010
:100650007047202A04DB203A21FA02F0002170477B
:1006600021FA02F3D040C2F120029140084319461A
:1006700070470029A8BF7047401C490008BF20F000
:100680000100704710B4B0FA80FC00FA0CF050EA98
:10069000010404BF10BC704749B1CCF1200421FA19
:1006A00004F411FA0CF118BF012121430843A3EB14
:1006B0000C01CB1D4FEA00614FEA102042BF002021
:1006C00010BC704700EBC35010440029A4BF10BCFD
:1006D0007047401C490008BF20F0010010BC704763
:1006E00010B5141E73F1000408DA401C41F100013A
:1006F00092185B411A4301D120F0010010BD2DE991
:10070000F04D92469B4611B1B1FA81F202E0B0FA87
:1007100080F220329046FFF78DFF04460F4640EAF4
:100720000A0041EA0B0153465A46084313D01146CA
:1007300053EA010019D0C8F140025046FFF789FF83
:1007400005460E46504659464246FFF773FF08439A
:1007500005D0012004E020463946BDE8F08D002098
:10076000054346EAE0762C4337430A986305E40ADA
:10077000A0EB08000022FD0A44EA47540A3002D5E3
:1007800000200146E9E7010510196941DDE9084546
:1007900000196941BDE8F04DA2E72DE9FE4F804602
:1007A00081EA0300C00F0C46009021F0004123F0C5
:1007B0000045B8EB0200A94105D2404621469046CB
:1007C0001C460B46024623F00040104347D0270D3D
:1007D000C7F30A00C3F30A510290401A019040285F
:1007E0006BDAC3F3130040F4801B0098924620B1EB
:1007F0000023D2EB030A63EB0B0B01985946C0F1BF
:1008000040025046FFF716FF06460D465046594631
:10081000019A00F0ABF810EB08006141002487EA70
:10082000115284EAE7731A4340D0009A62B3019AE6
:10083000012A4FEA075215DC001B61EB02014FF061
:10084000004202EA0752CDE90042001C41F5801146
:1008500032462B46FFF753FF03B0BDE8F08F40460A
:100860002146F9E7001B61EB0201001C41F58013F2
:1008700000185B412018A2F5001747EB030140EA7E
:10088000D570B6196D4111E06D084FEA360645EA9C
:10089000C0754FEA0752001B61EB0201001C41F5D5
:1008A000801149084FEA30000019514132462B4669
:1008B00003B0BDE8F04FFFF713BF009801224000DE
:1008C0000023D0EB020263EBE073009821464FEA6D
:1008D000E074B8EB000061EB0401E9E783F000434A
:1008E0005BE781F0004158E7C1F30A52C1F31301FD
:1008F00040F2FF3341F480119A4202DA00200146AF
:10090000704740F233439A42A2F2334202DC524231
:10091000FFF79FBEFFF78EBE30B5041E71F10004D5
:1009200004DB4FF00044404264EB0101141E73F1FC
:10093000000405DB1C464FF00043524263EB040306
:10094000994208BF904230BD064C074D06E0E06872
:1009500040F0010394E8070098471034AC42F6D306
:10096000FFF73EFCB4FB0008D4FB0008202A06DB9E
:10097000CB17203A41FA02F043EAE07306E041FA6D
:1009800002F3D040C2F1200291400843194670475B
:1009900070B58D1810F8014B14F0030201D110F856
:1009A000012B231106D110F8013B03E010F8016B75
:1009B00001F8016B521EF9D1ABB110F8012B04F014
:1009C0000C048A1A0C2C03D0A2EB84129B1C08E0A6
:1009D00010F8014BA2EB0422F8E712F8014B01F8E2
:1009E000014B5B1EF9D5A942D4D3002070BD000095
:1009F0002DE9F04701264FEA42084FEA5109002449
:100A0000002506EB510C6FF0010606EB510E00BFFE
:100A1000ADB26600AC4228D250F8267050F83520AE
:100A2000E900043140F8262040F8357046F0010214
:100A300050F822A0475840F8227040F801A004EB7B
:100A40000C0105EB0C0750F831A050F8372040F8A6
:100A50003120C90040F837A0FF000431043750F8B6
:100A600001A0C259425040F807A000EB86014D4456
:100A70008A6850F835608E6040F83520ED00043506
:100A8000CA684659CE604251A21C03EB080194B2D9
:100A90001D880B46744588BFBDE8F087B8E7B0B540
:100AA00082B00C4605468389426801888078012817
:100AB00005D128690090204600F008FC02E020469D
:100AC00000F050F9E87801281CBF02B0B0BDAB6857
:100AD000EA892988204602B0BDE8B040FFF788BF08
:100AE00047F6B43CFF29C0F6000CC0F804C00180F2
:100AF000C370827047F2B4324FF0FF03C0F60002B9
:100B00000DDDB1F5807F13D0B1F5805F15D0B1F563
:100B1000806F21D106324FF06A51042317E010296B
:100B20000FD0402918D17E324FF0725140230EE091
:100B30001E324FF06E51102309E04FF06651012331
:100B400005E002F5FF724FF076514FF48073C381D8
:100B5000838100230161826058B270472DE9F04320
:100B600081B00546002090460C46B0EB920F4CD069
:100B70004FEA9800C0F10009D5E900070146FFF7E8
:100B8000E9FB064638463946FFF7E4FB01463046A6
:100B9000FFF788FB05F0BCFF2060D5E9020601469F
:100BA000FFF7D8FB074630463146FFF7D3FB014637
:100BB0003846FFF777FB05F0ABFF6060D5E9040628
:100BC0000146FFF7C7FB074630463146FFF7C2FB39
:100BD00001463846FFF766FB05F09AFFA060D5E9AD
:100BE00006060146FFF7B6FB074630463146FFF7DB
:100BF000B1FB01463846FFF755FB05F089FFE06081
:100C00001034203519F10109B6D118F0030016D0BF
:100C1000474200BFD5E900060146FFF79BFB80462F
:100C200030463146FFF796FB01464046FFF73AFB58
:100C300005F06EFF44F8040B08350137EAD101B026
:100C4000BDE8F0832DE9F04F89B0834691464A1EF6
:100C50004FF0000A98460F465BF8046BBAEB920F10
:100C600062D0029090080121CDE9047903924FF0FF
:100C7000000A0425CDF8188061F301024042019278
:100C80000890DBE90087DBE90240079030464146E7
:100C9000FFF773FC814630464146FFF76EFC0028A3
:100CA00018BFA5F1030A3946B9F1000F18BF46462F
:100CB0003046FFF762FC00283046394618BFA5F1E0
:100CC000020AFFF75AFC002818BF3E46304621466C
:100CD000FFF753FC00283046214618BFA5F1010A52
:100CE000FFF74BFC002818BF2646079C30462146DC
:100CF000FFF743FC00283046214618BFAA46FFF7FD
:100D00003CFC0028089818BF26460BF1100B043550
:100D10000130B5D1DDE901100DF10C09DDF81880C5
:100D200099E8840200EB810B12F0030013D04542D6
:100D30005BF8044B30462146FFF71FFC0028304685
:100D4000214618BF07EB050AFFF717FC002818BF5C
:100D500026460135ECD1C9F80060C8F800A009B0FA
:100D6000BDE8F08F2DE9F04FA3B0834600200C9131
:100D7000144604931E9206922292A0EB910718014A
:100D80008908CDF808B00B90D800019105910A9020
:100D900003EB4300C0000990C80021900801209097
:100DA00001EB4100C0001F90CDE91C472098DBF803
:100DB00004A05BF800108046DBF80000CDF84CA0E2
:100DC00017911690FFF76EFA21991F9A074619900E
:100DD0005BF801000E465BF8021015461590149161
:100DE000FFF760FA814638464946FFF75BFA0BEB9E
:100DF00005014F681B910BEB06014E680F910BEB41
:100E000008011A914968119710961291D4E900824D
:100E1000CBF8000050460D92FFF744FA05463046E5
:100E20003946FFF73FFA044628462146FFF73AFACB
:100E3000CBF8040019984946FFF786FA064628467B
:100E40002146FFF781FA044630464146C246FFF785
:100E500081FA0D9F054620463946FFF77BFA014689
:100E60002846FFF71FFA2299DDF878800A6849685A
:100E700018921991D8E900910E9121994BF801002F
:100E800050462146FFF766FA044630463946FFF7DA
:100E900061FA01462046FFF757FA0F994860DDE9ED
:100EA0001601FFF751FA16900446DDE91410FFF71A
:100EB0004BFA17900546DDE91210FFF745FA159039
:100EC0000646DDE91001FFF73FFA0746204639469E
:100ED000FFF7E8F9044630462946FFF735FA05469C
:100EE000204649464E46FFF735FADDF838908246EF
:100EF00028464946FFF72EFA01465046FFF7D2F939
:100F000020994BF8010028463146FFF723FA0546A1
:100F100020464946FFF71EFA01462846FFF714FA15
:100F20001A99486016983946FFF70EFA81461598C7
:100F30001799FFF7B7F9189C054648462146FFF771
:100F400009FA199F064628463946FFF703FA014673
:100F50003046FFF7A7F91F994BF8010028462146B4
:100F6000FFF7F8F9054648461C9C3946FFF7F2F9A9
:100F700001462846FFF7E8F91B991D9F0BF1080B66
:100F800048600B982299013704440A9880440998D4
:100F9000CDF87880014422917FF406AF0C98142894
:100FA000C0F02F81059B00BF4FF0FF309908DDF89E
:100FB0000880DF00002500220F9300EB9300CC0097
:100FC0000E010391089004988000049080B207906D
:100FD00001EB4100CDE921464FEAC009CDE90D976B
:100FE000DDF818C002EB420E09925CF83E105CF886
:100FF00032001491110115905CF801000431139036
:101000005CF80100D100043112905CF801001190ED
:101010004FEACE0004305CF800001090CDE90A855C
:10102000209558F80610D8F80000D8F804501C9104
:101030001D901995FFF736F9824658F8040058F8C4
:1010400009101B901A91FFF72DF983465046594617
:10105000FFF728F908EB090108EB04094E681F9116
:101060002299D9F804704144189617971E9149683F
:10107000C8F8000028461691FFF714F904463846D0
:101080003146FFF70FF9064620463146FFF70AF9C9
:10109000C8F8040050465946FFF756F982462046E4
:1010A0003146FFF751F9139F044651463846FFF782
:1010B00051F9129D064621462846FFF74BF9014695
:1010C0003046FFF7EFF8219948F8010038462146ED
:1010D000FFF740F9044628465146FFF73BF9014621
:1010E0002046FFF731F9C9F80400DDE91C10FFF7CD
:1010F0002BF91C900446DDE91A10FFF725F9054687
:101100001D9019981699FFF71FF98146DDE917011F
:10111000FFF71AF9074620463946FFF7C3F8044699
:1011200048462946FFF710F9DDF854A00546214648
:101130005046FFF70FF9DDF844B0064629465846F9
:10114000FFF708F93146FFF7ADF8229948F801009A
:1011500050462946FFF7FEF8054658462146FFF758
:10116000F9F801462846FFF7EFF81E9948601C98E9
:101170003946FFF7E9F81D9982464846DDF8349074
:10118000FFF790F8149F054651463846FFF7E2F8FE
:10119000109C064629462046FFF7DCF83146FFF74B
:1011A00081F848F8090038462946FFF7D3F8054684
:1011B00020465146219CFFF7CDF801462846FFF70F
:1011C000C3F8229EDDE90E73DDE91F1548600C9817
:1011D0001D44B8448542FFF423AF0798099A0B9D3C
:1011E000DDF8288002440898013508F10808854296
:1011F0007FF6F6AE0599039B8808132905903FF604
:10120000D3AE0198029C4042229025686068A6688F
:101210006169E7681D951F9021961E91FFF794F86C
:10122000A169804630462091FFF78EF881464046FE
:101230004946FFF737F8E669E061284621691C91C5
:10124000FFF782F8824638463146FFF77DF883463D
:1012500050465946FFF778F8A06140464946FFF7E7
:1012600073F8606150465946FFF71CF82061DDE9CC
:101270001E10FFF717F8804638463146FFF712F880
:10128000054640462946FFF75FF8E060DDE91C109F
:10129000FFF708F80646DDE92010FFF703F80746D8
:1012A00030463946FFF750F8A06040462946FEF721
:1012B000F9FF606030463946FEF7F4FF206022985F
:1012C00020340130A0D123B0BDE8F08F2DE9F04FDC
:1012D000A3B0834600200B91144603931D92059200
:1012E0002292A0EB910718018908CDF804B00C9068
:1012F000D800009104910A9003EB4300C0000990CC
:10130000C800209008011F9001EB4100C0001E9012
:10131000CDE91B471F98DBF800205BF800108146E1
:10132000DBF804001692219010461591FEF7BAFFE3
:1013300020991E9A80465BF801000E465BF8021069
:10134000154614901391FEF7ADFF82464046514674
:10135000FEF7A8FF0BEB05014F681A910BEB060196
:101360004E680F910BEB090119914968119712967C
:101370001091D4E90092CBF8000021980D92FEF76D
:1013800091FF054630463946FEF78CFF0446284655
:101390002146FEF787FFCBF8040040465146FEF792
:1013A000D3FF064628462146FEF7CEFF04463046C8
:1013B0004946FEF7CFFF0D9F054620463946FEF70A
:1013C000C9FF01462846FEF7BFFF2299DDF8748069
:1013D0000A68496817921891D8E900A10E912099DE
:1013E0004BF8010048462146FEF7B4FF044630465C
:1013F0003946FEF7AFFF01462046FEF753FF0F992F
:101400004860DDE91510FEF79FFF15900446DDE901
:101410001310FEF799FF0546169021981099FEF7D4
:1014200093FF21900746DDE91110FEF78DFF064678
:1014300020463146FEF788FF044638462946FEF727
:1014400031FF0546204651465746FEF783FFDDF83B
:101450003890824628464946FEF77CFF01465046B2
:10146000FEF772FF1F994BF8010028463946FEF738
:1014700071FF054620464946FEF76CFF01462846A7
:10148000FEF710FF1999486015983146FEF70AFFDC
:10149000814621981699FEF757FF179C0546484646
:1014A0002146FEF757FF189F064628463946FEF7A5
:1014B00051FF01463046FEF747FF1E994BF80100E9
:1014C00028462146FEF746FF054648461B9C3946FE
:1014D000FEF740FF01462846FEF7E4FE1A991C9FDE
:1014E0000BF1080B48600C982299013704440A98C4
:1014F00080440998CDF87480014422917FF408AFAC
:101500000B981428C0F02E81049B00BF4FF0FF30D1
:101510009908DDF80490DF000025002400EB93001B
:101520000E0102910790C8000D900398800003906F
:1015300080B2069001EB4100CDE90E7322964FEA8E
:10154000C008CDF8308000BF059A04EB440C089425
:1015500052F83C1052F83400149121011590505863
:10156000043113905058E1000431129050581190FA
:101570004FEACC00043010581090CDE9099500BF17
:1015800059F80610D9F80000D9F80440DDF834A065
:1015900021951D911E901A94FEF784FE59F80810AB
:1015A0000546169059F80A001C901B91FEF77AFE2A
:1015B000834628465946FEF775FE09EB080109EBFC
:1015C0000A084F6820912299D8F804604944179777
:1015D00019961F914968C9F8000020461891FEF736
:1015E00061FE054630463946FEF75CFE0446284655
:1015F0002146FEF757FEC9F8040016985946FEF733
:10160000A3FE834628462146FEF79EFE139F04460E
:1016100059463846FEF79EFE129E05462146304644
:10162000FEF798FE01462846FEF78EFE49F80A00AE
:1016300038462146FEF78EFE044630465946FEF7F0
:1016400089FE2146FEF72EFEC8F80400DDE91D10D4
:10165000FEF77AFE1D900446DDE91B10FEF774FECE
:1016600005461E901A981899FEF76EFE8246199844
:101670001799FEF769FE074620463946FEF764FED5
:10168000044650462946FEF70DFEDDF854B00546E7
:1016900021465846FEF75EFEDDF8448006462946A0
:1016A0004046FEF757FE01463046FEF74DFE2299B2
:1016B00049F8010058462946FEF74CFE05464046CB
:1016C0002146FEF747FE01462846FEF7EBFD1F992F
:1016D00048601D983946FEF7E5FD1E998346504641
:1016E000DDF83080FEF730FE149F05465946384637
:1016F000FEF730FE109C064629462046FEF72AFEDD
:1017000001463046FEF720FE49F8080038462946D3
:10171000FEF720FE054620465946FEF71BFE014611
:101720002846FEF7BFFD20AEDDE90E7362CE1D44F4
:10173000B94448600B988542FFF422AF0698089C94
:101740000A9DDDF8249004440798013509F1080941
:1017500085427FF6F9AE0499029B8808132904900C
:101760003FF6D4AE0098019C2C9E40422290256802
:101770006068A7686169D4F80CB01D951F90219727
:101780001E91FEF7E1FDA169804638462091FEF7E3
:10179000DBFD814640464946FEF7D6FD3146FEF761
:1017A000D9FDE769E061284626693146FEF7CCFDA0
:1017B0008246584639465D46FEF7C6FD834650468A
:1017C0005946FEF76FFD2C99FEF7C4FDA061404617
:1017D0004946FEF767FD2C99FEF7BCFD6061504657
:1017E0005946FEF7B1FD2C99FEF7B4FD2061DDE905
:1017F0001E10FEF757FD804628463946FEF752FD7B
:10180000054640462946FEF79FFD2C99FEF7A2FDAE
:10181000E0601D983146FEF745FD0646DDE92010E3
:10182000FEF740FD074630463946FEF78DFD2C9900
:10183000FEF790FDA06040462946FEF733FD2C9947
:10184000FEF788FD606030462C9E3946FEF72AFD83
:101850003146FEF77FFD206022982034013085D18B
:1018600023B0BDE8F08F38B5002200920C468DF809
:1018700000006A460121002000F022F8204604F012
:101880007AFA38BD38B5002200920C468DF8000077
:101890006A460121002000F013F8204604F07CFA8B
:1018A00038BD38B5002200920C468DF800006A461B
:1018B0000121002000F004F8204604F093FA38BD1E
:1018C0002DE9F74F8946054600264FF480774FF003
:1018D000904432463946204601F07DFA00227900D4
:1018E000204601F078FADFF8A8A04FF480680022C3
:1018F0003946204601F06FFA280601D5012200E0A2
:1019000000224146504601F066FA0122394620463F
:1019100001F061FA6806761C050EF6B2082EE6D3D1
:1019200000223946204601F056FAC346B846002543
:10193000274622E002980024465D002241463846B0
:1019400001F049FA300601D5012200E00022594693
:10195000504601F040FA01224146384601F03BFA78
:101960007006641C060EE4B2082CE6D30022414641
:10197000384601F030FA6D1CEDB24D45DAD303B0B4
:101980003846BDE8F04F0122510201F024BA0000B0
:101990000004004810B500F0BFF9054802F0A6F9B0
:1019A000BDE810404FF480620249034800F090BE49
:1019B000001400202C150020841200202DE9F04195
:1019C000044600270D46006802F098FF064620688E
:1019D00002F090FF30435DD02068C1682E4E89012F
:1019E00005D5617F012902D1217F01290BD0022D6C
:1019F0001DD0206802F082FFB8B120688168C1F371
:101A0000400169B111E00125244902E08F4232D240
:101A10007F1C0268D2435206F8D440210160E8E7F7
:101A20008168314041F010018160012D11D02068A2
:101A300002F060FF48B120688168C1F3400121B91C
:101A40008168314041F020018160022D08D0032DD2
:101A500004D0042501F0C4F9064617E00C25F9E787
:101A60000825F7E701F0BCF9801B05280ED920688E
:101A7000806828420AD0E06D40F01000E065206EDA
:101A800040F0010020660120BDE8F08120688068F8
:101A90002842E7D10020F7E7C0FFFF7F000040A306
:101AA00010B5846AE16D11F0500F06D0E16DC906E2
:101AB00025D5204600F09DFC10BDE06D40F400707F
:101AC000E06520680168090716D502F01FFF78B1AC
:101AD0002068C068800400280ADBE06D20F4807074
:101AE000E065E06DC00403D4E06D40F00100E06506
:101AF000204600F06FFC10BDC0688007EBE7616D09
:101B0000496BBDE81040084710B5806AC16D41F0CF
:101B10004001C165016E41F00401016600F069FCFD
:101B200010BD10B5806A00F063FC10BD70B50446AE
:101B3000006881688268C1F3400112F0010F28D06B
:101B400039BB816801F00D01012914D18168124A65
:101B50001140891C816021680320086001F040F970
:101B6000054612E001F03CF9401B02280DD920681F
:101B70008068C00709D0E06D40F01000E065206E7D
:101B800040F001002066012070BD20688068C00719
:101B9000E8D1002070BD0000C0FFFF7FF8B504460B
:101BA000002000902068816811F0010F4AD18168FF
:101BB000254A114237D18168D5432940491C8160AB
:101BC0002068B0F1A04F02D02049884201D12048BE
:101BD00000E02048806800F0E07000020DD51E484B
:101BE0001E490068B0FBF1F0401C00EB4000800093
:101BF00000E0401E00900028FBD101F0F1F80646FD
:101C00001BE0816811F0010F03D181682940491C54
:101C1000816001F0E5F8801B02280ED92068006879
:101C2000C043C00709D0E06D40F01000E065206EB1
:101C300040F0010020660120F8BD20680168C9431A
:101C4000C907DED10020F8BD3F0000800001005030
:101C5000000300500007005024000020400D030046
:101C6000FEE70000014800F077BE0000F0120020FF
:101C70000D4902688A4201D20C4901E00B4920312A
:101C8000D2B21423083AB2FBF3F2436C02F01F0203
:101C900023F003031944816404498031C1640121A4
:101CA00091400165704700000804024000080240AE
:101CB0000179074A02EB81024265054A4432491E16
:101CC000826501F01F0201219140C165704700004B
:101CD000FC08024030B5D0E913456560446D14B18D
:101CE000D0E91645656090F8444004F01F050124D2
:101CF000AC40056C6C60046863608368102B0368FB
:101D000003D099600068C26030BD9A600068C1600D
:101D100030BD704772B6FEE730B587B000241F4A69
:101D20000094019402940394049405940121069470
:101D300012680B0401E0491C89B2B2FBF0F5B5FB57
:101D4000F1F59D42F7D2B2FBF0F0B0FBF1F215488D
:101D5000134B491E0360C0E901148021521E8161AA
:101D6000C0E9032401F039FF08B1FFF7D3FF4FF4B6
:101D70008050009069460B4802F06AF808B1FFF7FE
:101D8000C9FF2020049004A90694064801F0C8FE6B
:101D9000002801D0FFF7BEFF07B030BD24000020AF
:101DA00000040040001400202DE9F04114460022F8
:101DB0000A804FF480522280124A002340F2FF36FC
:101DC00032F813500F88BD4200D90D8032F81350FD
:101DD0002788BD4200D225805B1C9BB2B342EFD363
:101DE0000A882388D21A02800A88022303210A2043
:101DF00003F078F82288BDE8F041022303213C205B
:101E000003F070B82C1500202DE9F04F044690F82F
:101E100058009BB00F464FF0000B012812D0012054
:101E200084F8580000261796189620684FF0A048AE
:101E3000DFF81C91DFF81CA1474D404506D128462C
:101E4000009508E002201BB0BDE8F08F48450AD19C
:101E50005046CDF800A002F055FD0090206802F039
:101E600051FD40B109E0E06D40F02000E06584F8EC
:101E700058600120E7E7009850B1E06D40F0200085
:101E8000E0654FF0010B00BF84F858605846DAE770
:101E900020684146884201D0A84201D12F4800E085
:101EA0002F48D7F800C02F4B40F61F72BCF1000F2F
:101EB0002DD0D0F808C094F838802CF4604C4CEA4F
:101EC000483CD7F804804CEA080CC0F808C0D4F8A5
:101ED00000C08C4501D0AC4504D18968AB6801F0E5
:101EE000010109E0D9F80810DAF8085001F0010101
:101EF00005F001059B68294303F001031943C3D191
:101F0000BB68396819438368934319431DE08768A8
:101F100027F46047876027688F4201D0AF4204D121
:101F20008968AB6801F0010109E0D9F80810DAF816
:101F3000085001F0010105F001059B68294303F0F9
:101F400001031943A0D18168914381609CE700009F
:101F50000004005000050050000100500003005034
:101F600000070050000600502DE9F84F00270446F6
:101F7000009790F85800DFF81C840D46B9460128F8
:101F800011D0012684F85860206802F0B7FC60B1D7
:101F9000E06D40F02000E0655FF0010784F85890A4
:101FA0003846BDE8F88F0220FBE7D5E900210C2375
:101FB000206803EA91131844036B01F01F014FF0EE
:101FC0001F0C0CFA01FCC2F3846223EA0C038A4062
:101FD00013430363206802F091FC8246206802F0FC
:101FE00089FC5AEA00003CD1AA6829682068B2F14D
:101FF000004F37D002F092FC2068416921F0004187
:10200000416120686969C268C2F3C102520091400F
:102010002A69042A31D000EB82002B68026EDFF8B7
:1020200078C303F0F84302EA0C020B431A4342F070
:102030000041016622682869A96902EB8000026EEE
:1020400022F080720A430266297F226828690129EA
:1020500010D0002102EB8000026E22F000720A43D1
:1020600002667DE0002202F059FC2068416941F0DF
:102070000041C5E74FF00071ECE7002102F034FCAD
:10208000400320684FF0000172D002F02DFC90FA5E
:10209000A0F0B0FA80F1286842036ED090FAA0F068
:1020A000B0FA80F0814204D100221146206802F08B
:1020B00044FC0121206802F017FC400320684FF027
:1020C00001015DD002F010FC90FAA0F0B0FA80F1AE
:1020D0002868420359D090FAA0F0B0FA80F081420B
:1020E00004D100220121206802F027FC022120688F
:1020F00002F0FAFB400320684FF0020148D002F0E2
:10210000F3FB90FAA0F0B0FA80F12868420344D0C3
:1021100090FAA0F0B0FA80F0814204D100220221AE
:10212000206802F00AFC0321206802F0DDFB400376
:1021300020684FF0030133D002F0D6FB90FAA0F0F4
:10214000B0FA80F1286842032FD090FAA0F0B0FADC
:1021500080F0814204D100220321206802F0EDFBCF
:102160002068816811F0010F22D0ACE000E004E0AB
:1021700002F0BAFBC0F384618DE7C0F3846091E79D
:1021800002F0B2FBC0F38461A2E7C0F38460A6E76B
:1021900002F0AAFBC0F38461B7E7C0F38460BBE739
:1021A00002F0A2FBC0F38461CCE7C0F38460D0E707
:1021B0002A7B296850F8B03FC1F3120C23EA0C03C4
:1021C00002F0180C754A22FA0CF20A40134303601D
:1021D000E968414577D1286841031CD090FAA0F105
:1021E000B1FA81F1491C01F01F0109294FEA403180
:1021F00032D8002912D000BF90FAA0F1B1FA81F1D3
:1022000001F1010101F01F0106FA01F609D100BF39
:10221000C0F3846109E0C0F38461E3E7C0F3846143
:10222000EEE790FAA0F1B1FA81F101F1010101F0BC
:102230001F0146EA816102D1C0F3846003E090FA95
:10224000A0F0B0FA80F000F1010000F01F0000EBF8
:10225000400041EA005132E000290ED090FAA0F18E
:10226000B1FA81F101F1010101F01F0106FA01F655
:1022700006D100BFC0F3846106E0C0F38461F1E7DA
:1022800090FAA0F1B1FA81F101F1010101F01F0111
:1022900046EA816102D1C0F3846003E090FAA0F0C5
:1022A000B0FA80F000F1010000F01F003C4A00EBA2
:1022B000400002EB005041EA000141F00071AA68C1
:1022C000206802F02BFB37482B6803423FF466AED0
:1022D00021684FF0A04C3448344E354D614501D053
:1022E000A94201D1024600E032469268DFF8C4807C
:1022F00002F0E072434503D0DFF8BC80434521D1B2
:102300005FEA02281ED4614506D02C4B99427FF427
:1023100045AEA94200D0304642F40001826822F066
:10232000E0720A438260264826490068B0FBF1F05B
:10233000401C00EB4000800000E0401E00900028A0
:10234000FBD12BE6DFF8808043450FD15FEAC2184E
:102350000CD4A94202D11D4B9942F2D0614502D062
:10236000A94200D0304642F080710CE0DFF8608076
:102370004345E6D15302E4D4A942E2D0614500D0FE
:10238000304642F48001826822F0E0720A438260A3
:1023900004E6000000007F4000F0FF03FFFF07009D
:1023A000000020FE000008800003005000070050DD
:1023B00000010050000021C31000C0900006005032
:1023C00024000020400D0300000052C7000500500B
:1023D000000084CB044910B5884204D104F03CFAD3
:1023E00002490020887010BD8412002000000020E7
:1023F00070477047F8B54FF0000504002E46009571
:1024000002D0E06D10B107E00120F8BD204600F0D9
:1024100009F9266684F8586020688168C1F3407124
:1024200019B18168734A1140816020688168C1F3E5
:10243000007189B98168704A114041F08051816012
:102440006E486F490068B0FBF1F04000801C00E06E
:10245000401E00900028FBD120688168C1F3007104
:1024600041B9E16D41F01001E165216E41F00101DA
:102470002166012502F042FAE16DC90600D430B1AF
:10248000E06D40F01000E06501252846F8BDE06DE4
:1024900020F4807040F00200E0652068816811F04F
:1024A000010F27D14FF0A043564A984201D09042E5
:1024B00004D19968966801F001010AE052498968DF
:1024C000524E01F00101B66806F001063143504E4C
:1024D000B66806F0010631430CD1984201D0904213
:1024E00001D14C4800E04C486168826822F47C12BB
:1024F0000A438260E168E06B627F0843A16841EAB9
:102500004231084394F8241040EA0140012904D1E3
:10251000218D424A02EB41410843E16A29B101F4AD
:102520007871226B014342EA01002268D1683C4B7A
:1025300019400143D16020680169626B21F040615C
:1025400011430161206802F0D5F970BB207F94F837
:1025500038102268800340EA4100D16844F2020347
:1025600099430143D16020690028206801690AD09D
:1025700041F480310161206850F8C01F22696FF377
:102580000D01114307E021F480310161206850F80A
:10259000C01F6FF30D01016094F8400001280CD0BA
:1025A0002068016921F0010101616069012820684A
:1025B000016B21F00F0111D013E0D4E911010843A0
:1025C000D4E913121143084321680A6940F2FC73ED
:1025D0009A43104340F001000861E6E7226A521E68
:1025E00011430163E06D20F0020040F00100E0655E
:1025F0004BE70000C0FFFF5FC0FFFF7F240000200B
:10260000400D030000010050000400500005005080
:102610000006005000030050000700500000FEFFBD
:102620000740F0FF70B59CB00646142115A8FDF7D1
:1026300027FE54216846FDF723FE3068B0F1A04F15
:102640003DD14FF40040009080031190684600F0A7
:10265000CDFC08B1FFF75EFB1A49C86C40F400508E
:10266000C864C86C00F400501A90C86C40F00100B7
:10267000C864C86C002500F001001A900120159074
:102680000320CDE9160515A94FF0904000F07AFA25
:102690000E4C0D4820600520C4E901058020C4E9E6
:1026A0000350400060618000C4E9060520462562B1
:1026B00000F0B0F908B1FFF72DFB7465A6621CB0FD
:1026C00070BD00000010024008000240F01200201F
:1026D0002DE9F047044600684FF0A0483D4F914671
:1026E0008A46404501D0B84201D13B4900E03B4910
:1026F000896801F01F0502F001F9002868D194F8FB
:102700005800012864D0012084F85800344920681A
:10271000884201D1012000E00020401E28424FF0F5
:10272000000605D0052D03D0092D01D0012003E0BE
:102730002046FFF733FA18B184F85860BDE8F087F7
:10274000E06D40F60161884340F48070E0652068E8
:10275000B84201D1414605E02249884201D12249CF
:1027600000E00146814200D01DB9E06D20F48010E8
:10277000E065E06DC00404D5206E20F00600206600
:1027800000E02666616D1948C862616D18480863EB
:10279000616D1848486321681C20086084F85860FF
:1027A0002068416841F0100141602068C16841F033
:1027B0000101C16021684B4652464031606D00F016
:1027C00089F921688A680C4B1A40121D8A60B5E7A6
:1027D0000220B3E700010050000300500007005042
:1027E000000600500005005000040050A11A000827
:1027F000231B0008091B0008C0FFFF7F70B50446BB
:1028000090F85800012809D0012084F858000321CD
:102810002046FFF7D3F8050002D027E0022070BD64
:102820002068C16821F00101C160606D90F8251039
:10283000022907D100F01FF8050003D0E06D40F039
:102840004000E0652068416821F0100141602046A9
:1028500015B1FFF76BF909E0FFF768F9050005D13D
:10286000E06D20F4885040F00100E065002084F81D
:102870005800284670BD10B590F82530002101227F
:10288000022B03D00421C163012122E003681C68EC
:1028900024F00E041C60836C1C6824F480741C609B
:1028A00003681C6824F001041C6090F84430046C38
:1028B00003F01F0302FA03F36360D0E913345C6092
:1028C000436D33B11C6824F480741C60D0E9163465
:1028D0005C6080F82520002280F82420084610BD86
:1028E00070B590F82520002401212346022A07D044
:1028F0000422C26380F8251080F82430012429E0E6
:102900000268156825F00E0515600268156825F047
:1029100001051560826C156825F48075156090F8C6
:102920004420056C02F01F0201FA02F26A60D0E94D
:1029300013255560426D32B1156825F48075156018
:10294000D0E91625556080F8251080F82430816B79
:1029500001B18847204670BDF0B4016C0C68016875
:102960000D6890F8442002F01F06042202FA06F3D4
:10297000234211D06B070FD50B689B0603D40B685D
:1029800023F004030B6090F8441001F01F018A400B
:10299000016C4A60016B1DE0022303FA06F727422F
:1029A0004FF0000C4FF0010218D0AF0716D50C689D
:1029B000A40605D40C6824F00A040C6080F82520D5
:1029C00090F8441001F01F018B40016C4B6080F8BF
:1029D00024C0C16A00291AD0F0BC08470823B340BC
:1029E000234214D02B0712D50B6823F00E030B6083
:1029F00090F84410036C01F01F0102FA01F15960D4
:102A0000C26380F8252080F824C0416BE2E7F0BC67
:102A10007047000070B504000CD02B4A21681420C8
:102A2000914209D2294A0A44B2FBF0F08000606466
:102A300027480AE0012070BD234A52420A44B2FBF3
:102A4000F0F080006064204808382064022084F898
:102A500025000A6847F6F0708243D4E90203184360
:102A6000D4E904352B431843A3691843E369184399
:102A7000236A1843104308602046FFF7F9F8A0685E
:102A80000025B0F5804F00D16560A16C2079086009
:102A9000D4E9130141606068401E032808D820462D
:102AA000FFF706F9606D0560D4E91601416002E0A8
:102AB0006565A565E565E563012084F8250084F872
:102AC0002450002070BD000008040240F8FFFDBF44
:102AD0000000024070B5044690F82400002501284B
:102AE0000CD0012084F8240094F825600020012EE9
:102AF00006D084F824000225284670BD022070BD4F
:102B0000022684F82560E0632068066826F0010646
:102B100006602046FFF7DEF8206B00282068016879
:102B200002D041F00E0106E021F0040101602068AE
:102B3000016841F00A010160A06C0168C90303D576
:102B4000016841F480710160606D18B1016841F461
:102B5000807101602068016841F001010160CBE7EC
:102B600070B5044600F03CF90546601C02D00448EC
:102B70004068044400F034F9401BA042FAD370BD11
:102B8000180000202DE9F04FDFF8209200230126E5
:102B90000324A9F1040B85B00F2709F1040AABF156
:102BA000040EFAE006FA03F52A407CD091F804C03E
:102BB0000CF0030CBCF1010F02D0BCF1020F26D1C6
:102BC000D0F808C0CDF800C04FEA430C04FA0CF866
:102BD000CDF810C0DDF800C02CEA080CCDF800C01C
:102BE000D1F80C80DDF810C008FA0CF8DDF800C050
:102BF00048EA0C08C0F80880D0F804C02CEA050C9C
:102C00000D79C5F300159D4045EA0C0545600D7929
:102C1000ED43AD070ED0C5684FEA430804FA08FC3F
:102C200025EA0C05D1F808C00CFA08FC4CEA050CA2
:102C3000C0F80CC00D7905F00305022D16D1DD0892
:102C400000EB850CCDF808C0DCF820805D074FEA6A
:102C5000D56C07FA0CF528EA05080D6905FA0CF59C
:102C6000DDF808C045EA0805CCF8205005684FEAB1
:102C7000430CCDF808C004FA0CFC25EA0C0591F8C9
:102C800004C00CF00308DDF808C008FA0CF848EAA4
:102C90000508C0F800804D6815F4403F7CD0444DD5
:102CA000D5F860C000E077E04CF0010CC5F860C0DA
:102CB0002D6E23F0030C05F0010500953D4D654494
:102CC0000295AD684FEA837C4FEA1C7807FA08FC4E
:102CD00025EA0C05B0F1904F06D0DFF8DCC0604566
:102CE00005D14FF0010C20E04FF0000C1DE0DFF8A3
:102CF000CCC0604502D14FF0020C16E0DFF8C0C036
:102D0000604502D14FF0030C0FE0DFF8B8C060451A
:102D100002D14FF0040C08E0DFF8ACC0604502D1EE
:102D20004FF0050C01E04FF0060C0CFA08FC4CEAE1
:102D3000050C029DC5F808C0D9F80050CC46D1F862
:102D4000048095435FEAC82800D51543CCF80050AD
:102D5000DAF80050D446D1F8048095435FEA882819
:102D600000D51543CCF80050DBF80050DC46D1F814
:102D7000048095435FEA883800D51543CCF80050AD
:102D8000DEF80050F446D1F8048095435FEAC83875
:102D900000D51543CCF800505B1C0A6832FA03F5E5
:102DA0007FF400AF05B0BDE8F08F000008040140DB
:102DB00000100240000001400004004800080048E4
:102DC000000C00480010004800140048006908404A
:102DD00000D0012070470AB181617047816270475D
:102DE000014880687047000018000020054801680D
:102DF00009B90121016004490A68006810440860AB
:102E0000704700001C0000202000002010B50024A6
:102E1000032000F073F8002000F008F808B1012446
:102E200001E000F025F8204610BD000070B50E4E00
:102E300005460024706898B14FF47A71B1FBF0F048
:102E40000A490968B1FBF0F000F050FE40B9102DBE
:102E500006D200222946501E00F030F8356000E00E
:102E60000124204670BD000018000020240000202E
:102E70000A4882B0016E41F001010166016E01F065
:102E800001010091816D41F080518165806D00F0FC
:102E90008050009002B000F0A1B800000010024085
:102EA000002809DB00F01F02012191404009800049
:102EB00000F1E020C0F8001170470000F0B40E4BA4
:102EC0001B680C46C3F30223C3F10705042D00D988
:102ED0000425191D072901D2002300E0DB1E01266D
:102EE00006FA05F1491E214099409E40761E164083
:102EF0003143F0BC02F0A8BF0CED00E0064900F041
:102F0000070208684FF6FF03184040EA0220034A10
:102F100010430860704700000CED00E00000FA0567
:102F20002B492C4B0A6832214A432B4940B1B0F55A
:102F3000007F086829D020F4C06040F480602CE055
:102F40000868C0F34120022804D051F8800F20F413
:102F5000807022E0D1F8800020F48070C1F88000F9
:102F6000086820F4C06040F400700860B2FBF3F021
:102F7000401C00E0401E4A69520501D50028F9D1E5
:102F8000486940050AD503207047C0F34120022854
:102F900006D051F8800F40F4807008600020704720
:102FA000D1F8800040F48070C1F88000086820F4F7
:102FB000C06040F400700860B2FBF3F0401C00E019
:102FC000401E4A695205DBD50028F9D1D8E7000038
:102FD0002400002040420F00007000400248816839
:102FE00041F4804181607047007000402DE9F84352
:102FF000044600680026BB4D00035ED5A86D00277F
:10300000C00008D4A86D40F08050A865A86D0127C5
:1030100000F080500090DFF8D092D9F8001041F411
:103020008071C9F80010FFF7DBFE804606E000BFA4
:10303000FFF7D6FEA0EB080002282BD8D9F8000035
:10304000C005F5D5D5F8900010F4407014D0216D6E
:10305000814211D0D5F89000D5F8901020F440703E
:1030600041F48031C5F89010D5F8901021F48031EA
:10307000C5F89010C5F89000C00711D0FFF7B0FE5A
:10308000804641F2883907E0FFF7AAFEA0EB08016D
:10309000494501D903260BE0D5F890008007F3D508
:1030A000D5F89000216D20F440700843C5F89000D9
:1030B0001FB1A86D20F08050A8652078C00707D008
:1030C000D5F88800616820F003000843C5F888003F
:1030D0002078800707D5D5F88800A16820F00C007B
:1030E0000843C5F888002078400707D5D5F8880040
:1030F000E16820F030000843C5F888002078000718
:1031000007D5D5F88800216920F0C0000843C5F82C
:1031100088002078C00607D5D5F88800616920F4BA
:1031200040700843C5F888002078800607D5D5F898
:103130008800A16920F440600843C5F88800207821
:10314000400607D5D5F88800E16920F440500843CF
:10315000C5F888002078000607D5D5F88800216AD0
:1031600020F440400843C5F888002088C00507D5F2
:10317000D5F88800616A20F440300843C5F888001B
:103180002068800307D5D5F89C00A16A20F00300D1
:103190000843C5F89C002088800507D5D5F888002D
:1031A000E16A20F440200843C5F8880020884005E3
:1031B0000FD5D5F88800216B20F440100843C5F8DE
:1031C0008800206BB0F5801F03D1E86840F48010C0
:1031D000E860208800050FD5D5F88800616B20F4E1
:1031E00040000843C5F88800606BB0F5800F03D13C
:1031F000E86840F48010E8602088C0040FD5D5F856
:103200008800A16B20F040700843C5F88800A06BCF
:10321000B0F1807F03D1E86840F48010E860208836
:103220004FF0006180040ED5D5F88800E26B20F0E5
:1032300040601043C5F88800E06B884203D1E8681D
:1032400040F48010E860208840040ED5D5F888004E
:10325000226C20F040601043C5F88800206C884242
:1032600003D1E86840F48010E860208800040FD59E
:10327000D5F88800616C20F040500843C5F88800FC
:10328000606CB0F1805F03D1E86840F48030E860A2
:103290002068C0030FD5D5F88800A16C20F040400D
:1032A0000843C5F88800A06CB0F1804F03D1E868EE
:1032B00040F48030E860206840030FD5D5F89C00CA
:1032C000E16C20F440100843C5F89C00E06CB0F5B8
:1032D000001F03D1E86840F48010E8603046BDE884
:1032E000F883000000100240007000402DE9F04714
:1032F0000E4605004FF0000725D0DFF8AC81D8F866
:10330000000000F00F00B0420CD2D8F8001021F0FD
:103310000F013143C8F80010D8F8000000F00F008A
:10332000B04210D12968614CC80741F2883A5AD09E
:103330006868DFF87C91032808D0022820682DD027
:10334000400500282CDB0120BDE8F08720688001C3
:10335000F9D5E06800F00302E068C0F30310401CF8
:10336000032A19D0534A00BFB2FBF0F0E268C2F35F
:1033700006225043E268C2F34162521C5200B0FB85
:10338000F2F0484517D9A06810F0F00F0CD088076C
:1033900011D5A86840B10EE0474AE5E78003D0E7C1
:1033A00000F0B6F8484506D9A06820F0F00040F0DB
:1033B0008000A0608027A068696820F003000843AF
:1033C000A060FFF70DFD814606E000BFFFF708FD96
:1033D000A0EB090151453AD8A068696800F00C00DB
:1033E000B0EB810FF2D12868810714D5400703D5CF
:1033F000A06840F4E060A0602878000705D5A068C8
:1034000020F4605040F4E060A060A068A96820F05B
:10341000F000084304E0802F03D1A06820F0F00002
:10342000A060D8F80010404601F00F01B14216D953
:10343000016821F00F0131430160FFF7D1FC07461D
:1034400007E000BFFFF7CCFCC11B514501D90320A9
:103450007AE7D8F8000000F00F00B042F2D12878E7
:10346000400705D5A068E96820F4E0600843A06043
:103470002878000706D5A068296920F4605040EA42
:10348000C100A06000F044F8A1680C4AC1F3031128
:10349000515C01F01F01C8400949086009480068F3
:1034A000BDE8F047FFF7C2BC002002400010024018
:1034B00000B4C4040024F40000366E01766B0008EA
:1034C000240000201800002005480649006889688B
:1034D000054AC1F30221515C01F01F01C840704749
:1034E0002400002000100240866B000805480649B1
:1034F00000688968054AC1F3C221515C01F01F01CF
:10350000C84070472400002000100240866B00086D
:10351000184910B58868C0F381021748012A0BD0FA
:103520008A68164BC2F38102022A06D08A68C2F367
:103530008102032A03D0002010BD184610BDCA68BE
:1035400002F00304CA68C2F30312521C032C02D017
:10355000B0FBF2F001E0B3FBF2F0CA68C968C2F355
:1035600006225043C1F34161491C4900B0FBF1F010
:1035700010BD0000001002400024F40000366E016F
:103580002DE9F84304007AD02078F84DC00747D0E1
:10359000A868E96800F00C0001F003010C2802D0D3
:1035A000082817D001E0032914D06068B0F5803FE7
:1035B00017D0B0F5A02F286817D020F480302860ED
:1035C000286820F4802028606068E0B1FFF708FCDC
:1035D000064614E02868800322D560680028D2D00F
:1035E0001EE0286840F48030EDE740F48020286039
:1035F000F7E700BFFFF7F4FB801B642870D828684A
:103600008003F7D50CE0FFF7EBFB064605E000BFB3
:10361000FFF7E6FB801B6428F0D828688003F7D406
:10362000207880074CD5A868E96800F00C0001F00C
:1036300003010C2802D004280DD001E002290AD091
:10364000E068002828682BD040F480702860FFF7DD
:10365000C7FB064619E02868400502D5E068002847
:1036600091D06868217C20F0FE4040EA01606860EB
:10367000BF480068FFF7DAFB002800D120E072E1C4
:10368000FFF7AEFB801B0228B8D828684005F7D5A5
:103690006868217C20F0FE4040EA016068600FE02D
:1036A00020F480702860FFF79BFB064605E000BF12
:1036B000FFF796FB801B0228A0D828684005F7D4A6
:1036C0002078000729D560690028D5F8940013D028
:1036D00040F00100C5F89400FFF782FB064606E0C3
:1036E00090E000BFFFF77CFB801B022886D8D5F84E
:1036F00094008007F6D510E020F00100C5F8940092
:10370000FFF76EFB064604E0FFF76AFB801B02280A
:1037100078D8D5F894008007F6D42078400761D592
:10372000A86D0026C00008D4A86D40F08050A865A0
:10373000A86D012600F0805000908E480168C905F0
:1037400011D40168804641F480710160FFF748FBA5
:10375000074604E0FFF744FBC01B022852D8D8F804
:103760000000C005F6D5A068012815D00528D5F8B9
:10377000900016D020F00100C5F89000D5F8900018
:1037800020F00400C5F89000A06841F28838B8B174
:10379000FFF726FB07460EE0D5F8900040F0010049
:1037A000F0E740F00400C5F89000F5E7FFF718FBDC
:1037B000C11B414526D8D5F890008007F6D50CE00E
:1037C000FFF70EFB074604E0FFF70AFBC11B41456C
:1037D00018D8D5F890008007F6D41EB1A86D20F057
:1037E0008050A8652078800629D5A0690028D5F8E2
:1037F000980013D040F00100C5F89800FFF7F0FAE8
:10380000064606E075E000BFFFF7EAFA801B0228D3
:103810006FD8D5F898008007F6D510E020F00100A9
:10382000C5F89800FFF7DCFA064604E0FFF7D8FA7F
:10383000801B02285DD8D5F898008007F6D4E0698F
:10384000F0B3A968C1F3810103295DD0022828687B
:1038500020F08070286003D0FFF7C2FA04464BE0E6
:10386000FFF7BEFA064604E0FFF7BAFA801B02280B
:103870003FD828688001F7D4F4E908016FF00F02FF
:1038800002EB01110843218A5204490802EB41511D
:10389000A26841EA02210843217D4FF07E42490897
:1038A00002EB41610843217B40EAC160E968324A8A
:1038B00011400843E860286840F08070286000E00C
:1038C0005EE0E86840F08070E860FFF789FA04463F
:1038D00005E000BFFFF784FA001B022809D828681A
:1038E0008001F7D54CE000BFFFF77AFA001B0228F1
:1038F00002D90320BDE8F88328688001F4D4E86881
:103900001E490840E8603BE00128F3D0E868226ADD
:1039100000F00301914226D1616A00F0F002090132
:10392000103991421FD1A26A00F4FE41B1EB022F7F
:1039300019D194F82C2000F07841B1EBC26F12D16C
:10394000218E00F4C00249084905A1F500119142F9
:1039500009D194F8341000F0C06049084906A1F17B
:10396000007181420CD00120C4E700000010024029
:1039700018000020007000400C809F01FCFFEEFE4C
:103980000020B7E770B5040009D0606A002540B197
:1039900025616561A56294F85D0040B10CE00120ED
:1039A00070BD6068B0F5827FF4D0E561F2E784F81D
:1039B0005C50204600F05CF8022084F85D0020682E
:1039C000016821F040010160E1684FF4E06291423A
:1039D00001D9002001E04FF48050B1F5706F02D0A2
:1039E000914200D0A562A188228901F4827102F47B
:1039F00004421143227C02F002021143227D02F0B4
:103A000001021143228B02F400721143227F02F063
:103A10003802114394F8202002F080021143228DD5
:103A200002F40052114322681160A169042202EAE3
:103A3000114194F8242000F4805002F01002114348
:103A400094F8342002F008021143A28902F4706253
:103A500011430143206841602068C16921F400617D
:103A6000C1612566012084F85D00002070BD000062
:103A700010B586B0044614216846FCF701FC1249D3
:103A8000206888421ED11148816D41F480418165D2
:103A9000816D01F480410591C16C41F00201C16466
:103AA000C06C694600F0020005904FF46040009041
:103AB0000220019000200290039005200490044809
:103AC000FFF760F806B010BD00380040001002405B
:103AD000000400484FF0E0210428086903D020F0DA
:103AE00004000861704740F00400FAE710B5401E7A
:103AF000B0F1807F01D3012010BD4FF0E024606160
:103B00000F21601702F0A0F90020A06107202061BA
:103B1000002010BD7047704770477047704770476E
:103B2000F0B590F83C20012A43D0012580F83C50A4
:103B3000022280F83D2003685A689C681E4E1F4F81
:103B4000DFF87CC0B34203D0BB4201D0634504D14F
:103B500022F4700E4A6842EA0E02DFF868E002EAD8
:103B60000E02D1F800E04EEA020EC3F804E002684B
:103B7000B24212D0B2F1804F0FD0134B9A420CD008
:103B8000124B9A4209D0124B9A4206D0BA4204D044
:103B9000104B9A4201D0624504D1896824F0800319
:103BA0001943916080F83D50002180F83C10084690
:103BB000F0BD0220F0BD0000002C014000340140A7
:103BC000005001408FFFFFFD00040040000800404E
:103BD000000C004000400140704710B5040003D0C5
:103BE00094F83D0010B107E0012010BD002084F8DA
:103BF0003C00204600F022F8022084F83D00211D00
:103C0000206801F06BFA012084F8480084F83E0037
:103C100084F83F0084F8400084F8410084F84200B2
:103C200084F8430084F8440084F8450084F8460092
:103C300084F8470084F83D00002010BD10B586B020
:103C4000044614216846FCF71BFB21682448B1F1A7
:103C5000804F0CD0234A91422DD1816D41F0020159
:103C60008165806D00F00200059006B010BD816D89
:103C700041F001018165816D01F001010591C16C87
:103C800041F00101C164C06C002100F00100059009
:103C9000202000900220CDE90101CDE90310694602
:103CA0004FF09040FEF76EFF002211461C20FFF7F8
:103CB00005F91C2010E00C4A9142D6D1816D41F0EB
:103CC00004018165806D002200F00400059011461A
:103CD0001E20FFF7F3F81E20FFF7E2F8C5E700000B
:103CE00000100240000400400008004090F83D1021
:103CF000012901D001207047022180F83D100068A1
:103D00001249884214D0B0F1804F11D01049884236
:103D10000ED0104988420BD00F49884208D00F4975
:103D2000884205D00E49884202D00E49884207D108
:103D300081680D4A1140062906D0B1F5803F03D0B5
:103D4000016841F00101016000207047002C014032
:103D50000004004000080040000C00400034014016
:103D600000400140005001400700010090F83D1064
:103D7000012901D001207047022180F83D1001681F
:103D8000CA6842F00102CA6000681349884214D030
:103D9000B0F1804F11D0114988420ED010498842AD
:103DA0000BD01049884208D00F49884205D00F49EE
:103DB000884202D00E49884207D181680D4A1140DD
:103DC000062906D0B1F5803F03D0016841F001011A
:103DD0000160002070470000002C014000040040FA
:103DE00000080040000C0040003401400040014049
:103DF000005001400700010001680A6A41F21113F6
:103E00001A4207D10A6A9B001A4203D10A6822F0BB
:103E100001020A60012180F83D100020704701680E
:103E2000CA6822F00102CA6001680A6A41F21113ED
:103E30001A4207D10A6A9B001A4203D10A6822F08B
:103E400001020A60012180F83D1000207047000047
:103E500070B5044690F83C00002501281CD00126CE
:103E600084F83C60022084F83D0022689068334B5F
:103E7000184020F47F4090600868B0F5005F2ED0B5
:103E800016DC402849D009DCD0B1102818D02028F1
:103E900016D0302849D113E0022070BD50282AD016
:103EA000602830D070280FD0B0F5805F3DD13DE064
:103EB00010F00F0F39D10111A1F58031072934D845
:103EC00022680146104625E0CB68D1E9012120682F
:103ED00001F076F92068816841F0770109E0CB684C
:103EE000D1E90121206801F06BF92068816841F473
:103EF000804181601AE0CA684968206801F074F95D
:103F00005021206806E0CA684968206801F07DF900
:103F10006021206801F05EF908E0CA6849682068FD
:103F200001F062F940212068F4E7012584F83D6042
:103F3000002084F83C00284670BD000088FFCEFFBA
:103F400070472DE9F04104460068C66805694FF0E6
:103F50000007A90713D5B10711D5F91E016101208A
:103F60002077206880698007204602D0FFF7E8FFAD
:103F700004E000F0B7F8204600F0B5F827776807AE
:103F800016D5700714D521686FF00400086102206F
:103F900020772068806910F4407F204602D0FFF728
:103FA000CFFF04E000F09EF8204600F09CF8277751
:103FB000280715D5300713D521686FF00800086170
:103FC000042020772068C0698007204602D0FFF7D0
:103FD000B7FF04E000F086F8204600F084F8277769
:103FE000E80616D5F00614D521686FF010000861B8
:103FF000082020772068C06910F4407F204602D056
:10400000FFF79EFF04E000F06DF8204600F06BF82B
:104010002777E80708D0F00706D021686FF0010085
:104020000861204600F060F8280601D4A80408D5ED
:10403000300606D521686FF4025008612046FFF76C
:104040006AFDE80508D5300606D521686FF4807052
:1040500008612046FFF75EFD680608D5700606D5A4
:1040600021686FF040000861204600F069F8A8065A
:1040700008D5B00606D521686FF0200008612046FB
:10408000FFF74AFDE80208D5F00206D521686FF473
:10409000801008612046FFF741FDA80208D5B00254
:1040A00006D521686FF4001008612046FFF735FD42
:1040B000680208D5700206D521686FF48000086197
:1040C0002046FFF72CFD28020AD5300208D52168CA
:1040D0006FF4000008612046BDE8F041FFF77CBDA9
:1040E000BDE8F081704770472DE9F0410646114860
:1040F000114F124C864216D13868416A6160C26A1B
:10410000A368521C03FB02120025E260456260783E
:1041100020B1022305210A2000F0E4FE0120607096
:104120006560A560E570BE4202D1A068401CA06039
:10413000BDE8F0814C140020B413002000000020E2
:10414000704790F88410012918D0012180F884105C
:104150002421C0F8881001680A680B6823F0010365
:104160000B6022F000510022426603681960202192
:10417000C0F8881080F884201046704702207047ED
:104180007047704770B5044690F8840001281DD030
:10419000012084F884002420C4F888002068056881
:1041A000026822F0010202602068826822F06062E8
:1041B0000A438260204601F03BF820680560202019
:1041C000C4F88800002084F8840070BD022070BD0F
:1041D00070B5044690F8840001281DD0012084F8B1
:1041E00084002420C4F8880020680568026822F052
:1041F000010202602068826822F060420A43826005
:10420000204601F015F8206805602020C4F88800D9
:10421000002084F8840070BD022070BD7047704794
:10422000704700002DE9F04103680446D869196819
:104230009A6840F60F0528424FF000054FF002063D
:104240000AD187067ED501F0200702F0805C57EA8C
:104250000C0777D0616F42E1B64FDFF8DCC2174040
:1042600001EA0C0C57EA0C0C6CD05FEAC07C0CD055
:104270005FEAC15C09D54FF0010CC3F820C0D4F847
:10428000903043F00103C4F89030830709D5D30779
:1042900007D023681E62D4F8903043F00403C4F8BA
:1042A000903043070AD5D30708D026680423336229
:1042B000D4F8903043F00203C4F8903003070CD5D3
:1042C00001F020033B4308D0266808233362D4F86A
:1042D000903043F00803C4F8903003050BD54B0130
:1042E00009D526684FF400633362D4F8903043F068
:1042F0002003C4F89030D4F89030002B3DD08006D5
:1043000009D501F0200002F08051084303D0616F0D
:1043100009B120468847D4F8900021688968490689
:1043200002D410F0280F2AD0204601F065F820684A
:10433000806840061ED52068083050E8001F21F034
:10434000400100E021E040E80012002AF3D1D4F857
:10435000800078B179498163D4F88000FEF7C0FA13
:1043600000280AD0D4F88000816B00E02046BDE828
:10437000F04108472046FFF753FFBDE8F081204693
:10438000FFF74EFFC4F89050F7E7D4F86CC0202731
:10439000BCF1010F7ED15FEAC06C7BD55FEAC16CD6
:1043A00078D51020186220688068400651D5D4F86E
:1043B00080100A6850680004000C3ED0B4F85C30ED
:1043C00083423AD9A4F85E000868006880062CD4BD
:1043D000216851E8000F20F4807041E80002002AB3
:1043E000F6D12068083050E8001F21F0010140E8B4
:1043F0000012002AF5D12068083050E8001F21F093
:10440000400140E80012002AF5D1C4F88C70E5663E
:10441000216851E8000F20F0100041E80002002A56
:10442000F6D1D4F88000FEF726FA2667B4F85C00CF
:10443000B4F85E10401A81B207E0B4F85C10814213
:104440009BD11068800698D526672046FFF798FE16
:1044500093E7B4F85C00B4F85E10401A81B2B4F887
:104460005E00002889D0002987D0226852E8000F1A
:1044700020F4907042E80003002BF6D12D4BDB4373
:104480002068083050E8002F1A4040E8002CBCF1AA
:10449000000F00E00EE0F3D1C4F88C70E5666567AC
:1044A000206850E8002F22F0100240E80023002B83
:1044B000F6D1C9E7C60209D5560207D54FF48010D8
:1044C00018622046BDE8F041FFF7A9BE03060AD5F1
:1044D00001F0800302F40002134304D0A16F00290D
:1044E0007FF444AF49E7420611D54A060FD520466E
:1044F000016851E8002F22F0400241E80023002B20
:10450000F6D1C0F88870856700F0E0F835E7020260
:1045100006D54A0004D52046BDE8F041FFF77EBE2F
:10452000C00195D5002993DA2046BDE8F041FFF798
:1045300028BE00000100001020010004E95300081B
:1045400010B5040003D0D4F8880010B107E00120B2
:1045500010BD002084F88400204600F027F82420B5
:10456000C4F888002068016821F001010160A06A98
:1045700010B1204600F07EFE204601F0CFF9012860
:10458000E6D02068416821F490414160206881684C
:1045900021F02A0181602068016841F00101016079
:1045A0002046BDE8104000F0C9BE000010B59CB028
:1045B0000446142115A8FBF763FE54216846FBF757
:1045C0005FFE1A49206888422ED101200024CDE9DF
:1045D00000046846FEF70AFD08B1FDF79BFB14488E
:1045E000016E41F480410166016E01F480411A912F
:1045F000C16C41F00401C164C06C15A900F0040055
:104600001A90302015900220CDE916040720CDE93C
:1046100018400848FEF7B6FA002211462520FEF79A
:104620004DFC2520FEF73CFC1CB010BD00380140BD
:10463000001002400008004830B4D0F88C30202B25
:1046400002D0022030BC7047A9B1A2B10023C366DA
:104650000A4C0368A3420BD05B681B0208D50468B0
:1046600054E8003F43F0806344E80035002DF6D164
:1046700030BC01F09FBA0120E4E700000080004058
:1046800000680F4988421AD10E4900200A18527852
:104690000A54401C0628F9DB0A48103802788A714F
:1046A00049790D2905D10A2A03D1002101618182AE
:1046B00081750449012210390348FFF7BDBF7047D7
:1046C0000038014010000020981400207047FEE7D9
:1046D00070B50D46044600F05FF8782000F020F831
:1046E00000F0B0F8204600F01BF800F0ABF82846C8
:1046F00000F016F800F0A6F8BDE8704000F076B8BB
:1047000010B5064C012211022046FEF764FB20463C
:104710000122BDE810405102FEF75DBB00040048D5
:104720002DE9F0411B4C06462046216821F440212A
:104730002160216841F4802121604FF4007700223C
:104740003946FEF748FB00254FF48078300601D546
:10475000012200E0002241462046FEF73CFB7006A5
:10476000060E022002F00AF8012239462046FEF722
:1047700032FB022002F002F8002239462046FEF702
:104780002AFB022001F0FAFF6D1CEDB2082DDDD3EB
:10479000BDE8F0810004004870B5134C206820F497
:1047A00040202060206840F4802020600122150213
:1047B00029462046FEF70FFB0122560231462046CD
:1047C000FEF709FB042001F0D9FF0022294620460C
:1047D000FEF701FB042001F0D1FF31462046BDE881
:1047E00070400022FEF7F7BA0004004870B5144C80
:1047F000206820F440202060206840F48020206061
:104800004FF40075002229462046FEF7E4FA6E10A8
:10481000002231462046FEF7DEFA042001F0AEFF0A
:10482000012229462046FEF7D6FA012231462046CB
:10483000FEF7D1FABDE87040042001F09FBF0000F0
:10484000000400482DE9F041184C0025206820F4B0
:104850004020206020682060012216023146204658
:10486000FEF7B9FA012001F089FF0122570239460B
:104870002046FEF7B0FA012001F080FF08E06D1C31
:10488000EDB2FA2D04D9FFF7B1FF0120BDE8F081A8
:1048900031462046FEF79AFA0028F0D10022394628
:1048A0002046FEF798FA0020F0E7000000040048D8
:1048B00010B50C4C002210212046FEF78CFA022085
:1048C00001F046FF012210212046FEF784FA042061
:1048D00001F03EFF20460022BDE810401021FEF707
:1048E0007ABA00000004004800EB8100006E00F07E
:1048F000F84070478068C0F3C00070478068C0F31C
:10490000800070478068C0F380007047C06810F472
:10491000406F01D00020704701207047042303EA54
:10492000D15310B518444369C1F3045107248C4096
:10493000A3438A401343436110BD00EB8100016E25
:1049400021F00041114301667047000030B58BB083
:10495000002408940994202168460A94FBF790FCEF
:104960001E484FF0A041042501604FF44031C0E9DA
:104970000114C4600461C0E905450477447701214E
:10498000016280F824404FF49061C1622902016302
:1049900080F83840C46380F84040FDF72BFD08B133
:1049A000FDF7B8F908A90D480894FDF72DFA08B1EC
:1049B000FDF7B0F90A4800900620CDE901047F20F8
:1049C0000594CDE9030569460448FDF7CDFA0028B2
:1049D00001D0FDF79FF90BB030BD0000841200201C
:1049E000020030040D4808B5816C41F00401816477
:1049F000816C01F004010091816C41F0010181643E
:104A0000806C002200F00100009011460B20FEF7A0
:104A100055FABDE808400B20FEF742BA00100240EC
:104A20002DE9F04387B014216846FBF729FC2E4896
:104A3000C16C41F00401C164C16C01F00401059135
:104A4000C16C41F02001C164C16C01F020010591ED
:104A5000C16C41F00101C164C16C01F0010105911B
:104A6000C16C41F00201C164C06CDFF8809000F0BD
:104A700002000590002240F232714846FEF7ABF981
:104A80004FF440764FF09048002231464046FEF702
:104A9000A2F90024032002270125CDE90240CDE937
:104AA000007569464846FEF76DF84FF48660009041
:104AB000CDE90154694648460394FEF763F8009631
:104AC000CDE90154694640460394FEF75BF801AA1C
:104AD0001120009682E8A10069464846FEF752F888
:104AE00007B0BDE8F0830000001002400004004859
:104AF000124810B5104901604FF4827141600021E5
:104B00004FF47062C0E902124FF400720161C0E913
:104B100005123022C0E9072107224162C0E90A12CA
:104B2000016308214163FEF72DFF002803D0BDE893
:104B30001040FDF7EFB810BD0038004050130020C2
:104B400010B588B00024184800940194029403948E
:104B5000049405944FF080410694C0E90014611E4E
:104B6000C0E90241802104618161FFF736F808B194
:104B7000FDF7D0F84FF40050CDE9000402946946E7
:104B800009480394FFF764F908B1FDF7C3F80494EA
:104B900004A905480694FEF7C3FF002801D0FDF7DD
:104BA000B9F808B010BD0000B413002010B588B0EB
:104BB00000241748009401940294039404940594EB
:104BC00012490694C0E900144FF6FF71C0E9024192
:104BD00004618461FFF701F808B1FDF79BF84FF419
:104BE0008050009069460A48FFF732F908B1FDF796
:104BF00091F82020049004A906940548FEF790FF40
:104C0000002801D0FDF786F808B010BD0004004070
:104C10000014002010B588B00024184800940194B6
:104C2000029403940494059413490694016044F299
:104C30006721C0E9011442F20F71C0E903148461D5
:104C4000FEF7CBFF08B1FDF765F84FF480500090F8
:104C500069460A48FFF7FCF808B1FDF75BF80494D1
:104C600004A906480694FEF75BFF002801D0FDF773
:104C700051F808B010BD0000000800404C1400209E
:104C8000184810B5164901604FF4E1314160002128
:104C900081600C22C160C0E904128161C1610162BE
:104CA00041628162FFF74CFC08B1FDF733F8002147
:104CB0000C48FFF78DFA08B1FDF72CF800210948E0
:104CC000FFF760FA08B1FDF725F80648FFF739FA53
:104CD000002803D0BDE81040FDF71CB810BD00004F
:104CE0000038014098140020FEE700000349886066
:104CF0000068016841F020010160704760120020E7
:104D0000FEE70020AFF3008070B506465FF00004B8
:104D100004F1B000C0B201F026F8002001F023F841
:104D2000102001F020F80025304601F020F86D1C1D
:104D3000EDB2802DF8D3641CE4B2082CE8D370BD2A
:104D400010B5FFF7DDFC642001F012FDAE2001F08C
:104D50000AF8202001F007F8102001F004F8B02034
:104D600001F001F8C82000F0FEFF002000F0FBFF7A
:104D7000102000F0F8FF402000F0F5FF812000F047
:104D8000F2FF204C607800F0EEFFA12000F0EBFF76
:104D9000207808B1A62000E0A72000F0E4FFA820BA
:104DA00000F0E1FF3F2000F0DEFFA42000F0DBFF79
:104DB000D32000F0D8FF002000F0D5FFD52000F070
:104DC000D2FFF02000F0CFFFD92000F0CCFF22204E
:104DD00000F0C9FFDA2000F0C6FF122000F0C3FF88
:104DE000DB2000F0C0FF202000F0BDFF8D2000F090
:104DF000BAFF142000F0B7FFBDE81040AF2000F06C
:104E0000B2BF00003C10002010B50446B031C8B25B
:104E100000F0A9FF102040EA141000F0A4FF04F0F5
:104E20000F00BDE8104040F0010000F09CBF000002
:104E30002DE9F0410024203A0F468046012B21D075
:104E4000022B1DD1D6B2FFF7DFFF164D04EB061083
:104E5000285C00F08CFF641CE4B2082CF6D37F1CA5
:104E6000F9B24046FFF7D0FF5FF0000404EB0610F4
:104E70002844007A00F07BFF641CE4B2082CF5D3D0
:104E8000BDE8F081D5B2FFF7BFFF074905EB45004C
:104E900001EB4005285D00F06AFF641CE4B2062CBB
:104EA000F8D3EDE7C46D0008966B00087FB5144693
:104EB0000D46064653EC102B08A1684600F0B0FFE3
:104EC00000208DF80F0023466A462946304600F040
:104ED0004DF86846FBF7DFF904B070BD252E326C43
:104EE00066000000FEB5151E064605D009DA2D2025
:104EF0008DF80000554207E03022FFF799FF0120AE
:104F0000FEBD20208DF8000001246A460A2008E03A
:104F100095FBF0F700FB175795FBF0F53037175569
:104F2000641C002DF4DC00201055012004EBD47526
:104F30000AE000BF271A12F800E012F807C002F8D2
:104F400000C002F807E0401CB0EB650FF2DD9DF8F1
:104F500000002D28304604D0521C00F007F8601ED7
:104F6000FEBD00F003F82046FEBD00002DE9F0472D
:104F7000002591468A460446012B22D0DFF8BC80EA
:104F8000022B24D155E02038C7B27E2C04D90AF177
:104F90000100002400F0FF0A51462046FFF734FFCD
:104FA00007EB4700002608EB4007B85D00F0DFFE86
:104FB000761CF6B2062EF8D3A41D6D1CE4B2EDB239
:104FC00001E0DFF87C8019F805000028DBD1BDE89E
:104FD000F0872038C7B2782C04D90AF101000024E8
:104FE00000F0FF0A51462046FFF70EFF5FF0000673
:104FF00006EB071118F8010000F0B9FE761CF6B2B6
:10500000082EF5D30AF10100C1B22046FFF7FCFEDD
:105010005FF0000606EB071101EB0800007A00F0D4
:10502000A6FE761CF6B2082EF4D308346D1CE4B24A
:10503000EDB219F805000028CBD1C8E7C46D00080F
:10504000966B000870477047FDF7D0BE10B594B05E
:1050500038216846FBF714F914210EA8FBF710F964
:105060000020FDF75DFF01200090000403240621CD
:105070000190CDE9084102205521CDE90A100790A1
:105080000C900D906846FEF77BFA08B172B6FEE709
:105090000F20CDE90E0400201090119012900421F1
:1050A0000EA8FEF723F9002801D072B6FEE714B06F
:1050B00010BD00000248016841F4700101607047B2
:1050C00088ED00E00148FEF73CBF0000B41300206B
:1050D0000148FEF736BF00004C1400202DE9F04FC8
:1050E00002682E4B2E4E2F4FDFF8BCC02F4C304D98
:1050F0004FF0804B98420BD0584509D0B04207D0B2
:10510000B84205D0604503D0A04201D0A84204D1E6
:1051100022F070084A6842EA0802DFF89880DFF857
:105120009890DFF898A0984211D058450FD0B0421F
:105130000DD0B8420BD0604509D0A04207D0404501
:1051400005D0484503D0504501D0A84203D122F4F0
:105150004076CA6832434E6922F0800232430260D0
:105160008A68C2620A688262984209D0A04207D067
:10517000404505D0484503D0504501D0A84201D153
:1051800009690163012141610169C90703D001690E
:1051900021F001010161BDE8F08F0000002C014009
:1051A0000004004000080040000C004000340140B2
:1051B00000500140004001400044014000480140CF
:1051C00010B5846842EA032224F47F440A43224350
:1051D000826010BD8268034B1A400A4342F0070107
:1051E000816070478FFFCFFF10B5036A046A24F017
:1051F00001040462846924F0F00444EA021423F0F8
:105200000A020A438461026210BD10B5036A046A8F
:1052100024F010040462846923F0A00324F4704491
:1052200044EA023243EA01118261016210BD0000CA
:1052300030B5416EB9B1026891689268C1F34261BC
:105240000B4B520F9C5CE50003F10804A25CB5FB1C
:10525000F2F2A0F86A205A5C615CD200B2FBF1F174
:10526000A0F8681030BD0121A0F86A10F8E700002E
:10527000666B000890F82810090706D501684A688F
:10528000836B22F400421A434A6090F82810C90741
:1052900006D001684A68C36A22F400321A434A60A1
:1052A00090F82810890706D501684A68036B22F434
:1052B00080321A434A6090F82810490706D50168E1
:1052C0004A68436B22F480221A434A6090F82810FF
:1052D000C90606D501688A68C36B22F480521A4356
:1052E0008A6090F82810890606D501688A68036CE0
:1052F00022F400521A438A6090F82810490611D50A
:1053000001684A68436C22F480121A434A60416C77
:10531000B1F5801F06D101684A68836C22F4C0028F
:105320001A434A6090F82810090606D501684A68B1
:10533000C06C22F4002202434A6070472DE9F84312
:1053400000260446C0F89060FDF74AFD80462068BC
:1053500000684FF0200500076FF07E4713D54346E5
:10536000002229042046009700F0ACFC58B12168C7
:1053700051E8000F20F0800041E80002002AF6D139
:10538000C4F8885021E020680068400722D54346D1
:1053900000224FF480012046009700F093FCC8B132
:1053A000216851E8000F20F4907041E80002002AC3
:1053B000F6D12068083050E8001F21F0010140E8D4
:1053C0000012002AF5D1C4F88C5084F884600320C0
:1053D000BDE8F883C4F88850C4F88C5044F86C6F6A
:1053E000666026760020F3E710B5806A0021A0F8F9
:1053F0005E10FEF715FF10BD10B5026852E8001FE1
:1054000021F4907142E80013002BF6D10E4B026894
:10541000083252E8001F194042E80014002CF6D16F
:10542000C16E012908D1016851E8002F22F0100255
:1054300041E80023002BF6D12021C0F88C10002178
:10544000C166416710BD0000FEFFFFEF10B5B0F868
:105450006020D0F88C300168222B04D0886940F09D
:105460000800886110BD496A836D11401980816D03
:10547000891C8165B0F85E10491EA0F85E10B0F876
:105480005E100029EED1026852E8001F21F49071ED
:1054900042E80013002BF6D10168083151E8002FD3
:1054A00022F0010241E80023002BF5D12021C0F8B1
:1054B0008C10002141670167154B02689A420BD09E
:1054C0005268120208D5036853E8002F22F0806268
:1054D00043E80024002CF6D1C26E012A02D0FFF767
:1054E000CFF810BDC166026852E8001F21F010011C
:1054F00042E80013002BF6D10168CA69D243D206F4
:1055000001D410220A62B0F85C10FEF739FE10BD1B
:10551000008000402DE9F0470446B0F86060006864
:10552000C569D0F800A0D0F80890D4F88C102229D2
:1055300005D0816941F008018161BDE8F087B4F8C8
:1055400068704FF0000844E02068406AA16D304068
:105550000880A06D801CA065B4F85E00401EA4F811
:105560005E002068C569690730D0E9070AD05FEAA4
:10557000CA5107D501210162D4F8900040F0010022
:10558000C4F89000A8070BD55FEAC97008D021685D
:1055900002200862D4F8900040F00400C4F89000A3
:1055A00068070BD55FEAC97008D02168042008623B
:1055B000D4F8900040F00200C4F89000D4F89000B5
:1055C00020B12046FEF72CFEC4F89080B4F85E00AF
:1055D00000B30FB1A806B7D4B4F85E000028ACD071
:1055E000B4F868108142A8D92068083050E8001F3C
:1055F00021F0805140E80012002AF5D12A48606766
:10560000206850E8001F41F0200140E80012002A05
:10561000F6D192E7216851E8000F20F4807041E84C
:105620000002002AF6D1214A2068083050E8001F05
:10563000114040E80013002BF6D12020C4F88C0064
:10564000C4F874804046C4F87080194A21689142B9
:105650000BD04968090208D5226852E8001F21F0E2
:10566000806142E80013002BF6D1E16E012903D0DE
:105670002046FFF705F8AFE7E066216851E8000F24
:1056800020F0100041E80002002AF6D12068C1692C
:10569000C943C90601D410210162B4F85C10204648
:1056A000FEF76EFD98E700004D540008FEFFFFEF87
:1056B0000080004010B5B0F86020D0F88C30016850
:1056C000222B04D0886940F00800886110BD496A27
:1056D0001140826D1170816D491C8165B0F85E10BA
:1056E000491EA0F85E10B0F85E100029EED10168E6
:1056F00051E8002F22F4907241E80023002BF6D1EC
:105700000168083151E8002F22F0010241E800232E
:10571000002BF5D12021C0F88C10002141670167D2
:10572000154B02689A420BD05268120208D50368E2
:1057300053E8002F22F0806243E80024002CF6D1C9
:10574000C26E012A02D0FEF79BFF10BDC16602683F
:1057500052E8001F21F0100142E80013002BF6D19F
:105760000168CA69D243D20601D410220A62B0F895
:105770005C10FEF705FD10BD008000402DE9F047EC
:105780000446B0F860600068C569D0F800A0D0F8A1
:105790000890D4F88C10222905D0816941F00801C5
:1057A0008161BDE8F087B4F868704FF0000844E00C
:1057B0002068406AA16D30400870A06D401CA06553
:1057C000B4F85E00401EA4F85E002068C569690751
:1057D00030D0E9070AD05FEACA5107D5012101623A
:1057E000D4F8900040F00100C4F89000A8070BD551
:1057F0005FEAC97008D0216802200862D4F89000DE
:1058000040F00400C4F8900068070BD55FEAC97047
:1058100008D0216804200862D4F8900040F002000B
:10582000C4F89000D4F8900020B12046FEF7F8FCB0
:10583000C4F89080B4F85E0000B30FB1A806B7D4E6
:10584000B4F85E000028ACD0B4F868108142A8D942
:105850002068083050E8001F21F0805140E8001215
:10586000002AF5D12A486067216851E8000F40F00E
:10587000200041E80002002AF6D192E7216851E8B1
:10588000000F20F4807041E80002002AF6D1214A7E
:105890002068083050E8001F114040E80013002B3A
:1058A000F6D12020C4F88C00C4F874804046C4F8B7
:1058B0007080194A216891420BD04968090208D5C5
:1058C000226852E8001F21F0806142E80013002B9B
:1058D000F6D1E16E012903D02046FEF7D1FEAFE7F5
:1058E000E066206850E8001F21F0100140E8001237
:1058F000002AF6D12068C169C943C90601D4102124
:105900000162B4F85C102046FEF73AFC98E700000C
:10591000B5560008FEFFFFEF008000402DE9F04182
:105920000446016880682269E369104362690025C2
:105930001A431043DFF84CC20A68934B1A400243E3
:105940000A6020684168E26821F4405111434160D7
:105950002168A069614501D0226A10438A688B4B97
:105960001A4002438A602068C16A626A21F00F010E
:105970001143C1628649236886488B420DD1D0F815
:10598000880010F0030006D0012867D0022854D008
:10599000032851D164E001204FE07F498B420BD1B5
:1059A000D0F8880010F00C0047D0042845D0082813
:1059B00052D00C2840D153E078498B420BD1D0F81B
:1059C000880010F0300038D0102847D0202843D06D
:1059D000302831D144E072498B420BD1D0F8880095
:1059E00010F0C00029D0402838D0802834D0C028FA
:1059F00022D135E06B498B420ED1D0F8880010F4EB
:105A000040701AD0B0F5807F28D0B0F5007F23D049
:105A1000B0F5407F10D123E063450DD1D0F8880068
:105A200010F4406009D0B0F5806F17D0B0F5006F6A
:105A300012D0B0F5406F13D010205B4A5B4F0026A8
:105A40004FF40041634539D160B102280DD00428DC
:105A50000DD0082831D10EE00220EEE70420ECE75B
:105A60000820EAE7FDF730FD03E0114603E0FDF70B
:105A70004FFD01007BD0606A37F810206768B1FBEA
:105A8000F2F007EB4703834269D8B0EB073F66D8D3
:105A9000002308461946FAF7BBFB090241EA1061E8
:105AA00002027808101871413A460023FAF7B0FB59
:105AB0003F4AA0F54071914257D950E0E3694FF653
:105AC000EF788B422BD1092849D2DFE800F0050896
:105AD0000D48254848480E00FDF7F6FC01E0FDF7AB
