:020000040800F2
:1000000098090020B9020008DD1B00088B180008C1
:10001000911B0008AF0400085924000800000000EC
:100020000000000000000000000000008B1E00081F
:10003000B104000800000000891E00088D1E0008A1
:10004000D3020008D3020008D3020008D30200083C
:10005000D3020008D3020008D3020008D30200082C
:10006000D3020008D3020008D3020008D30200081C
:10007000D3020008D3020008D3020008D30200080C
:10008000D3020008D3020008D3020008D3020008FC
:10009000D3020008D3020008D3020008D3020008EC
:1000A000D3020008D3020008D3020008D3020008DC
:1000B000D3020008D3020008D3020008D3020008CC
:1000C000D3020008D3020008D3020008D3020008BC
:1000D000D30200083D240008D3020008D302000820
:1000E000D3020008D3020008D3020008D30200089C
:1000F000D3020008D3020008D3020008D30200088C
:10010000D3020008D3020008D3020008D30200087B
:10011000D3020008D3020008D3020008D30200086B
:10012000D3020008D3020008D3020008D30200085B
:10013000D3020008D3020008D3020008D30200084B
:10014000D3020008D3020008D3020008D30200083B
:10015000D3020008D3020008D3020008D30200082B
:10016000D3020008D3020008D3020008D30200081B
:10017000D3020008D3020008D3020008D30200080B
:10018000D3020008D3020008D3020008D3020008FB
:10019000D302000800000000D3020008D3020008C8
:1001A000D3020008D3020008D3020008D3020008DB
:1001B000D3020008D3020008D3020008D3020008CB
:1001C000D3020008D3020008D3020008D3020008BB
:1001D000D3020008D302000800F002F800F05CF837
:1001E0000AA090E8000C82448344AAF10107DA4592
:1001F00001D100F051F8AFF2090EBAE80F0013F088
:10020000010F18BFFB1A43F001031847D82800005C
:10021000F82800000A444FF0000C10F8013B13F0DE
:10022000070408BF10F8014B1D1108BF10F8015B4F
:10023000641E05D010F8016B641E01F8016BF9D142
:1002400013F0080F1EBF10F8014BAD1C0C1B09D199
:100250006D1E58BF01F801CBFAD505E014F8016B0B
:1002600001F8016B6D1EF9D59142D6D3704700009D
:100270000023002400250026103A28BF78C1FBD8AF
:10028000520728BF30C148BF0B6070471FB502F04E
:10029000FEFB1FBD10B510BD00F0D4F81146FFF7EE
:1002A000F5FF02F01DF900F0F2F803B4FFF7F2FFDA
:1002B00003BC00F0F5F800000948804709480047F2
:1002C000FEE7FEE7FEE7FEE7FEE7FEE7FEE7FEE706
:1002D000FEE7FEE704480549054A064B7047000063
:1002E000F91E0008D9010008980300209809002091
:1002F000980500209805002053EA020C00F0698060
:100300002DE9F04B4FF00006002B1FBFB3FA83F529
:1003100003FA05F424FA05F65E4012BF1643B2FA5A
:1003200082F502FA05F4C5F120051EBF22FA05FC8C
:1003300044EA0C04203556EA044C4FEA144418BF32
:10034000641C4FF000084FF00009904271EB030C61
:1003500039D3002919BFB1FA81F701FA07F6B0FACB
:1003600080F700FA07F6C7F120071EBF20FA07FC46
:1003700046EA0C062037B6FBF4FCA7EB0507103F56
:1003800007F01F0BCBF120060CFA0BFB2CFA06F63C
:1003900044BFB3460026202FA4BF5E464FF0000B9B
:1003A0005BEA060C08BF4FF0010B19EB0B09ABFB26
:1003B000027C48EB0608C01B06FB02CC0BFB03CCFF
:1003C00071EB0C01C1E70B46024641464846BDE8C9
:1003D000F08B13B54FF000004FF00001AFF3008039
:1003E000BDE81C4070474FF0000200B5134694462C
:1003F0009646203922BFA0E80C50A0E80C50B1F17D
:100400002001BFF4F7AF090728BFA0E80C5048BF90
:100410000CC05DF804EB890028BF40F8042B08BF2E
:10042000704748BF20F8022B11F0804F18BF00F82A
:10043000012B7047704770477047000000487047B5
:10044000380300207546FFF7F9FFAE460500694600
:10045000534620F00700854618B020B5FFF73AFF55
:10046000BDE820404FF000064FF000074FF00008B5
:100470004FF0000B21F00701AC46ACE8C009ACE836
:10048000C009ACE8C009ACE8C0098D46704710B59A
:100490000446AFF300802046BDE81040FFF705BFDB
:1004A00001491820ABBEFEE7260002007047FEE7B8
:1004B000704772B6FEE710B590F825300021012292
:1004C000022B03D00421C163012122E003681C68D0
:1004D00024F00E041C60836C1C6824F480741C607F
:1004E00003681C6824F001041C6090F84430046C1C
:1004F00003F01F0302FA03F36360D0E913345C6076
:10050000436D33B11C6824F480741C60D0E9163448
:100510005C6080F82520002280F82420084610BD69
:1005200070B590F82520002401212346022A07D027
:100530000422C26380F8251080F82430012429E0C9
:100540000268156825F00E0515600268156825F02B
:1005500001051560826C156825F48075156090F8AA
:100560004420056C02F01F0201FA02F26A60D0E931
:1005700013255560426D32B1156825F480751560FC
:10058000D0E91625556080F8251080F82430816B5D
:1005900001B18847204670BD2DE9F04FDFF8209269
:1005A000002301260324A9F1040B85B00F2709F1CC
:1005B000040AABF1040EFAE006FA03F52A407CD0F7
:1005C00091F804C00CF0030CBCF1010F02D0BCF197
:1005D000020F26D1D0F808C0CDF800C04FEA430C76
:1005E00004FA0CF8CDF810C0DDF800C02CEA080CB5
:1005F000CDF800C0D1F80C80DDF810C008FA0CF876
:10060000DDF800C048EA0C08C0F80880D0F804C043
:100610002CEA050C0D79C5F300159D4045EA0C0543
:1006200045600D79ED43AD070ED0C5684FEA43082C
:1006300004FA08FC25EA0C05D1F808C00CFA08FCFD
:100640004CEA050CC0F80CC00D7905F00305022D2D
:1006500016D1DD0800EB850CCDF808C0DCF8208051
:100660005D074FEAD56C07FA0CF528EA05080D6915
:1006700005FA0CF5DDF808C045EA0805CCF820506D
:1006800005684FEA430CCDF808C004FA0CFC25EAD3
:100690000C0591F804C00CF00308DDF808C008FA56
:1006A0000CF848EA0508C0F800804D6815F4403F92
:1006B0007CD0444DD5F860C000E077E04CF0010CF0
:1006C000C5F860C02D6E23F0030C05F00105009500
:1006D0003D4D65440295AD684FEA837C4FEA1C7836
:1006E00007FA08FC25EA0C05B0F1904F06D0DFF8B8
:1006F000DCC0604505D14FF0010C20E04FF0000C4C
:100700001DE0DFF8CCC0604502D14FF0020C16E0CE
:10071000DFF8C0C0604502D14FF0030C0FE0DFF8F6
:10072000B8C0604502D14FF0040C08E0DFF8ACC05F
:10073000604502D14FF0050C01E04FF0060C0CFAB9
:1007400008FC4CEA050C029DC5F808C0D9F8005019
:10075000CC46D1F8048095435FEAC82800D51543FC
:10076000CCF80050DAF80050D446D1F80480954314
:100770005FEA882800D51543CCF80050DBF800501C
:10078000DC46D1F8048095435FEA883800D51543EC
:10079000CCF80050DEF80050F446D1F804809543C0
:1007A0005FEAC83800D51543CCF800505B1C0A68D6
:1007B00032FA03F57FF400AF05B0BDE8F08F00001A
:1007C00008040140001002400000014000040048FD
:1007D00000080048000C00480010004800140048C1
:1007E0000069084000D0012070470AB1816170475C
:1007F0008162704701488068704700000000002057
:1008000002488168426811448160704700000020FE
:1008100010B50024032000F073F8002000F008F861
:1008200008B1012401E000F025F8204610BD0000C9
:1008300070B50E4E05460024706898B14FF47A7179
:10084000B1FBF0F00A490968B1FBF0F000F0ACFD33
:1008500040B9102D06D200222946501E00F030F873
:10086000356000E00124204670BD0000000000203B
:100870000C0000200A4882B0016E41F001010166BF
:10088000016E01F001010091816D41F0805181659F
:10089000806D00F08050009002B000F0A1B8000020
:1008A00000100240002809DB00F01F0201219140E6
:1008B0004009800000F1E020C0F8001170470000FE
:1008C000F0B40E4B1B680C46C3F30223C3F10705BB
:1008D000042D00D90425191D072901D2002300E0A9
:1008E000DB1E012606FA05F1491E214099409E4073
:1008F000761E16403143F0BC01F0B7BD0CED00E0B0
:10090000064900F0070208684FF6FF03184040EA66
:100910000220034A10430860704700000CED00E01D
:100920000000FA052B492C4B0A6832214A432B4917
:1009300040B1B0F5007F086829D020F4C06040F4D1
:1009400080602CE00868C0F34120022804D051F8F0
:10095000800F20F4807022E0D1F8800020F48070B5
:10096000C1F88000086820F4C06040F4007008609E
:10097000B2FBF3F0401C00E0401E4A69520501D56D
:100980000028F9D1486940050AD503207047C0F313
:100990004120022806D051F8800F40F48070086092
:1009A00000207047D1F8800040F48070C1F88000CA
:1009B000086820F4C06040F400700860B2FBF3F0F7
:1009C000401C00E0401E4A695205DBD50028F9D1E1
:1009D000D8E700000C00002040420F0000700040EB
:1009E0000248816841F48041816070470070004096
:1009F0002DE9F843044600680026BB4D00035ED590
:100A0000A86D0027C00008D4A86D40F08050A865EC
:100A1000A86D012700F080500090DFF8D092D9F83F
:100A2000001041F48071C9F80010FFF7E3FE804622
:100A300006E000BFFFF7DEFEA0EB080002282BD87F
:100A4000D9F80000C005F5D5D5F8900010F4407035
:100A500014D0216D814211D0D5F89000D5F89010B6
:100A600020F4407041F48031C5F89010D5F8901012
:100A700021F48031C5F89010C5F89000C00711D05E
:100A8000FFF7B8FE804641F2883907E0FFF7B2FE73
:100A9000A0EB0801494501D903260BE0D5F89000E9
:100AA0008007F3D5D5F89000216D20F440700843FD
:100AB000C5F890001FB1A86D20F08050A86520787F
:100AC000C00707D0D5F88800616820F0030008430C
:100AD000C5F888002078800707D5D5F88800A16878
:100AE00020F00C000843C5F888002078400707D59F
:100AF000D5F88800E16820F030000843C5F8880088
:100B00002078000707D5D5F88800216920F0C000BB
:100B10000843C5F888002078C00607D5D5F88800B6
:100B2000616920F440700843C5F888002078800689
:100B300007D5D5F88800A16920F440600843C5F8BE
:100B400088002078400607D5D5F88800E16920F4B0
:100B500040500843C5F888002078000607D5D5F82E
:100B60008800216A20F440400843C5F888002088A6
:100B7000C00507D5D5F88800616A20F440300843E5
:100B8000C5F888002068800307D5D5F89C00A16AC5
:100B900020F003000843C5F89C002088800507D595
:100BA000D5F88800E16A20F440200843C5F88800A1
:100BB000208840050FD5D5F88800216B20F440101F
:100BC0000843C5F88800206BB0F5801F03D1E868A2
:100BD00040F48010E860208800050FD5D5F8880023
:100BE000616B20F440000843C5F88800606BB0F5E5
:100BF000800F03D1E86840F48010E8602088C004CA
:100C00000FD5D5F88800A16B20F040700843C5F8D7
:100C10008800A06BB0F1807F03D1E86840F48010B9
:100C2000E86020884FF0006180040ED5D5F8880078
:100C3000E26B20F040601043C5F88800E06B88420A
:100C400003D1E86840F48010E860208840040ED5A5
:100C5000D5F88800226C20F040601043C5F8880069
:100C6000206C884203D1E86840F48010E860208856
:100C700000040FD5D5F88800616C20F0405008437F
:100C8000C5F88800606CB0F1805F03D1E86840F47B
:100C90008030E8602068C0030FD5D5F88800A16CCB
:100CA00020F040400843C5F88800A06CB0F1804FA8
:100CB00003D1E86840F48030E860206840030FD535
:100CC000D5F89C00E16C20F440100843C5F89C0066
:100CD000E06CB0F5001F03D1E86840F48010E860D4
:100CE0003046BDE8F883000000100240007000406C
:100CF0002DE9F0470E4605004FF0000725D0DFF83C
:100D0000AC81D8F8000000F00F00B0420CD2D8F847
:100D1000001021F00F013143C8F80010D8F800008E
:100D200000F00F00B04210D12968614CC80741F2B1
:100D3000883A5AD06868DFF87C91032808D00228E6
:100D400020682DD0400500282CDB0120BDE8F0876D
:100D500020688001F9D5E06800F00302E068C0F384
:100D60000310401C032A19D0534A00BFB2FBF0F015
:100D7000E268C2F306225043E268C2F34162521CA9
:100D80005200B0FBF2F0484517D9A06810F0F00F00
:100D90000CD0880711D5A86840B10EE0474AE5E7B6
:100DA0008003D0E700F0B6F8484506D9A06820F0E7
:100DB000F00040F08000A0608027A068696820F003
:100DC00003000843A060FFF715FD814606E000BF61
:100DD000FFF710FDA0EB090151453AD8A0686968FA
:100DE00000F00C00B0EB810FF2D12868810714D518
:100DF000400703D5A06840F4E060A06028780007B1
:100E000005D5A06820F4605040F4E060A060A068C0
:100E1000A96820F0F000084304E0802F03D1A06807
:100E200020F0F000A060D8F80010404601F00F015B
:100E3000B14216D9016821F00F0131430160FFF77B
:100E4000D9FC074607E000BFFFF7D4FCC11B5145A2
:100E500001D903207AE7D8F8000000F00F00B04273
:100E6000F2D12878400705D5A068E96820F4E06051
:100E70000843A0602878000706D5A068296920F4F7
:100E8000605040EAC100A06000F044F8A1680C4A3C
:100E9000C1F30311515C01F01F01C840094908600A
:100EA00009480068BDE8F047FFF7C2BC00200240D7
:100EB0000010024000B4C4040024F40000366E01A7
:100EC000CA2A00080C00002000000020054806493E
:100ED00000688968054AC1F30221515C01F01F01D5
:100EE000C84070470C00002000100240DA2A0008B9
:100EF0000548064900688968054AC1F3C221515C6A
:100F000001F01F01C84070470C0000200010024093
:100F1000DA2A0008184910B58868C0F3810217481A
:100F2000012A0BD08A68164BC2F38102022A06D02E
:100F30008A68C2F38102032A03D0002010BD18463C
:100F400010BDCA6802F00304CA68C2F30312521C3F
:100F5000032C02D0B0FBF2F001E0B3FBF2F0CA6860
:100F6000C968C2F306225043C1F34161491C4900DC
:100F7000B0FBF1F010BD0000001002400024F400AE
:100F800000366E012DE9F84304007AD02078FA4D3E
:100F9000C00747D0A868E96800F00C0001F0030121
:100FA0000C2802D0082817D001E0032914D060686B
:100FB000B0F5803F17D0B0F5A02F286817D020F4E7
:100FC00080302860286820F4802028606068E0B1C4
:100FD000FFF710FC064614E02868800322D56068FD
:100FE0000028D2D01EE0286840F48030EDE740F4BD
:100FF00080202860F7E700BFFFF7FCFB801B642818
:1010000070D828688003F7D50CE0FFF7F3FB06469D
:1010100005E000BFFFF7EEFB801B6428F0D82868CE
:101020008003F7D4207880074CD5A868E96800F0E1
:101030000C0001F003010C2802D004280DD001E0BF
:1010400002290AD0E068002828682BD040F480707C
:101050002860FFF7CFFB064619E02868400502D557
:10106000E068002891D06868217C20F0FE4040EACA
:1010700001606860C1480068FFF7DAFB002800D112
:1010800020E076E1FFF7B6FB801B0228B8D828687D
:101090004005F7D56868217C20F0FE4040EA0160F9
:1010A00068600FE020F480702860FFF7A3FB06461D
:1010B00005E000BFFFF79EFB801B0228A0D8286830
:1010C0004005F7D42078000729D560690028D5F8B5
:1010D000940013D040F00100C5F89400FFF78AFB9C
:1010E000064606E090E000BFFFF784FB801B022865
:1010F00086D8D5F894008007F6D510E020F00100DE
:10110000C5F89400FFF776FB064604E0FFF772FB94
:10111000801B022878D8D5F894008007F6D4207870
:10112000400761D5A86D0026C00008D4A86D40F026
:101130008050A865A86D012600F08050009090486E
:101140000168C90511D40168804641F480710160CD
:10115000FFF750FB074604E0FFF74CFBC01B0228DB
:1011600052D8D8F80000C005F6D5A068012815D0DF
:101170000528D5F8900016D020F00100C5F89000A1
:10118000D5F8900020F00400C5F89000A06841F266
:101190008838B8B1FFF72EFB07460EE0D5F890006F
:1011A00040F00100F0E740F00400C5F89000F5E7DA
:1011B000FFF720FBC11B414526D8D5F890008007DA
:1011C000F6D50CE0FFF716FB074604E0FFF712FB2D
:1011D000C11B414518D8D5F890008007F6D41EB140
:1011E000A86D20F08050A8652078800629D5A069D8
:1011F0000028D5F8980013D040F00100C5F89800F9
:10120000FFF7F8FA064606E077E000BFFFF7F2FACC
:10121000801B022877D8D5F898008007F6D510E013
:1012200020F00100C5F89800FFF7E4FA064604E054
:10123000FFF7E0FA801B022865D8D5F898008007F0
:10124000F6D4E069F0B3A968C1F38101032961D044
:101250000228286820F0807028600BD0E86820F011
:101260000300E860E86847490840E860FFF7C2FA11
:1012700004464BE0FFF7BEFA064604E0FFF7BAFA71
:10128000801B02283FD828688001F7D4F4E90801C0
:101290006FF00F0202EB01110843218A5204490842
:1012A00002EB4151A26841EA02210843217D4FF03F
:1012B0007E42490802EB41610843217B40EAC1605C
:1012C000E96800E062E0304A11400843E8602868BD
:1012D00040F080702860E86840F08070E860FFF7B8
:1012E00089FA044605E000BFFFF784FA001B0228D4
:1012F00009D828688001F7D548E004E0FFF77AFABA
:10130000001B022802D90320BDE8F8832868800169
:10131000F4D43BE00128F7D0E868226A00F003012A
:10132000914226D1616A00F0F00209011039914220
:101330001FD1A26A00F4FE41B1EB022F19D194F83B
:101340002C2000F07841B1EBC26F12D1218E00F455
:10135000C00249084905A1F50011914209D194F84C
:10136000341000F0C06049084906A1F100718142C3
:101370000CD00120C8E7000000100240000000204F
:1013800000700040FFFFEEFE0C809F010020BBE7D5
:101390004FF0E0210428086903D020F00400086120
:1013A000704740F00400FAE710B5401EB0F1807FAE
:1013B00001D3012010BD4FF0E02460610F216017C0
:1013C00001F053F80020A06107202061002010BD2B
:1013D00090F88010012918D0012180F88010242174
:1013E000C0F8841050F8641B0A680B6823F00103EE
:1013F0000B6022F000510022026050F8643C19603A
:101400002021016202771046704702207047704722
:10141000704770B5044690F8800001281DD0012067
:1014200084F880002420C4F88400206805680268DD
:1014300022F0010202602068826822F060620A43A2
:101440008260204600F060FD206805602020C4F81E
:101450008400002084F8800070BD022070BD70B54B
:10146000044690F8800001281DD0012084F88000F7
:101470002420C4F8840020680568026822F0010274
:1014800002602068826822F060420A43826020463F
:1014900000F03AFD206805602020C4F88400002098
:1014A00084F8800070BD022070BD7047704770479F
:1014B0002DE9F04103680446D86919689A6840F636
:1014C0000F0528424FF0000509D186067ED501F0B0
:1014D000200602F080573E4378D0216F27E1A94EC5
:1014E000A94F16400F40374370D0C70709D0CF052A
:1014F00007D501271F62D4F88C3043F00103C4F8EC
:101500008C3083070AD5D30708D0276802233B62B3
:10151000D4F88C3043F00403C4F88C3043070AD568
:10152000D30708D0276804233B62D4F88C3043F0FB
:101530000203C4F88C3003070CD501F020033343B9
:1015400008D0266808233362D4F88C3043F00803AF
:10155000C4F88C3003050BD54B0109D526684FF430
:1015600000633362D4F88C3043F02003C4F88C302D
:10157000D4F88C30002B3AD0800609D501F0200039
:1015800002F08051084303D0216F09B120468847FB
:10159000D4F88C0021688968490602D410F0280F1D
:1015A00027D0204600F070FD2068806840061BD5DB
:1015B0002068083050E8001F21F0400140E8001288
:1015C000002AF5D1E06F78B1704900E017E081633F
:1015D000E06FFEF7A5FF002809D0E06F816B00E007
:1015E0002046BDE8F04108472046FFF760FFBDE810
:1015F000F0812046FFF75BFFC4F88C50F7E7E76EF9
:101600002026012F7ED1C7067CD5CF067AD51020A3
:10161000186220688068400642D5E16F086840681B
:101620000004000CE3D0B4F85C208242DFD9A4F8B7
:101630005E000868006880062BD4206850E8001F10
:1016400021F4807140E80012002AF6D120680830A9
:1016500050E8001F21F0010140E80012002AF5D1F6
:101660002068083050E8001F21F0400140E80012D7
:10167000002AF5D1C4F88860E566216851E8000FBA
:1016800020F0100041E80002002AF6D1E06FFEF7DA
:1016900012FFB4F85C00B4F85E10401A81B22CE07E
:1016A000B4F85C00B4F85E10401A81B2B4F85E0081
:1016B00000289CD000299AD0226852E8000F20F41C
:1016C000907042E80003002BF6D12E4BDB432068DC
:1016D000083050E8002F1A4040E80027002FF6D1CC
:1016E000C4F88860E5662567226852E8000F20F09C
:1016F000100042E80003002BF6D12046FFF787FEDA
:1017000075E7FFE7C70209D5570207D54FF48010E8
:1017100018622046BDE8F041FFF7C8BE03060AD5AF
:1017200001F0800302F40002134304D0616F00292A
:101730007FF456AF5BE7420611D54A060FD5204627
:10174000016851E8002F22F0400241E80023002BFD
:10175000F6D1C0F88460456700F096F847E70202CA
:1017600006D54A0004D52046BDE8F041FFF79DBEEE
:10177000C001C5D50029C3DA2046BDE8F041FFF716
:1017800047BE000001000010200100047520000881
:1017900010B5040003D0D4F8840010B107E0012094
:1017A00010BD002084F88000204600F027F8242097
:1017B000C4F884002068016821F00101016020461E
:1017C00000F08CFC0128EBD0A06A10B1204600F09C
:1017D000BDFB2068416821F4904141602068816828
:1017E00021F02A0181602068016841F00101016057
:1017F0002046BDE8104000F00DBC000010B59CB0C4
:101800000446142115A8FEF7EEFD54216846FEF7A4
:10181000EAFD1A49206888422ED101200024CDE932
:1018200000046846FFF7E4F808B1FEF742FE1448EA
:10183000016E41F480410166016E01F480411A910C
:10184000C16C41F00401C164C06C15A900F0040032
:101850001A90302015900220CDE916040720CDE91A
:1018600018400848FEF798FE002211462520FFF791
:1018700027F82520FFF716F81CB010BD00380140EE
:1018800000100240000800487047FEE770B50D46A2
:10189000044600F05FF8782000F020F800F0B0F87F
:1018A000204600F01BF800F0ABF8284600F016F8D0
:1018B00000F0A6F8BDE8704000F076B810B5064C10
:1018C000012211022046FEF790FF20460122BDE8CA
:1018D00010405102FEF789BF000400482DE9F04195
:1018E0001B4C06462046216821F4402121602168D6
:1018F00041F4802121604FF4007700223946FEF741
:1019000074FF00254FF48078300601D5012200E0F5
:10191000002241462046FEF768FF7006060E0220B0
:1019200000F0C4FD012239462046FEF75EFF02208A
:1019300000F0BCFD002239462046FEF756FF02208B
:1019400000F0B4FD6D1CEDB2082DDDD3BDE8F081D3
:101950000004004870B5134C206820F4402020603B
:10196000206840F48020206001221502294620468C
:10197000FEF73BFF0122560231462046FEF735FFB7
:10198000042000F093FD002229462046FEF72DFF9B
:10199000042000F08BFD31462046BDE87040002257
:1019A000FEF723BF0004004870B5144C206820F4F3
:1019B00040202060206840F4802020604FF40075B3
:1019C000002229462046FEF710FF6E100022314605
:1019D0002046FEF70AFF042000F068FD0122294698
:1019E0002046FEF702FF012231462046FEF7FDFEAB
:1019F000BDE87040042000F059BD0000000400481C
:101A00002DE9F041184C0025206820F4402020608A
:101A1000206820600122160231462046FEF7E5FECE
:101A2000012000F043FD0122570239462046FEF70F
:101A3000DCFE012000F03AFD08E06D1CEDB2FA2D4D
:101A400004D9FFF7B1FF0120BDE8F08131462046FF
:101A5000FEF7C6FE0028F0D1002239462046FEF7E8
:101A6000C4FE0020F0E70000000400482DE9F0412A
:101A700086B014216846FEF7B6FC2948C16C41F0D7
:101A80000401C164C16C01F004010591C16C41F015
:101A90002001C164C16C01F020010591C16C41F0CD
:101AA0000101C164C16C01F001010591C16C41F0FB
:101AB0000201C164C06C4FF4806400F002004FF07A
:101AC00090470590002221463846FEF78EFEDFF84B
:101AD000548000224FF44A714046FEF786FE00947F
:101AE00001AA01240025032682E8700069463846D1
:101AF000FEF752FD28208DE8710069464046FEF74A
:101B00004BFD300200901120CDE90104022003902A
:101B100069464046FEF740FD06B0BDE8F081000092
:101B20000010024000040048184810B51649016032
:101B30004FF4E1314160002181600C22C160C0E9B5
:101B400004128161C161016241628162FFF720FE7E
:101B500008B1FEF7AEFC00210C48FFF780FC08B18D
:101B6000FEF7A7FC00210948FFF753FC08B1FEF778
:101B7000A0FC0648FFF72CFC002803D0BDE810406D
:101B8000FEF797BC10BD0000003801404402002061
:101B9000FEE70000094881680968C96989060CD513
:101BA00007490A68074B41685A54491C4160642937
:101BB00003D10021416001210170704738020020EB
:101BC00024380140D402002003498860006801687D
:101BD00041F020010160704738020020FEE700203C
:101BE000AFF3008070B506465FF0000404F1B0006A
:101BF000C0B200F032FC002000F02FFC102000F0FA
:101C00002CFC0025304600F02CFC6D1CEDB2802D24
:101C1000F8D3641CE4B2082CE8D370BD10B5FFF70C
:101C20004DFE642000F03CFCAE2000F016FC2020AD
:101C300000F013FC102000F010FCB02000F00DFCB0
:101C4000C82000F00AFC002000F007FC102000F083
:101C500004FC402000F001FC812000F0FEFB204C41
:101C6000607800F0FAFBA12000F0F7FB207808B1C3
:101C7000A62000E0A72000F0F0FBA82000F0EDFB7C
:101C80003F2000F0EAFBA42000F0E7FBD32000F0A7
:101C9000E4FB002000F0E1FBD52000F0DEFBF020AB
:101CA00000F0DBFBD92000F0D8FB222000F0D5FBB0
:101CB000DA2000F0D2FB122000F0CFFBDB2000F096
:101CC000CCFB202000F0C9FB8D2000F0C6FB1420C7
:101CD00000F0C3FBBDE81040AF2000F0BEBB000029
:101CE0001200002030B587B014216846FEF77BFB58
:101CF0002248C16C41F00101C164C16C01F00101D5
:101D00000591C16C41F00201C164C16C01F0020196
:101D10000591C16C41F00201C164C06C4FF4806454
:101D200000F002004FF09045059000222146284621
:101D3000FEF75BFD0120CDE9004002200290032068
:101D4000039069462846FEF727FC0D4C0022082127
:101D50002046FEF74AFD0820009069462046FEF71F
:101D60001BFC002220212046FEF73FFD2020009092
:101D700069462046FEF710FC07B030BD0010024057
:101D8000000400482DE9F041B5EEC00A3749F1EEF4
:101D900010FA02D29FED360A06E010EE100A8842D1
:101DA00002DD9FED340B05E010EE100A00F0FEFDA1
:101DB00041EC100B51EC100B00F0B2FB00EE100ADE
:101DC000F0EE000A20EE200A10EE100A00F0EEFD00
:101DD0009FED2A1B53EC112B00F0D4FB00F07AFC92
:101DE000C5B24FF480674FF0904800223946404614
:101DF000FEF7FBFC234E002208213046FEF7F5FCDF
:101E0000012000F053FB0024C5F34012202130468E
:101E1000FEF7EBFC6806050E012000F047FB0122EF
:101E200008213046FEF7E1FC012000F03FFB0022D4
:101E300008213046FEF7D9FC012000F037FB641C76
:101E4000E4B2062CE0D3012000F030FB0122394639
:101E500044464046FEF7C9FC012000F027FB394606
:101E60002046BDE8F0410022FEF7BFBC0000FC4167
:101E7000000000000000000000803F400000000063
:101E80000000E03F0004004870477047FEF7B8BC10
:101E900010B594B038216846FEF7A5FA14210EA8B3
:101EA000FEF7A1FA0020FEF73DFD0120009000049E
:101EB000032406210190CDE9084102205521CDE9F6
:101EC0000A1007900C900D906846FFF75BF808B178
:101ED00072B6FEE70F20CDE90E040020109011909D
:101EE000129004210EA8FEF703FF002801D072B65D
:101EF000FEE714B010BD00000248016841F4700113
:101F00000160704788ED00E030B5416EB9B10268FC
:101F100091689268C1F342610B4B520F9C5CE500E3
:101F200003F10804A25CB5FBF2F2A0F86A205A5C47
:101F3000615CD200B2FBF1F1A0F8681030BD012164
:101F4000A0F86A10F8E70000BA2A000890F82810F4
:101F5000C90706D001684A68C36A22F400321A43EE
:101F60004A6090F82810890706D501684A68036B13
:101F700022F480321A434A6090F82810490706D5A7
:101F800001684A68436B22F480221A434A6090F841
:101F90002810090706D501684A68836B22F40042BD
:101FA0001A434A6090F82810C90606D501688A6865
:101FB000C36B22F480521A438A6090F82810890675
:101FC00006D501688A68036C22F400521A438A60BD
:101FD00090F82810490611D501684A68436C22F42C
:101FE00080121A434A60416CB1F5801F06D1016826
:101FF0004A68836C22F4C0021A434A6090F82810A1
:10200000090606D501684A68C06C22F40022024322
:102010004A607047F8B500260446C0F88C60FEF7A9
:10202000E9FB0546206800686FF07E47000708D589
:102030002B4600224FF400112046009700F09AF939
:1020400060B92068006840070AD52B4600224FF48B
:1020500080012046009700F08DF908B10320F8BDFB
:102060002020C4F88400C4F8880044F86C6F002075
:102070002675F8BD10B5806A0021A0F85E10A0F8A2
:102080005610FFF714FA10BD10B5026852E8001F91
:1020900021F4907142E80013002BF6D10E4B026838
:1020A000083252E8001F194042E80014002CF6D113
:1020B000C16E012908D1016851E8002F22F01002F9
:1020C00041E80023002BF6D12021C0F88810002120
:1020D000C166016710BD0000FEFFFFEF2DE9F04172
:1020E0000446016880682269E3691043626900253B
:1020F0001A431043DFF84CC20A68934B1A4002435C
:102100000A6020684168E26821F44051114341604F
:102110002168A069614501D0226A10438A688B4B0F
:102120001A4002438A602068C16A626A21F00F0186
:102130001143C1628649236886488B420DD1D0F88D
:10214000880010F0030006D0012867D0022854D080
:10215000032851D164E001204FE07F498B420BD12D
:10216000D0F8880010F00C0047D0042845D008288B
:1021700052D00C2840D153E078498B420BD1D0F893
:10218000880010F0300038D0102847D0202843D0E5
:10219000302831D144E072498B420BD1D0F888000D
:1021A00010F0C00029D0402838D0802834D0C02872
:1021B00022D135E06B498B420ED1D0F8880010F463
:1021C00040701AD0B0F5807F28D0B0F5007F23D0C2
:1021D000B0F5407F10D123E063450DD1D0F88800E1
:1021E00010F4406009D0B0F5806F17D0B0F5006FE3
:1021F00012D0B0F5406F13D010205B4A5B4F002621
:102200004FF40041634539D160B102280DD0042854
:102210000DD0082831D10EE00220EEE70420ECE7D3
:102220000820EAE7FEF752FE03E0114603E0FEF75E
:1022300071FE01007BD0606A37F810206768B1FB3F
:10224000F2F007EB4703834269D8B0EB073F66D84B
:10225000002308461946FEF74FF8090241EA1061CB
:1022600002027808101871413A460023FEF744F83C
:102270003F4AA0F54071914257D950E0E3694FF6CB
:10228000EF788B422BD1092849D2DFE800F005080E
:102290000D48254848480E00FEF718FE01E0FEF7FD
:1022A00027FE010001D142E01146606A37F81000B4
:1022B000B1FBF0F04100606801EB5001B1FBF0F1BF
:1022C000A1F1100040452AD84FF6F07201EA020051
:1022D000C1F34201084328E0FEF71CFEE1E70928AC
:1022E0001DD2DFE800F005080D1C1E1C1C1C0E0092
:1022F000FEF7ECFD01E0FEF7FBFD010001D116E069
:102300001146606A37F81000B1FBF0F1606801EB2C
:102310005001B1FBF0F0A0F11001414504D90125B5
:1023200005E0FEF7F7FDE8E780B22168C86001200C
:10233000A4F86A0024F8680F2846A660E660BDE8A5
:10234000F081000000800040F369FFCFFFF4FF112F
:1023500000380140001002400044004000480040A6
:10236000004C0040005000400024F400A22A000865
:10237000FFFC0F002DE9F0479A4617460E4604462B
:102380004FF000094FF02008089D4AE0681C48D033
:10239000FEF730FAA0EB0A00A8422AD84DB3206815
:1023A000016849073DD5C069C043000539D421689B
:1023B0004FF400600862206850E8001F21F4D071DB
:1023C00040E80012002AF6D12068083050E8001FCB
:1023D00021F0010140E80012002AF5D144F8848F71
:1023E000C4F80480C4F8088004F8049C0320BDE805
:1023F000F087216851E8000F20F4D07041E8000216
:10240000002AF6D12068083050E8001F21F00101B1
:1024100040E80012002AF5D144F8848FC4F8048003
:10242000E2E72068C06936EA000004D00020B84224
:10243000ACD00020DBE70120F9E7000010B504482C
:10244000FFF7A8FBBDE810400248FFF731B80000D5
:102450000038014044020020FEE701460020FFF75B
:1024600015BA01464020FFF711BA0907090E0028E6
:1024700004DB00F1E02080F80014704700F00F004A
:1024800000F1E02080F8141D7047000010B50446EC
:102490000420FEF77DFF0148048010BD10000020DD
:1024A0004FF47A71484300F001B8000070B54FF066
:1024B000E024002265690949A36909884843A169A4
:1024C0009942FCD002D2A3EB010302E0A5EB010686
:1024D00033441A440B468242F1D370BD10000020F1
:1024E000FEF796F9FFF7D4FCFFF7C0FAFFF71CFBE5
:1024F000AA20FFF7CBFF0948FFF766FBFFF78EFB2B
:10250000FFF76DFBFFF7EEFBB7EE000AFFF73AFCB3
:1025100041F28830FFF7C4FFFEE7000044020020CC
:1025200021F00042A2F16052B2F5801F01F0004399
:1025300028BFD2F17F6C0BD95FEA001C43EAC202CC
:1025400042EB507018BF704728BF20F00100704761
:10255000B2F5801FBCBF184670474FEA410C1CF50E
:10256000001F02D2084600F097BA70B500F0DFF8FD
:1025700000000089FFF7F6BF4FF00040A0F5800093
:102580007047000010B591EA030F48BF83F0004385
:1025900000F12A81841A71EB030C05D2121943EB66
:1025A0000C03001B61EB0C01DFF824E14FEA11542E
:1025B000A4EB135C1EEA430F18BF9EEA445F73D07E
:1025C00023EA0E03DCF1200E21EA045143F48013C8
:1025D00032D322FA0CFE10EB0E0023FA0CFE41EB74
:1025E0000E01CCF1200E03FA0EFE10EB0E0051F19D
:1025F0000001B1F5801FCCF1200E32D201EB045165
:1026000012FA0EF2BDE8104058BF7047401C38BFA8
:102610005FEA420218BF7047002814BF20F0010093
:1026200041F100014FEA410313F5001F38BF704725
:10263000A1F1C04100F0C9B8012A43EB0302ACF19B
:10264000200CDCF11F0E32BF4FF0000E23FA0CF30A
:1026500010EB030041EB0451B4EB115FD0D0A1EBC0
:10266000045101F5801149085FEA300001EB045183
:102670000ED350F1000038BF12FA0EFE08D1BDE8AB
:102680001040C9E7401C38BF5FEA4202CAD1C3E725
:10269000BDE810404FEA410313F5001F38BF7047F3
:1026A000A1F1C04100F091B89EEA445F08D011EA60
:1026B0005E0FBDE8104004BF01F0004100207047EC
:1026C000BDE8104070B500F032F800BF64FBBE3EBC
:1026D0000000E0FF4FEA1153A3F58063D3F11E031E
:1026E000A8BFD3F1200C08DB4FF0004242EAC12220
:1026F00052EA505232FA03F0704709420BD4102BC1
:10270000C4BF0020704703F5787CBCF1FF3F05D0C3
:102710004FF0FF3070474FF00000704770B500F089
:1027200006F800BF4992248000207047F0E70EF1C0
:10273000020E2EF0030E5EF8046B364205D4012A19
:1027400043EB030515F5001F12D8012841EB010CDE
:102750001CF5001F0CD80ED14FEAD17C15F5001FD7
:102760000CEB4C0C0CF1020C08BF4CEBD37C04E0DE
:102770004FF0080C01E04FEAD37C0CEB4C0526FA35
:1027800005F606F00706B6F1040C06D20EEB860C31
:10279000BDE870404CF0010C6047DFE80CF0090B1D
:1027A00002024FF000414FF00000A1F5002170BD82
:1027B00019461046012851EB010418BFD4F5001446
:1027C00084BF002001F0004170BD0808A0F5001191
:1027D0004FEA31017047000010B591EA030F48BF7E
:1027E00083F000433FF5D6AE841A71EB030C07D299
:1027F00012198CF0004C43EB0C03001B61EB0C0135
:10280000DFF8A4E14FEA1154A4EB135C1EEA430F76
:1028100018BF9EEA445F00F0B08023EA6E03524284
:1028200021EA0451C3EB6E0338BF5B1EDCF1200EBE
:1028300025D322FA0CFE10EB0E0043FA0CFE41EBFE
:102840000E01CCF1200E03FA0EFE10EB0E0051F13A
:102850000001CCF1200E29D412FA0EF201EB045142
:10286000BDE8104058BF7047401C1CBFB2F1004F7C
:10287000704700280CBF491C20F00100704712EB84
:10288000020E43EB030218BF4FF0010E4EEA420264
:10289000ACF1200CDCF11E0E54D943FA0CFE10EB07
:1028A0000E0051F1FF31CCF11E0ED5D50EF1010E07
:1028B00012FA0EFE404141EB010101EB445C5FEA7C
:1028C0005C5C10D910EBDE7001EB045138BFBEF137
:1028D000004FBDE8104018BF704700280CBF491CCE
:1028E00020F00100704730D24FEAD42C11F50011CE
:1028F00024F400641BD0B1FA81F20B3AA41AA41E8E
:10290000D2F12003914030FA03F31943904001EBD8
:10291000CC71002C01EB0451BDE81040A8BF7047FA
:1029200001F1C0414FF0000001F000417047B0FAE2
:1029300080F310FA03F100D110BDE41A173C4805EA
:10294000C90AE4E701EB045110BD491001EB045141
:10295000BDE810404FEA300002E04FF00001704740
:102960004A0008BF0042F8D0B2F5001F28BF7047E8
:1029700001F000414FF0000070479EEA445F07D02D
:1029800011EA5E0FBDE8104004BF0021002070472F
:10299000BDE8104070B5FFF7CAFE00BF40DFF63E4D
:1029A00083F00041104670470000E0FF43004FEA0B
:1029B000D30C4FEA3C0C43401FBF40070CF1605161
:1029C00013F0FE4F70471CF0006F03D100200CF095
:1029D000004170470CF0004343EA507010B540EAE4
:1029E000CC0000F00EF800BF000000924FEA00019A
:1029F000FFF7EBBE4FF000414FF00000A1F50021C2
:102A000070470EF1020E2EF0030E5EF8044B2442C6
:102A100004D44FEA4102B2F17F4F11D84FEA40038C
:102A2000B3F17F4F0CD80ED14FEAD07CB2F17F4F7B
:102A30000CEB4C0C0CF1020C08BF4CEBD17C04E00D
:102A40004FF0080C01E04FEAD17C0CEB4C0324FA68
:102A500003F404F00704B4F1040C06D20EEB840C6A
:102A6000BDE810404CF0010C6047DFE80CF00708AF
:102A700002024FF00040A0F5800010BD0846420061
:102A800018BFD2F1807288BF00F0004010BD4FF037
:102A90004070E1EE100A7047FF2141EAD050C005B6
:102AA0007047010002000400060008000A000C0044
:102AB0001000200040008000000101010103070117
:102AC00000000804020408010101000000000000E9
:102AD00000000102030406070809000000000102CB
:102AE00003040000042B0008000000204402000042
:102AF00014020008C02C0008440200205407000003
:102B000070020008321082012B24F40E12FF1C10F8
:102B10008C84012B85F6061484940C101020201050
:102B200008040201FF01020408102020160809CE43
:102B3000B8082C027A4A01137A02191B1112031EDB
:102B4000FF4949497F0419401560020CC0100AF87A
:102B5000888888FF8888A818101004047C03806087
:102B60001F80432C10284681803D808282FE031AFC
:102B70008059138660258040300F22FF17808442E1
:102B800021100C1010407C407F484840F2121AD6A9
:102B90001212F2022010908E404F201E804F2018FB
:102BA0000710204F80200E14A4442434AD662494D2
:102BB0000444A414180C08090808090909FD0909A6
:102BC0000B0922084EF808FF08F8A1247A02021225
:102BD0000F1BFF080439A01967111AF06D180AF0CD
:102BE00080904C57A4544C8450180F1F100F081F8E
:102BF00010101515FF1515101088200D60F807042A
:102C0000E4A4A4BFA4A4E4041A019D3C40407FEFC7
:102C1000847F40404BFF0801290B6A4101295F2056
:102C200010100C4424140405060404142444140C49
:102C30002B40401B2A7F05493F1BFE4001112EFF00
:102C4000804020103F111C7F2020782A3F1623400F
:102C50007828090202C2020202FE820119BF191578
:102C60001977390439381602E222223E28080888EA
:102C700048390E08C880154382423E200921712937
:102C8000252321287039961DF8898E880139A019CD
:102C9000681B1807485480403F8B04840119E0CA20
:102CA000200111300E2010E824272424E424342CA1
:102CB00020E01D80601F090107127F090949897FF3
:04000005080001D915
:00000001FF
