:020000040800F2
:10000000780A00208901000809140008711000080E
:10001000D1130008E3030008D91B0008000000000A
:10002000000000000000000000000000BB160008F7
:10003000E503000800000000B9160008ED180008EC
:10004000A3010008A3010008A3010008A301000800
:10005000A3010008A3010008A3010008A3010008F0
:10006000A3010008A3010008A3010008A3010008E0
:10007000A3010008A3010008A3010008A3010008D0
:10008000A3010008A3010008A3010008A3010008C0
:10009000A3010008A3010008A3010008A3010008B0
:1000A000A3010008A3010008A3010008A3010008A0
:1000B000A3010008A3010008A3010008A301000890
:1000C000A3010008A3010008A3010008A301000880
:1000D000A3010008591B0008A3010008A3010008A0
:1000E000A3010008A3010008A301000800F002F822
:1000F00000F03AF80AA090E8000C82448344AAF188
:100100000107DA4501D100F02FF8AFF2090EBAE885
:100110000F0013F0010F18BFFB1A43F0010318473B
:10012000641C0000841C0000103A24BF78C878C109
:10013000FAD8520724BF30C830C144BF04680C60ED
:10014000704700000023002400250026103A28BF35
:1001500078C1FBD8520728BF30C148BF0B60704739
:100160001FB51FBD10B510BD00F001F91146FFF716
:10017000F7FF01F0D1FD00F01FF903B4FFF7F2FF24
:1001800003BC00F027F900000948804709480047F0
:10019000FEE7FEE7FEE7FEE7FEE7FEE7FEE7FEE737
:1001A000FEE7FEE704480549054A064B7047000094
:1001B0004F190008ED00000878040020780A00209C
:1001C000780600207806002053EA020C00F06980CF
:1001D0002DE9F04B4FF00006002B1FBFB3FA83F55B
:1001E00003FA05F424FA05F65E4012BF1643B2FA8C
:1001F00082F502FA05F4C5F120051EBF22FA05FCBE
:1002000044EA0C04203556EA044C4FEA144418BF63
:10021000641C4FF000084FF00009904271EB030C92
:1002200039D3002919BFB1FA81F701FA07F6B0FAFC
:1002300080F700FA07F6C7F120071EBF20FA07FC77
:1002400046EA0C062037B6FBF4FCA7EB0507103F87
:1002500007F01F0BCBF120060CFA0BFB2CFA06F66D
:1002600044BFB3460026202FA4BF5E464FF0000BCC
:100270005BEA060C08BF4FF0010B19EB0B09ABFB57
:10028000027C48EB0608C01B06FB02CC0BFB03CC30
:1002900071EB0C01C1E70B46024641464846BDE8FA
:1002A000F08B13B54FF000004FF00001AFF300806A
:1002B000BDE81C40704710B5203AC0F00B80B1E893
:1002C0001850203AA0E81850B1E81850A0E818508B
:1002D000BFF4F5AF5FEA027C24BFB1E81850A0E894
:1002E000185044BF18C918C0BDE810405FEA827CAE
:1002F00024BF51F8043B40F8043B08BF7047D207C5
:1003000028BF31F8023B48BF11F8012B28BF20F865
:10031000023B48BF00F8012B70474FF0000200B5C8
:10032000134694469646203922BFA0E80C50A0E818
:100330000C50B1F12001BFF4F7AF090728BFA0E8C6
:100340000C5048BF0CC05DF804EB890028BF40F892
:10035000042B08BF704748BF20F8022B11F0804FD4
:1003600018BF00F8012B70477047704770477546FB
:1003700000F02CF8AE4605006946534620F0070011
:10038000854618B020B5FFF70DFFBDE820404FF0BF
:1003900000064FF000074FF000084FF0000B21F06F
:1003A0000701AC46ACE8C009ACE8C009ACE8C0093C
:1003B000ACE8C0098D46704710B50446AFF3008025
:1003C0002046BDE81040FFF7D8BE00000048704747
:1003D0001804002001491820ABBEFEE726000200E9
:1003E0007047FEE7704772B6FEE7000098220149A9
:1003F000FFF761BF8003002010B590F821100022A4
:10040000022905D00421816380F82020012010BD3D
:1004100001680B6823F00E030B6001680B6823F082
:1004200001030B6090F84030C46B012101FA03F323
:10043000636080F8211080F82020104610BD000075
:1004400010B590F821100024022903D00421816303
:1004500001243DE001680A6822F00E020A6001688A
:100460000A6822F001020A601A4A0168914201D129
:10047000012121E0174A1432914201D110211BE0E1
:10048000144A2832914201D1891515E0114A3C32B3
:10049000914201D189140FE00E4A5032914202D1AB
:1004A0004FF4803108E00B4A6432914202D14FF49C
:1004B000801101E04FF08071064A083A5160012135
:1004C00080F82110002180F82010416B01B188478D
:1004D000204610BD080002402DE9F84FDFF8B89122
:1004E0000024A9F1040B23460F2709F1040AABF1FC
:1004F000040EC9E00125A5402A40AA427DD1674EDD
:10050000D1F804C0ACEB0608B44532D014DCBCF121
:10051000030F3AD009DCBCF1000F2AD0BCF1010F67
:100520001CD0BCF1020F31D11DE0BCF1110F17D06E
:10053000BCF1120F2AD119E0B8F5881F19D006DCDA
:10054000B8F5803F15D0B8F5801F1FD111E0B8F580
:10055000001F0ED0B8F5041F18D10AE0CB6815E0D3
:10056000CB681B1D12E0CB6808330FE0CB680C335F
:100570000CE08B682BB1012B4FF0080303D04561D1
:1005800004E0042302E0056100E00023FF2A01D813
:10059000064601E000F104064FEA840501D9A5F101
:1005A0002005D6F8008007FA05FC28EA0C0803FAB3
:1005B00005F548EA0508C6F800804D68ED0062D5EB
:1005C000374DAE6946F00106AE61AD6924F0030611
:1005D00005F001050095334D06EB050CDCF80850DD
:1005E000A607360F07FA06F825EA0805DFF8B880EF
:1005F000404503D14FF0000817E044E0DFF8AC803D
:10060000404502D14FF001080FE0DFF8A4804045DB
:1006100002D14FF0020808E0DFF89880404502D18F
:100620004FF0030801E04FF0040808FA06F848EA22
:100630000508CCF808804D68D9F80060ED024D46F9
:1006400001D5164300E096432E604D68DAF800604D
:10065000AD02554601D5164300E096432E604D6825
:10066000DBF80060AD035D4601D5164300E096431C
:100670002E604D68DEF80060ED03754601D5164327
:1006800000E096432E60641C0D682A46E5407FF426
:1006900031AFBDE8F88F00000804014000001110E0
:1006A000001002400000014000080140000C014021
:1006B00000100140001401400AB1016170470904B3
:1006C000FBE7000001488068704700000000002040
:1006D0000248816802781144816070470000002060
:1006E000074810B5016841F010010160032000F0D7
:1006F00075F80F2000F006F800F024F8002010BD77
:100700000020024070B50D4D04464FF47A712878F0
:10071000B1FBF0F00A490968B1FBF0F000F0E8FA2B
:1007200048B9102C07D200222146501E00F036F89E
:1007300000206C6070BD012070BD00000000002032
:100740000C0000200C4808B5816941F0010181616D
:10075000816901F001010091C16941F08051C161DD
:10076000C06900F0805000900448416821F0E061C9
:1007700041F00071416008BD0010024000000140DE
:10078000002809DB00F01F02012191404009800090
:1007900000F1E020C0F8001170470000F0B40E4BEB
:1007A0001B680C46C3F30223C3F10705042D00D9CF
:1007B0000425191D072901D2002300E0DB1E0126B4
:1007C00006FA05F1491E214099409E40761E1640CA
:1007D0003143F0BC01F03CBA0CED00E0064900F0FA
:1007E000070208684FF6FF03184040EA0220034A58
:1007F00010430860704700000CED00E00000FA05AF
:100800002DE9F0470F46050061D0434E306800F0F7
:100810000700B84209D2306820F007003843306042
:10082000306800F00700B84251D128683B4C81077E
:1008300012D5400703D5606840F4E0606060287816
:10084000000703D5606840F4605060606068A96884
:1008500020F0F000084360602878C00728D068685E
:10086000012810D02168022810D0890700292EDA2B
:10087000616821F0030101436160FFF723FF8046B7
:1008800041F288390DE021688903EFE78901EDE73E
:10089000FFF718FFA0EB0801494502D90320BDE886
:1008A000F0876068696800F00C00B0EB810FEFD151
:1008B000306800F00700B8420BD9306820F007001C
:1008C00038433060306800F00700B84201D00120A2
:1008D000E5E72878400705D56068E96820F4E0601E
:1008E000084360602878000706D56068296920F40D
:1008F000605040EAC100606000F038F86168084A62
:10090000C1F30311515CC8400649086006480068FD
:10091000FFF7F8FE0020C2E700200240001002406E
:100920006A1D00080C00002004000020044805494E
:1009300000684968044AC1F30221515CC84070470D
:100940000C000020001002407A1D000804480549F0
:1009500000684968044AC1F3C221515CC84070472D
:100960000C000020001002407A1D00080E4A516859
:100970000E4801F00C03042B11D0082B0FD10C48AA
:10098000C1F38343C903C05C0AD55168084AC1F367
:100990004041921E515C054A5043B0FBF1F0704754
:1009A00004494843704700000010024000127A00DA
:1009B0005A1D000800093D002DE9F84F040070D0D1
:1009C0002078C04DC00749D06868C0F38100012875
:1009D00007D06868C0F38100022809D16868C003A5
:1009E00006D52868800339D560680028E7D035E04F
:1009F0006068B0F5803F0BD010B1B0F5A02F11D0DA
:100A0000286820F480302860286820F4802002E0E4
:100A1000286840F480302860606890B1FFF752FE8B
:100A200006460AE0286840F480202860F0E700BF0E
:100A3000FFF748FE801B642873D828688003F7D529
:100A40000CE0FFF73FFE064605E000BFFFF73AFE69
:100A5000801B6428F0D828688003F7D420789A4E49
:100A600080074FF001094FF0000839D5686810F091
:100A70000C0F07D06868C0F38100022809D16868AC
:100A8000C00306D42868800714D52069012808D13E
:100A900010E02069B0B1C6F80090FFF713FE0746DA
:100AA00005E00AE1FFF70EFEC01B0228C4D8286843
:100AB0008007F7D52868616920F0F80040EAC10096
:100AC00028600DE0C6F80080FFF7FCFD074604E053
:100AD000FFF7F8FDC01B022823D828688007F7D449
:100AE000207800072CD57948A169D9B1C0F80090C9
:100AF000FFF7E8FD074604E0FFF7E4FDC01B02280E
:100B00000FD8686A8007F7D571484FF4FA5100682A
:100B1000B0FBF1F0009000BF0098411E0091FAD2A6
:100B20000EE080E0C0F80080FFF7CCFD074604E04F
:100B3000FFF7C8FDC01B022875D8686A8007F7D484
:100B40002078400760D5E8690027C00008D4E8692C
:100B500040F08050E861E869012700F08050009083
:100B60005C480168C90513D40168834641F480716B
:100B70000160FFF7A7FD824606E000BFFFF7A2FD78
:100B8000A0EB0A0064284ED8DBF80000C005F5D5BC
:100B9000E06801280AD008B1052813D0286A20F09F
:100BA00001002862286A20F0040002E0286A40F070
:100BB00001002862E06841F2883B98B1FFF782FDAE
:100BC00082460BE0286A40F004002862EEE700BF8E
:100BD000FFF778FDA0EB0A0159455AD8286A80072B
:100BE000F6D50CE0FFF76EFD824605E0FFF76AFDE3
:100BF000A0EB0A0159454CD8286A8007F6D41FB1EA
:100C0000E86920F08050E861E06988B36968C1F361
:100C10008101022944D00228C6F8608004D0FFF781
:100C200051FD044638E034E0FFF74CFD074604E090
:100C3000FFF748FDC01B02282BD828688001F7D495
:100C4000206AB0F5803F05D16868A16820F40030C3
:100C500008436860D4E908010843696821F4741105
:100C600008436860C6F86090FFF72CFD044606E074
:100C700025E000BFFFF726FD001B022809D82868E1
:100C80008001F7D51BE000BFFFF71CFD001B022809
:100C900002D90320BDE8F88F28688001F4D40EE063
:100CA0000128F7D06868226A00F48031914204D1AB
:100CB000616A00F47010884201D00120EAE7002048
:100CC000E8E7000000100240000042428004424277
:100CD0000C000020007000404FF0E021042808695B
:100CE00003D020F004000861704740F00400FAE7E8
:100CF00010B5401EB0F1807F01D3012010BD4FF030
:100D0000E02460610F21601700F0A2FF0020A061C5
:100D100007202061002010BD70477047F8B50168BA
:100D200004460868CA684B6910F00F0F4FF00005C1
:100D300059D003F0010602F49077374365D0C1071C
:100D400005D0D10503D5616C41F001016164410713
:100D500005D5D90703D0616C41F0020161648107B8
:100D600005D5D90703D0616C41F004016164010726
:100D700007D502F02001314303D0616C41F0080136
:100D80006164616C00293AD0800604D5900602D5D2
:100D9000204600F00CFE20684069616CC0F38010B2
:100DA000090700D460B3204600F0DAFD20684069EE
:100DB000400621D52068143050E8001F21F0400182
:100DC00040E80012002AF5D1E06BA8B16D494163FB
:100DD000E06BFFF735FB002811D0E06B416B01B0F1
:100DE000BDE8F040084783060FD593060DD5204691
:100DF000BDE8F84000F0DBBD2046FFF78EFFF8BDF0
:100E00002046FFF78AFF6564F8BD266B2023012E7C
:100E10007CD1C6067AD5D60678D508684868009091
:100E200048694FF00206400640D5E16B086840680B
:100E30000004000CE8D0A28D8242E5D9E0858869E3
:100E400020282DD020680C3050E8001F21F480713C
:100E500040E80012002AF5D12068143050E8001F45
:100E600021F0010140E80012002AF5D12068143079
:100E700050E8001F21F0400140E80012002AF5D19F
:100E800084F84230256320680C3050E8001F21F0C0
:100E9000100140E80012002AF5D1E06BFFF7ACFA30
:100EA0006663A08DE18D401A81B22AE0A08DE18DAC
:100EB000401A81B2E08D0028A6D00029A4D0226873
:100EC0000C3252E8000F20F4907042E80007002F27
:100ED000F5D12068143050E8002F22F0010240E8DC
:100EE0000027002FF5D184F84230256320680C30AC
:100EF00050E8002F22F0100240E80023002BF5D12B
:100F000066632046FFF708FFF8BDFFE705062BD50F
:100F1000150629D594F841002128F5D1A068B0F52F
:100F2000805F01D12069B0B1206A411C2162216833
:100F300000784860E08C401E0004000CE084E3D19F
:100F40002068C16821F08001C1602068C16841F05B
:100F50004001C160D8E7206A0088C0F308004860FB
:100F6000206A801C2062E5E74006CDD55006CBD52F
:100F7000CA68204622F04002CA6084F8413000F07E
:100F800076F8C1E75119000870B5040004D094F850
:100F90004100002510B106E0012070BD84F84050EA
:100FA000204600F023F8242084F841002068C1681E
:100FB00021F40051C160204600F05AFD206801690B
:100FC00021F4904101612068416921F02A014161C9
:100FD0002068C16841F40051C1606564202084F834
:100FE000410084F842006563002070BD30B585B0D3
:100FF00000240094019402940394006818498842E4
:101000002CD11848816941F480418161816901F4E2
:1010100080410491816941F0040181618069124D30
:1010200000F0040004904FF4007000900220019042
:101030000320039069462846FFF74EFA2815CDE9AC
:101040000004694628460294FFF746FA002211463A
:101050002520FFF7A3FB2520FFF792FB05B030BD4D
:1010600000380140001002400008014070477047FE
:10107000FEE7000030B41F4802210122C170102198
:101080000171002141718271C2714FF4027383605A
:10109000017342738273C17301744174017081746E
:1010A000C174017541750324847541708170C175E7
:1010B000017641768176C276017742772030092326
:1010C000027043708370C270027104234371837194
:1010D000C271027243728272C2720273427384736B
:1010E00002614261826101772022014630BC2030DA
:1010F000FFF7E1B82C02002070B5194886B081696D
:1011000041F004018161816901F004010491816968
:1011100041F0080181618069012500F00800049018
:10112000F02000240326CDE90005CDE902466946FA
:101130000C48FFF7D1F94EF2034003960090CDE939
:101140000154094C69462046FFF7C6F90122910275
:101150002046FFF7B1FA00F093FB06B070BD000027
:101160000010024000080140000C014010B50D4C79
:1011700001206070002000F021F80B48006800F0AA
:101180002DFD002161703C2004F1600242F8201026
:10119000401EC0B2FA28F9D3BDE81040022000F08A
:1011A00087BD00002C0200202800002010B5FFF7AA
:1011B000DDFFBDE810400120AFF300802DE9F041D4
:1011C0004849494C4FF4C043CA7803EA4232C4F854
:1011D000BC20D4F8A4304FF6F07213400A7902F024
:1011E0001F052B43C4F8A4304FF4F85303EA02223E
:1011F0004B7941F2F2159B0742EA136242F01C025E
:10120000C4F8A0208B79CA7945EAC3031A43C4F80D
:101210009C208B688A7B43F6FF7505EAC3031A435B
:101220000B7B4D7B9B0043EA45031A43C4F88C209B
:10123000CA7B0B7CD20342EA83324B7C4FF460556D
:1012400005EAC3231A430B78602542EA83228B7C8C
:1012500042EA0322CB7C42EAC3120B7D05EA8313E8
:101260001A434B7D1C2505EA83031A438B7D1A43E1
:10127000C4F888204A78022303EB42328B7842EA92
:101280000332CB7D42EAC3220B7E42EA83224B7EAD
:1012900042EA43228B7E42EA0322CB7E42EAC31219
:1012A0000B7F497F42EA83120A432260002817D04D
:1012B0000C4E3C256FF07F4716F1600654F8250070
:1012C00056F82510884207D046F82500B84203D0CA
:1012D00065F31F4000F082FC6D1EEDB2FA2DEDD3D8
:1012E000BDE8F0812C020020280000202DE9F04309
:1012F00085B00024254800940194029403948169E8
:1013000041F010018161816901F01001049181694E
:1013100041F020018161816901F02001049181691E
:1013200041F004018161816901F004010491816946
:1013300041F0080181618069DFF8548000F0080005
:1013400004900022F0214046FFF7B6F9DFF8449000
:101350004EF20347002239464846FFF7ADF9F02028
:1013600001250326CDE90005CDE902466946404640
:10137000FFF7B2F800970396CDE901546946484655
:10138000FFF7AAF805B0BDE8F083000000100240A6
:1013900000080140000C01400C4810B50A490160EA
:1013A0004FF4E1314160002181600C22C160C0E94D
:1013B00004128161C161FFF7E7FD002803D0BDE899
:1013C0001040FFF710B810BD003801401C0100208C
:1013D000FEE70000094881680968096889060CD59C
:1013E00007490A68074B41685A54491C41606429FF
:1013F00003D10021416001210170704714000020D9
:1014000004380140C8010020FEE700002DE9F35F29
:10141000924898B04FF0FF31C56C0E958B468A46C6
:10142000446DD0E90E10CDE915018C484FF001094B
:10143000C06A13908948006B0F908848006802903A
:101440008648C06D14908548806E0690DDE918329C
:10145000A3FB0516022007908148019002FB05625C
:10146000002003FB0022A1FB047302FB0432DFF81F
:10147000EC8101FB0026D8F848E0D8F85010009124
:10148000D8E9102117E0AE4501D26D1E04E00098A6
:10149000A0426FD20E9D6408DDE91836A3FB05C794
:1014A00006FB0576002003FB0063ACFB047603FB20
:1014B00004630CFB0036DDE91503FB1A76EB000034
:1014C000E1D3D01B71EB0600DDD3D8F80400139AEA
:1014D000824202D80F9A824200D21046029A824279
:1014E00003D2B0FBF2F202F101095C49896D0D9162
:1014F0000D9B5A4A4B453ED3D26E069B01215A435F
:1015000012922FE0029B03FB09FEBEFBF1F2824226
:101510000DD8BEFBF1F2A0EB02080022B8EB0B03E2
:1015200072EB0A0303D2BEFBF1F3C31A10E0BEFB59
:10153000F1F2824211D9BEFBF1F2A2EB00080022C7
:10154000B8EB0B0372EB0A0307D2BEFBF1F31B1AD5
:101550009B469246CDF85C9010915BEA0A0203D05C
:10156000129A491C8A42CDD25BEA0A0103D009F1E2
:101570000109BDE736E006991098814204D2084679
:1015800012911099081A01E01290012011901798F9
:101590000D900D99029800234843DDE91121514334
:1015A000B0FBF1F207980092424338463146FEF70D
:1015B0000BFE14998046414518D2042007900098EC
:1015C0000023820038463146FEF7FEFD149980461E
:1015D00041450BD2012C01D9640837E7042D01D90C
:1015E0006D1E33E7FF201AB0BDE8F09F009A079800
:1015F000019B4243A7FB030C06FB03C3002107FB2F
:1016000001310023FEF7E0FD019A08FB02F1431AC5
:101610001146184600F06CFB019AB3FBF0F1B2FBE7
:10162000F0F20E48009BC0F87080C0F89430C0E91A
:101630001D121299C1671199C0E92015002101E01E
:101640006408491C002CFBD1491E40F8881F0799EB
:1016500041600D9981600020C5E7000080030020F3
:10166000803801000FB4982210B502A91148FEF786
:1016700022FE10480721C164042181644021416594
:1016800001210165027A01FA02F2C265027C01FAC7
:1016900002F24266027B01FA02F20266027D01FA60
:1016A00002F28266027E9140C1660D21816510BC06
:1016B0005DF814FB80030020704770472DE9F04768
:1016C0000546CEB014461E4610461946FFF79EFE4C
:1016D000DFF8A4A1002870D1AAF10800C0E90046F3
:1016E00028A8FEF783FE982228A902A8FEF7E3FDAA
:1016F00024980122C1B26148894600EB4510C171AE
:101700002399091FCBB203722699CCB28472229915
:10171000C172219901732599A2EB5101CFB2477390
:101720001E9E06611F9A426120998161012901D1A3
:10173000002181618C464FF47F4101EA1C28C2F3ED
:10174000074148EA0108002D02D000BF4FF0100504
:101750000AEB85055146C5F8048002D14FF000051B
:1017600001E04FF0100501EB8505AA6003D100BF31
:101770004FF0000201E04FF0100201EB8202C2F8CC
:101780000CC0C6F30B02857B4FF4E04642EAC73239
:1017900006EA053542EA050203D100BF4FF0000515
:1017A00001E04FF0100501EB85052A61B0F80B2030
:1017B00052BA03D14FF0000502E055E04FF010059A
:1017C00001EB85056A6104F01F02447A4FEA447414
:1017D00042EA14624FF4407404EA032342EA03022B
:1017E0004FF4E05404EA892342EA030283794FF676
:1017F000FF7404EA433342EA030202D14FF00003CC
:1018000001E04FF0100301EB83034FF4F8549A61A9
:101810004279037902F0070242EA8312C37842EA6E
:10182000C312837804EA032342EA030203D100BF10
:101830004FF0000301E04FF0100301EB8303DA6186
:10184000037F4278007863F35F1242EA802002D17E
:101850004FF0000201E04FF010020AEB8201086233
:101860004FF00100FFF7AAFCDAF8000000F0B6F92B
:101870004EB0BDE8F0870000280000204C02002098
:1018800000B5C9B01448229023900C202490182051
:1018900025902690082027902890042029900F4812
:1018A0002D900F482E900F480121CDE930010E48B0
:1018B000CDE93201FFF7DEFB882226A96846FEF754
:1018C000FAFC0DF1880C9CE80F00FFF7CBFEFFF748
:1018D0006DFC49B000BD000000E1F505A0860100E7
:1018E00080D1F00800CB4C0000406F40FEF7F0BE06
:1018F00030B58FB028216846FEF70FFD14210AA8E5
:10190000FEF70BFD01210804CDE90010002402942C
:1019100002250491CDE907504FF4E0100990684684
:10192000FFF74AF808B172B6FEE70F20CDE90A05C5
:101930004FF48060CDE90C4002210AA80E94FEF716
:101940005FFF002801D072B6FEE70FB030BD7047D0
:1019500010B5406A0021C185C184FFF7DEF910BDD2
:1019600001680C3151E8002F22F4907241E8002305
:10197000002BF5D10168143151E8002F22F001024B
:1019800041E80023002BF5D1016B012909D1016841
:101990000C3151E8002F22F0100241E80023002B07
:1019A000F5D1202180F8421000210163704708B56D
:1019B00090F84210222901D0022008BD82684FF41D
:1019C00080539A4201D1016921B1816A9A421BD0A8
:1019D0004AB10AE00268816A5268C2F308020A80CA
:1019E000816A891C08E0026972B10268526802F0DB
:1019F0007F020A70816A491C8162C18D491E0904F7
:101A0000090CC18503D01BE002685268F1E7016848
:101A1000CA6822F02002CA600168CA6822F4807293
:101A2000CA6001684A6922F001024A61202180F8F7
:101A3000421000214163026B012A03D0FFF716FB1D
:101A4000002008BD016301680C3151E8002F22F02D
:101A5000100241E80023002BF5D101680A68D20684
:101A600002D50A6849680091818DFFF755F9E7E7CB
:101A700070B5044600680169E26821F440511143E1
:101A800001612169A0680843616908432168CA6847
:101A900041F20C639A430243CA6020684169A2691B
:101AA00021F44071114341611E492068884202D1EE
:101AB000FEF74CFF01E0FEF739FF00EBC00101EB40
:101AC0000012606864218000B2FBF0F3B3FBF1F315
:101AD0006FF018067343B2FBF0F5B2FBF0F605EBBE
:101AE0008305322303EB0515B5FBF1F5B6FBF1F6E3
:101AF00005F0F00505EB0615B2FBF0F6B2FBF0F0D1
:101B0000B0FBF1F06FF01802504306EB800003EBDE
:101B10000010B0FBF1F0216800F00F00284488604D
:101B200070BD0000003801400A4A0120084952688F
:101B300008E00B1813F8013C0D2B02D10B5C0A2BAB
:101B400004D0401C9042F4D300207047012070471D
:101B5000C80100201400002010B50548FFF73AFC2A
:101B60000448FFF7DBF8BDE81040034800F010B868
:101B7000003801401C0100206401002003498860F6
:101B80000068C16841F02001C16070471400002066
:101B900030B50546FFF7C8FF002815D00C480024D3
:101BA0000C4A40680AE0115D295534B12B1913F82D
:101BB000013C0D2B01D10A2907D0641C8442F2D3C9
:101BC000204600F055F8204630BD641CF8E70000C0
:101BD00014000020C8010020FEE700002DE9F041BC
:101BE0001A4D0646002202212846FEF765FD012017
:101BF00000F064F8002201212846FEF75DFD18245C
:101C00004FF48047300201D5012200E0002239461E
:101C10002846FEF751FD012211462846FEF74CFDED
:101C20007600002201212846FEF746FD641E14F0CE
:101C3000FF04E7D1002239462846FEF73DFD28463D
:101C4000BDE8F04101220221FEF736BD000C014043
:101C50000907090E002804DB00F1E02080F80014D9
:101C6000704700F00F0000F1E02080F8141D70476D
:101C700010B50021074AC0F1640303E00C18145D9D
:101C80005454491C8B42F9D803494A68101A4860D9
:101C900010BD0000C80100201400002010B504464B
:101CA0000420FFF719F80148048010BD100000203F
:101CB0004FF47A71484300F001B8000070B54FF05E
:101CC000E024002265690949A36909884843A1699C
:101CD0009942FCD002D2A3EB010302E0A5EB01067E
:101CE00033441A440B468242F1D370BD10000020E9
:101CF0000AE0884204DD90FBF1F201FB120003E0F0
:101D000091FBF0F200FB121100FB01F2002AF0D16E
:101D1000002800D108467047FEF7E2FCFFF7E8FD17
:101D2000FFF7E4FAFFF738FB4820FFF7B7FF084852
:101D3000FFF724FFFFF7E0F9064C00232246184680
:101D4000FFF7BCFC224600230120FFF7B7FCFEE7AB
:101D50001C010020C0A39B0001020203040506072A
:101D600008090A0B0C0D0E0F1010000000000000F7
:101D70000000010203040607080900000000010238
:101D800003040000A41D0008000000201C01000046
:101D900028010008C01E00081C0100205C0900008A
:101DA00044010008010000001000000000000000D5
:101DB0000024F4000000000000000000000000000B
:101DC0000000000000000000000000008300000090
:101DD0000000010000000200000003007020040069
:101DE00001010500819B0600C40E07000E000800DB
:101DF0000000090000000A0000000B0000000C00B9
:101E000000000D0000000E0000000F000000100098
:101E100000001100000012001027130070201400B1
:101E200001011500819B1600C40E17000E0018005A
:101E30000000190000001A0000001B0000001C0038
:101E400000001D0000001E0000001F000000200018
:101E50000000210000102200830C2300FFFFFF0080
:101E6000FFFFFF00FFFFFF00FB1127001C102800F1
:101E70001008290010022A0030482B00FFFFFF0045
:101E8000FFFFFF00FFFFFF0000402F00FFFFFF00EC
:101E9000FFFFFF00FFFFFF00FFFFFF00FFFFFF004E
:101EA000FFFFFF00FFFFFF00FFFFFF00FFFFFF003E
:101EB000FFFFFF00008C3A00FFFFFF0000A03C0086
:04000005080000ED02
:00000001FF
